:020000040800F2
:10000000684A0020FD03000879760008537600084E
:100010007576000849470008638D0008000000005D
:100020000000000000000000000000001D030008A8
:10003000BD47000800000000790300083987000868
:100040001704000817040008170400081704000824
:100050001704000817040008170400081704000814
:100060001704000817040008170400081704000804
:1000700017040008170400081704000817040008F4
:100080001704000817040008170400087D4700083B
:100090004D4700085D4700086D4700081704000839
:1000A00017040008BD87000817040008170400089B
:1000B00017040008000000000000000017040008FA
:1000C00017040008170400081704000817040008A4
:1000D0001704000817040008170400081704000894
:1000E00017040008170400080000000000000000CA
:1000F0000000000000000000000000000000000000
:1001000000000000170400080000000017040008A9
:100110000000000000000000170400081704000899
:100120001704000817040008170400081704000843
:10013000170400080000000000000000000000009C
:100140001704000817040008170400081704000823
:100150001704000817040008170400081704000813
:100160001704000817040008170400080000000026
:100170001704000817040008170400080000000016
:1001800017040008170400081704000800F002F81C
:1001900000F0B4F80AA090E8000C82448344AAF16D
:1001A0000107DA4501D100F0A9F8AFF2090EBAE86B
:1001B0000F0013F0010F18BFFB1A43F0010318479B
:1001C00034200100542001000A4410F8014B14F0BF
:1001D0000F0508BF10F8015B240908BF10F8014B98
:1001E0006D1E05D010F8013B6D1E01F8013BF9D1E1
:1001F000641E03D0641E01F8015BFBD19142E4D37D
:10020000704700000023002400250026103A28BF74
:1002100078C1FBD8520728BF30C148BF0B60704778
:100220006E2901F06F82702900F04385662911F074
:100230006E81652911F06B81672911F06881612950
:1002400011F0678103681B0A28BF41F0800169290A
:1002500000F0DC83642900F0D983752900F0D6838F
:100260006F2900F0D084782900F00F85E92900F08B
:100270006B84E42900F06884F52900F06584EF2997
:1002800000F0CD84F82900F00E850368DB0928BF53
:1002900041F08001632901F00C86732901F0118679
:1002A000E32901F02F86F32901F0348600207047FE
:1002B0001FB511F01FF99DE8030001F04FF901F09F
:1002C0002DF90400002000210EF010FB401C60609E
:1002D000002000210EF020FBA060002000210EF085
:1002E00031FBE06000F0F0FE00F074FA1FBD10B5C5
:1002F000002000F0CDFF00F050FF10BD02F0C3FB66
:100300001146FFF7D5FF0BF0AFFF03F006FA03B479
:10031000FFF7EDFF03BC01F0F3F800002C4B196868
:10032000086800F05AB880F30988BFF36F8F4FF068
:10033000000080F311887047000000000848006842
:10034000006880F308884FF0000080F3148862B6DC
:1003500061B6BFF34F8FBFF36F8F00DF00BF00BFE9
:1003600008ED00E0DFF80C00016841F47001016065
:10037000704700BF88ED00E0EFF30980BFF36F8F97
:10038000134B1A681EF0100F08BF20ED108A20E9E9
:10039000F04F106009B44FF0500080F31188BFF3A4
:1003A0004F8FBFF36F8F0DF0FFF94FF0000080F318
:1003B000118809BC1968086800F014B81EF0100F05
:1003C00008BF00F014B880F30988BFF36F8F70473F
:1003D0008C000020EFF30580704730C8B0E8C04FB4
:1003E000FFF7A1BF30C8B0E8C04FFFF7E7BFB0ECE0
:1003F000088AB0EC08CAFFF7E6BF0000094880474A
:1004000009480047FEE7FEE7FEE7FEE7FEE7FEE7F6
:10041000FEE7FEE7FEE7FEE704480549054A064B0E
:10042000704700006D8700088D01000868440020B7
:10043000684A0020684600206846002053EA020C03
:1004400000F069802DE9F04B4FF00006002B1FBF34
:10045000B3FA83F503FA05F424FA05F65E4012BFF9
:100460001643B2FA82F502FA05F4C5F120051EBF63
:1004700022FA05FC44EA0C04203556EA044C4FEA03
:10048000144418BF641C4FF000084FF0000990425C
:1004900071EB030C39D3002919BFB1FA81F701FAC6
:1004A00007F6B0FA80F700FA07F6C7F120071EBF7B
:1004B00020FA07FC46EA0C062037B6FBF4FCA7EB53
:1004C0000507103F07F01F0BCBF120060CFA0BFBC2
:1004D0002CFA06F644BFB3460026202FA4BF5E4682
:1004E0004FF0000B5BEA060C08BF4FF0010B19EB55
:1004F0000B09ABFB027C48EB0608C01B06FB02CCD9
:100500000BFB03CC71EB0C01C1E70B4602464146E5
:100510004846BDE8F08B13B54FF000004FF00001E6
:10052000AFF30080BDE81C407047000070B5044682
:10053000C068810713D0800601D5A56A04E0A169CF
:10054000606808442169451A204600F079FD0022C0
:1005500006462946204600F0A1FC304670BD00202A
:1005600070BD70B510B1BDE87040DFE70025074CE5
:100570006E1E07E02046FFF7D9FF00B13546206D1B
:1005800020F00104002CF5D1284670BD4C15002048
:100590002DE9F041074615460E46102000F044F9BB
:1005A00004000AD06760C4E9026500F039F9016807
:1005B000216004600020BDE8F0810120FBE710B558
:1005C000431C02E010F8011B71B18107FAD14FF012
:1005D000013202C88C1A8C4314EAC211F9D0C01A35
:1005E0000A0603D0C01E10BDC01A10BD0A0401D0F7
:1005F000801E10BD0902FCD0401E10BD032A40F22F
:10060000308010F0030C00F0158011F8013BBCF1B4
:10061000020F624498BF11F801CB00F8013B38BFCC
:1006200011F8013BA2F1040298BF00F801CB38BFDA
:1006300000F8013B11F0030300F06780083AC0F0B6
:10064000088051F8043B083A51F804CBA0E80810A0
:10065000F5E7121D5CBF51F8043B40F8043BAFF3D3
:100660000080D20724BF11F8013B11F801CB48BF2D
:1006700011F8012B24BF00F8013B00F801CB48BF63
:1006800000F8012B7047431A28BF9A427FF6B6AF95
:10069000032A1044114440F2268010F0030F1EBFBD
:1006A00011F8013D521E00F8013D10F0030F7FF4D8
:1006B000F6AF11F0030300F06186083AC0F00B803A
:1006C00051F8043D083A51F804CD40F8043D40F893
:1006D00004CDFFF7F3BF121D5CBF51F8043D40F895
:1006E000043DAFF30080D20724BF11F8013D11F89B
:1006F00001CD48BF11F8012C24BF00F8013D00F8DE
:1007000001CD48BF00F8012C704710B5203AC0F069
:100710000B80B1E81850203AA0E81850B1E8185002
:10072000A0E81850BFF4F5AF5FEA027C24BFB1E83F
:100730001850A0E8185044BF18C918C0BDE81040B0
:100740005FEA827C24BF51F8043B40F8043B08BFB9
:100750007047D20728BF31F8023B48BF11F8012B80
:1007600028BF20F8023B48BF00F8012B704702F079
:10077000FF0343EA032242EA024200F02BBE4FF09D
:10078000000200B5134694469646203922BFA0E8E1
:100790000C50A0E80C50B1F12001BFF4F7AF0907ED
:1007A00028BFA0E80C5048BF0CC05DF804EB8900DE
:1007B00028BF40F8042B08BF704748BF20F8022B21
:1007C00011F0804F18BF00F8012B70477047704739
:1007D0007047000070B5064C7C44064D7D4403E034
:1007E000206820448047241DAC42F9D170BD000030
:1007F000BC1B0100D01B010010B50AF0C7FEBDE80C
:1008000010400AF025BE000010B500F087FE001D64
:1008100010BD00BFD9E00000004870472034002020
:10082000004870472434002070B5064600F072FE80
:10083000056806F10B0020F00704B4429CBF0020BD
:1008400070BD2B466A68BAB11068A04210D304F19B
:10085000080188423CBF5068586007D3516810199E
:1008600041601168091B016058601460101D70BD63
:1008700013465268002AE7D12146284600F05AFE66
:100880000028DED170BD70B50446051F00F042FEA1
:100890000068002C14BF446870BD002C18BFAC4227
:1008A0003CBF20466468F8D301680A18AA4218BF02
:1008B000456003D12A680546114401602868411942
:1008C000A1421CBF6C6070BD61686960216808440A
:1008D000286070BD0FB4014610B504AA039801F05A
:1008E000F5FA10BC5DF814FB7CB51D4616460C00ED
:1008F000009001D02044401E074B7B442A466946A5
:100900000190304601F0ABFA05461CB10020694663
:1009100001F0B8FA28467CBD911500000FB41CB553
:10092000084B06AA7B4469460090059801F097FAA7
:1009300004460020694601F0A5FA20461CBC5DF87B
:1009400014FB00005D15000070B504468569006861
:10095000C10601D5302600E02026C00707D070BDB3
:10096000D4E9012130469047206A401C20626D1E68
:10097000F6D570BD70B5044685690078C00707D10B
:1009800070BDD4E9012120209047206A401C2062DC
:100990006D1EF6D570BD09684A0501D540B2704795
:1009A000C905FCD500B2704709684A0501D5C0B237
:1009B0007047C905FCD580B2704770B50C46054636
:1009C000012A05D02878800600D5EA69002302E0D4
:1009D000012305E05B1C934202D2E05C0028F9D1C0
:1009E000A869E618C01AA861286A1844286228462F
:1009F000FFF7AAFF04E0D5E9012114F8010B9047A5
:100A0000B442F8D32846FFF7B5FF70BD2DE9F04199
:100A10000646002410687529314616A510D0FFF748
:100A2000BAFF002802DA404213A507E031688A07BE
:100A300001D512A502E0490704D511A5012401E062
:100A4000FFF7B2FF00210A2206F1240709E0B0FBFC
:100A5000F2FCB0FBF2F302FB1C0030307854184675
:100A6000491C0028F3D123462A463046BDE8F04110
:100A700000F0EFBD000000002D0000002B00000082
:100A8000200000002DE9FF5F15468A460446DFF886
:100A9000AC80F8440027D8E900103E46CDE90010AC
:100AA00010E03AF816106A4602A801F073FF411CE4
:100AB00007D02178890603D5E269391891420DD80B
:100AC0000744761C2078800602D5E069B84205DD2F
:100AD000AE42E6DB3AF816000028E2D1A069C01B5E
:100AE000A0612046FFF730FFD8E90010CDE90010E3
:100AF000002017E03AF818106A4602A801F04AFFF1
:100B0000B0F1FF3F81460BD000250DF1080B05E049
:100B1000D4E901211BF8050090476D1C4D45F7D322
:100B200008F10100B0428046E4DB206A38442062CC
:100B30002046FFF71FFF00F003B80000FA0E010087
:100B40003FBCBDE8C09F00002DE9F0418046D21DAA
:100B500022F007020025D2E90002F52915A614D0DB
:100B6000011E72F1000106DA0023D0EB030063EBF3
:100B7000020211A608E0D8F800108B0701D50FA6D5
:100B800002E0490701D50EA601251146002408F10F
:100B9000240704E000F018FD30323A55641C50EA96
:100BA0000102F7D12B46324621464046BDE8F041CE
:100BB00000F04FBD000000002D0000002B000000E1
:100BC0002000000030B4002100F1240408E002F00D
:100BD0000705D208303542EA4372DB086554491CE8
:100BE00052EA0305F3D10468002310A2250707D5B4
:100BF000A40600D421B1C46901230DA2641EC461FE
:100C000030BC00F026BD10B5044621461068FFF741
:100C1000CBFE02462046BDE810400023D2E7D21D9D
:100C200022F00701D1E90023CCE70000000000001A
:100C300030000000F0B40D460188090502D5214CB2
:100C40007C4402E01F4C7C440E34002100F1240659
:100C500008E002F00F071209E75D42EA03721B0980
:100C60007754491C52EA0307F3D102780023120794
:100C700004D5702D06D009B1022311342246F0BCF0
:100C800000F0E7BC01231034F8E770B504460D46C8
:100C900021461068FFF788FE024629462046BDE837
:100CA00070400023C6E7D21D22F00703D3E90023DA
:100CB000C0E70368126843F0200303600823C361A0
:100CC0000023B7E7540D01002DE9F05F8946044683
:100CD0004FF0000ADFF874B1FB44C0F820A02046B2
:100CE000E1688847002874D0252806D0D4E901217E
:100CF0009047206A401C2062F1E700265F462046AC
:100D0000E16888472028054607DB312D05D2781990
:100D100010F8200C08B10643F1E7B00701D526F022
:100D20000406C4F81CA00027C4F818A02A2D09D076
:100D300028460AF057FF38B304EB8708303DC8F85F
:100D4000185019E059F8041B204604EB8702916102
:100D5000E1688847012F054618D1E069002820DAAC
:100D600026F020061DE0D8F8180000EB800005EB07
:100D700040003038C8F818002046E168884705462A
:100D80000AF030FF0028EED1012F0AD02E2D08D115
:100D90002046E16888477F1C0546022F46F0200662
:100DA000C4DBA069002803DA404246F00106A061D6
:100DB000F00701D026F010066C2D0BD0682D09D05D
:100DC0004C2D39D06A2D35D0742D35D07A2D33D0B5
:100DD00016E038E0E1682F4620468847B8420546CD
:100DE00009D16C2F26D04FF48060E168064320467D
:100DF0008847054604E06C2F1AD04FF480700643F4
:100E00000DB3A5F14100192802D8203546F400663B
:100E10004A462946204626604E46FFF701FA80B131
:100E200001280BD0F61D26F0070000F1080956E74F
:100E30004020E4E78020D8E70020D6E706F1040947
:100E40004DE7284652E7206A00F002B8E40C0100A2
:100E500030BCBDE8C09F00000FB400B58DB010A934
:100E6000099000910B904FF0FF300A9000200C90F9
:100E7000064878440690064878446A4607900F99D9
:100E800009A801F01BFA0DB05DF814FB671400000F
:100E90007F140000007B00F0800070472DE9F041D6
:100EA000044616460D464769007B80072ED038461B
:100EB00000F012FB50BB3EB3012E02D0022E25D112
:100EC00004E0204600F066F805441DE0384600F0D6
:100ED00011FBE168002841F01001E16005DA2046CD
:100EE00000F07AF80120BDE8F081C9030BD56268F3
:100EF000E16A914200D81146A26911442269891A17
:100F0000814200DD08460544002D01DA0220EAE7AF
:100F1000E16A6068E268814206D29103E06203D52B
:100F200022F4003141F01002A6690027AE4213DC22
:100F3000E16A814201D90B4600E0034603EB060C4F
:100F40002369ACEB030CAC4506DD814201D98C462C
:100F500000E084469C4505D1A760276042F0200050
:100F6000A5620DE0AD1BE669AE1B8142A66000D90B
:100F70000846C01A281A20605819606022F0200024
:100F800003490840E060002084F84870ABE70000A7
:100F9000BFCFD7FF10B50146C268900703D09006B7
:100FA00007D5886A0AE000F0BDFA01210160881EB9
:100FB00010BD8B69486818440B69C01A91F8483015
:100FC0001BB191F84910401A10BD1103FCD500283F
:100FD000FADD401E10BD0000C16821F4001141F08F
:100FE0008001C16000218160016070472DE9F047F8
:100FF000814614460E464FF0FF383248D56857698F
:10100000054209D03846A16900F06CFA002811DBCE
:101010002C48C0430540E5602B46324649463846D9
:1010200000F04BFAA16920F00042B21A11440028E6
:10103000A16103D02046FFF7CFFF4046BDE8F0870F
:1010400070B504460569C06A6168884200D80846E0
:10105000E16821F42011E160C90312D5A84208D04B
:101060002246411B2846FFF7C1FF10B14FF0FF3069
:1010700070BD0020E562C4E90150E06820F48030D2
:10108000E060002070BD10B50446C06820F020006C
:10109000E060A16AA06988420DD02046FFF7D0FF2A
:1010A000E06820F4405040F01000E060A06AA061C9
:1010B0002069E062606044F24001E0688843E060DB
:1010C00010BD00001000020010B542485421FFF787
:1010D00056FB41485421FFF752FB40485421FFF78B
:1010E0004EFB3F493B483C4A3F4B08603D490A6044
:1010F0003A491960531C0365481C106501200865B6
:101100003B48344A39A1784401F09AFA20B938486A
:1011100078440A3801F065FC37482F4A35A17844F5
:1011200001F08EFA20B9344878440A3801F059FCAD
:1011300032482A4A2FA1784401F082FA20B92F4878
:1011400078440A3801F04DFC40232248DC0000219D
:10115000224601F052FA20B125487844543801F073
:1011600040FC1D4822464023002101F046FA20B1F0
:1011700021487844543801F034FC184822461023A2
:10118000002101F03AFA002806D01C487844BDE856
:101190001040563801F025BC10BD104870B5006DE8
:1011A00020F001040B4800F02BF80B4800F028F861
:1011B0000A4800F025F809E0206D20F001052046DE
:1011C00000F01EF82046FFF75EFB2C46002CF3D102
:1011D00070BD00004C150020A0150020F415002063
:1011E000000100200401002008010020720000001E
:1011F000C708010077000000B30801009F08010044
:101200002DE9F04704464FF000094FF0FF37C5685D
:10121000D4E90486A80707D02046FFF711FF30461F
:1012200000F045F9002802DA3846BDE8F0872805C5
:1012300002D54046FFF727FB4C212046FFF79FFAD7
:10124000206D20F0010020654846EEE70A46014681
:10125000014801F0F2BA00009033002010B50248B6
:1012600001F064FA004810BDBC33002018B10068DA
:1012700008B1002070470120704710B5002001F030
:10128000A9FBFFF734F8BDE81040012000F038B9A1
:101290002DE9F0410646FFF7C3FA8046454613E0C4
:1012A00016B1E068B0420ED120682860D4E901018F
:1012B000D8F8007088472046FFF7E5FAD8F8000014
:1012C000B842EBD100E025462C68002CE8D1BDE8FF
:1012D000F08140EA0103024630B59B0710D14FF080
:1012E000013400E008C208C91D1B9D4315EAC41F54
:1012F000F8D013F0FF0102F8011B0DD01B0AF8E72C
:1013000011F8013B002B02F8013B05D011F8013B1D
:10131000002B02F8013BF3D130BD0022CBB210F814
:10132000011B994200D1421E0029F8D11046704796
:10133000520001F05DBB421E12F8013F002BFBD1B1
:1013400011F8013B002B02F8013BF9D1704701B5C0
:10135000FFF754F901BD431A28BF9A427FF6D5A979
:10136000104410F0030F11441EBF11F8013D521E2E
:1013700000F8013D10F0030F7FF4F6AF103AC0F013
:101380000A8010B531E91850103A20E91850BFF41E
:10139000F9AFBDE81040530724BF31E9081020E938
:1013A000081044BF51F8043D40F8043D12F0030F0B
:1013B00008BF7047D20728BF31F8023D48BF11F877
:1013C000012C28BF20F8023D48BF00F8012C7047CF
:1013D0004FF000020429C0F0128010F0030C3FF41B
:1013E000D0A9CCF1040CBCF1020F18BF00F8012BFE
:1013F000A8BF20F8022BA1EB0C01FFF7C2B95FEAEE
:10140000C17C24BF00F8012B00F8012B48BF00F875
:10141000012B70474FF0013C50F8042B51F8043B6E
:101420009A4221D1A2EB0C03934313EACC1317D1B8
:1014300050F8042B51F8043B9A4215D1A2EB0C034F
:10144000934313EACC130BD150F8042B51F8043B0F
:101450009A4209D1A2EB0C03934313EACC13DBD0DD
:101460004FF00000704700BFD01A01BAB1FA81F105
:1014700001F0180122FA01F0CB40C1F12001DBB2EA
:10148000C0B2C01A2CFA01F3D11A914311EAC31168
:10149000E6D1704701F0C1BA00DE0EB5CDE900011A
:1014A000FFF78DF8029069460120ABBE0EBD08B56E
:1014B000694600900220ABBE08BD1FB58DE807004D
:1014C00069460520ABBE04B010BD1FB58DE80F0006
:1014D00069460620ABBEF6E708B5694600900920CC
:1014E000ABBE08BD1CB5CDE9000169460A20ABBE04
:1014F0001CBD704708B5694600900C20ABBE08BD06
:1015000001491820ABBEFEE72600020000487047E4
:10151000EC33002000487047F43300200048704747
:101520000C34002000487047EC33002070477047AF
:101530007047704738B504460A4600206946AFF345
:101540000080002808BF38BD02460099204601F0FF
:10155000C3FA012038BD012002F020B9F8B5AFF37D
:101560000080054600200C46102000BF0646A81942
:10157000A0420DD9324669460020AFF30080070033
:1015800008BF02F00BF90098A04218BF0546C41925
:10159000FFF7C0FF05600746F01D20F00700461961
:1015A000284600F00AF8B44208BFF8BDA21B314635
:1015B0003868BDE8F84001F08FBA00210160C0E949
:1015C000011070471020704730B5B0F10A024FEAA1
:1015D000900E71F100034EEA817EB0EB0E0061EBDC
:1015E00091014FEA101E4EEA017E10EB0E0041EB16
:1015F00011114FEA102E4EEA016E10EB0E0041EB76
:1016000011214FEA104E4EEA014E10EB0E0041EB55
:101610001141401841F100014FEAD00040EA417009
:101620004FEAD10110EB80054FEA810444EA90743F
:1016300044EB01046D1944EB0404521BA3414FF029
:10164000000348BF0A3200D530BD401C41F1000103
:1016500030BD2DE9F0470D4699469246044600F10B
:1016600024080168880604D5E06921F01001216092
:1016700000E00120A84201DD471B00E00027A1692E
:101680007A1902EB0900081AA0612078C00602D47A
:101690002046FFF759F9002608E0D4E901211AF89D
:1016A00006009047206A401C761C20624E45F4DB01
:1016B0002078C0060AD52046FFF746F906E0D4E9AF
:1016C000012130209047206A401C2062381EA7F17B
:1016D0000107F4DC07E0D4E9012118F80500904780
:1016E000206A401C2062281EA5F10105F3DC20467B
:1016F000FFF740F92078000602D50220BDE8F08708
:101700000120FBE711680268006A530501D50870E3
:101710000AE0D30501D5088006E0130603D5C217F9
:10172000C1E9000200E008600120704770472DE920
:10173000FF4F0C461E464FF0FF378BB0D2E9000139
:10174000DDF860800A908A46C1F30A5505B93D4626
:10175000002108464FF00000BAF1000F00F44000ED
:1017600005DA00EB80004FF4400101EA50004FEA37
:101770009059B9F1010F00DDB9460A9850EA4A00C4
:101780000ED044F61050A5F2FF3545432F14B8F1A2
:10179000000F1ED07542291E1EDDC9F100021CE09B
:1017A000B8F1010F4FF0000001D0302103E0F24307
:1017B00005E02154401CB042FBDB304600220021F2
:1017C00021540B99C1F80880C1E900200FB000F046
:1017D000BCB9BD1B6D1CDEE74A4600DA694206A8AB
:1017E00001F03EFE06AB93E8070003AB83E8070079
:1017F00050460A9902F0FAFA8DE80700A0F5005069
:101800001F3800900398002D0ADD42F21F014A465E
:101810000844002303A90390684602F0A5FD09E0EF
:10182000A0F500504A461F38002303A903906846DC
:1018300002F0C4FD8DE807000004000C03D04FF057
:10184000FF30410800E01046B8F1000F03D000223D
:10185000009215461EE0751E05D4FFF7B5FE303226
:1018600062556D1EF9D5B3460122084302D000220D
:101870007F1C04E02078302801D100227F1E002A3E
:10188000099784D01DE0112D07DAFFF79DFE303255
:1018900062556D1C50EA0102F5D1084302D0009850
:1018A000C8B10EE00021681E05E0235C625C635451
:1018B0002254401E491C8142F7DBAB46A81B401E48
:1018C0000990002004F80B000B98099AC0F80880D2
:1018D000C0E9002B7AE711264FF0000857E72DE901
:1018E000F04F88460446D21D22F0070191B0D1E99D
:1018F0000001CDE90A0109F014FE02460B98C00F61
:1019000001D02D2007E02068810701D52B2002E0BF
:10191000202101EAC000032A099001D0072A05DB33
:1019200003464146204601F0FBF80BE12078800693
:1019300001D5E06900E00620B8F1650F814606D0C8
:10194000B8F1660F18D0B8F1670F70D131E0002000
:10195000B9F1110F009001DB112301E009F101033E
:101960000AAA01A90CA8FFF7E2FEDDE90C70002627
:1019700009F10105834647E001204B4600904FF0F6
:1019800000470AAA01A90CA8FFF7D1FEDDE90DB0B6
:101990000C995D46002610B909F101000D18B9EB4C
:1019A000050003D4C0F1FF3609F10105A5EB0900DC
:1019B0002BE0B9F1010F01DA4FF001090020B9F174
:1019C000110F0090484601DD112300E003460AAAEA
:1019D00001A90CA8FFF7ABFEDDE90C704D4600260F
:1019E0008346207800070AD4AB4500DA5D4601A89B
:1019F000012D04DD411911F8011C302907D04F4594
:101A000002DA17F1040F04DA012082460FE06D1E9E
:101A1000EEE7002F02DCED1B3E4403E0781CA842F9
:101A200000DD7D1CB81B00F1010A4FF00047207853
:101A3000000703D4AA4501DB4FF0FF3A0021B7F1BC
:101A4000004F0DF143088DF8431024D002202B23C2
:101A5000002F01DA7F422D230A21021EA0F101008E
:101A600000DC5FB197FBF1FC97FBF1F201FB1C7C02
:101A700017460CF1300C08F801CDEEE7A8F1010093
:101A800003702188090501D5452100E06521A0F1F9
:101A9000010800F8011C09980FA9A1EB0807FF1D18
:101AA00000B10120411901EBEA70A1693844081A1C
:101AB000401EA0612078C00602D42046FEF744FFF5
:101AC000099828B1D4E901219047206A401C20627E
:101AD0002078C00622D52046FEF736FF1EE0002EF5
:101AE00004DBB34502DD01A8805D00E03020D4E9CD
:101AF00001219047206A401C2062761CAAF1010057
:101B00005FEA000A0AD1FFF709FDC0680168405C7E
:101B1000D4E901219047206A401C2062281EA5F1CB
:101B20000105DCDC07E0D4E9012118F8010B90473E
:101B3000206A401C2062381EA7F10107F3DC204612
:101B4000FEF718FF032011B041E630BCBDE8C08F9E
:101B50002DE9F04F04460D46D21D22F0070089B052
:101B6000D0E900974846394609F0DBFC0246F80FF9
:101B700001D02D2307E02068810701D52B2302E047
:101B8000202101EAC0038DF820300BB1012000E0D4
:101B90000020032A824601D0072A04DB294620467A
:101BA00000F0BEFF3FE12078800601D40D2500E063
:101BB000E569C7F30A560D2D49DA00214FEA175B94
:101BC00008464FF00000002F00F4400007DA00EB59
:101BD00080004FF4400100EBD07001EA60008115F5
:101BE000012901DD4FF0FF3100224FEA850CBCF1E5
:101BF000180F06D31346ACF118004FF08052C240C4
:101C000003E04FF4801323FA0CF30CF10C0CBCF13D
:101C1000200F04D3ACF1200C09FA0CF001E007FA14
:101C20000CF000294FF0004801DD18B90FE00ED18B
:101C300040450CD319EB02095F4121B9404502D15F
:101C40009F4329EA0209BBEB175F00D0761C20886E
:101C5000000502D57B48784402E07A487844193878
:101C600008AA302302F80A30037C0AF10101002E91
:101C70000AF1020A53546A4602DC4FF0300101E0D7
:101C80004FF031014FF001088DF8001002D0A6F29C
:101C9000FF3603E059EA470100D06B4E002D02DC0D
:101CA0002178090704D54FF002082E218DF8011084
:101CB000C44600210BE0C7F303433F01C35C491C4A
:101CC0006D1E02F80830052908F1010801DA002D1F
:101CD000F1DC00210CE000EB1973491C1B786D1E30
:101CE000082902F808304FEA091908F1010801DA59
:101CF000002DF0DC21688B0602D516E0A8F1010862
:101D0000E04505DD02EB080313F8013C302BF5D06C
:101D1000B8F1000F09DD02EB080313F8013C2E2B8C
:101D200003D1090701D4A8F10108002D05DD3E21EA
:101D300002F808106D1E08F10108407C002E02F820
:101D4000080008F1010804DA2D20764202F80800A4
:101D500002E02B2002F808000A214FF47A70864234
:101D600008F101080BDB96FBF0F3303302F8083082
:101D700096FBF0F308F1010800FB136601E0642E06
:101D80000CDB642096FBF0F3303302F8083096FB4E
:101D9000F0F308F1010800FB136601E00A2E06DBF0
:101DA00096FBF1F0303002F8080008F1010896FBCC
:101DB000F1F001FB1060303002F80800A16908F171
:101DC000010808EB050202EB0A00081AA06120785E
:101DD000C00602D42046FEF7B7FD216A08AE01EB2B
:101DE0000A00206204E0D4E9012116F8010B9047B3
:101DF000BAF1010AF7D22078C00602D52046FEF7D4
:101E0000A3FD6E4609E016F8010B3E280FD0D4E979
:101E100001219047206A401C2062B8F10108F2D2EB
:101E20002046FEF7A7FD09B0032000F00FB8206A96
:101E30002844206203E0D4E90121302090476D1E40
:101E4000EBD3F8E796FD000002FCFFFF30BCBDE8D5
:101E5000C08F000001694A1C02610878704700B514
:101E60008FB0CDE901310021059105497944CDE9D3
:101E7000031011466846FEF727FF0FB000BD0000B3
:101E8000E5FFFFFF0A6802F8010B0A607047D1E91D
:101E900000239A4202D2531C0B601070704710B599
:101EA000436913B1AFF3008001E0FEF786FD012026
:101EB00010BD127800F124010A7000224A7001223C
:101EC000EDE711684FF0FF32E9E70000074B70B50E
:101ED0000D467B44FFF7C3FF04462846FEF7DAFFB2
:101EE00010B14FF0FF3070BD204670BD55A200000C
:101EF00010B5436913B1AFF3008001E0FEF7C2FDF6
:101F0000012010BD128800F1240182840022C284C5
:101F10000122EDE711684FF0FF32E9E72DE9FF4FAD
:101F20001C4691464FF0FF3581B000218A46884615
:101F3000D4E90167A16902986D1C8847216A83462C
:101F400088470028F6D1BBF1FF3F0CD0002F26F4C4
:101F5000C0661ADD700615D5BBF12B0F0AD0BBF198
:101F60002D0F0FD104E04FF0FF3005B000F081B825
:101F700046F48066A16902986D1C88477F1E8346DF
:101F8000002F02DDBBF1300F03D0B9F1000F2AD0D2
:101F900025E0A1696D1C02987F1E46F400768847F3
:101FA000002F834605DDBBF1780F06D0BBF1580F3B
:101FB00003D0B9F1000F10D011E0B9F1000F02D039
:101FC000B9F1100F0BD1A1696D1C02987F1E26F488
:101FD000007688478346102000E0082081464FEABB
:101FE000E970009017E00A20F8E74346AAFB0928A9
:101FF000DDF800C07F1E03FB098046F4007605F182
:1020000001050AFB0C0112EB0B0A029841EBEB787D
:10201000A16988478346002F06DD4946584600F0EF
:10202000BFFD5FEA000BE0D5E16902988847B00583
:1020300002D46FF0010098E7F00718D1700610D5B0
:102040005146700505D50023D1EB030163EB08026F
:1020500000E042462068031D23600068C0E90012CA
:1020600005E02068011D21600068C0E900A828463D
:102070007BE730BCBDE8C08F2DE9FF5F1D464FF008
:10208000FF3B91464FF000085F46D5E90146A9693C
:1020900001987F1C8847296A824688470028F6D124
:1020A000BAF1FF3F0CD0002E24F4C06419DD6006A5
:1020B00014D5BAF12B0F09D0BAF12D0F0ED103E0D0
:1020C000584604B000F07EB844F48064A9690198D1
:1020D0007F1C8847761E8246002E02DDBAF1300F43
:1020E00003D0B9F1000F26D032E0A969761E01981D
:1020F0007F1C44F400748847002E824605DDBAF147
:10210000780F06D0BAF1580F03D0B9F1000F10D0F4
:102110001EE0B9F1000F02D0B9F1100F18D1A96972
:10212000761E01987F1C24F4007488478246102094
:1021300002E0082000E00A20814609E0A96908FBC6
:102140000908761E01987F1C44F400748847824673
:10215000002E05DD4946504600F022FD0028EDDA4C
:10216000E96901988847A00502D46FF00100A8E74B
:10217000E00725D1600613D5600502D5C8F100003F
:1021800000E0404629680A1D2A600968220501D539
:10219000087015E0220701D5088011E008600FE003
:1021A0002868011D29600068210502D580F800809B
:1021B00006E0210702D5A0F8008001E0C0F8008009
:1021C00038467EE730BCBDE8C09F2DE9FF5F4FF089
:1021D00000089946144646469169D2E901A7DDF800
:1021E00038B001988847054659EA0B0005D009E048
:1021F000A1690198761C88470546216A28468847C8
:102200000028F5D1681C03D05FEACA7005D015E03C
:102210004FF0FF3004B000F048B82068011D216085
:10222000D0F800800AE05FEACA7001D108F8015BCB
:10223000A169761C01987F1E88470546002F1ADD8C
:10224000681C18D0B9F1000F0DD0E81705EBD0606D
:10225000421120F01F0059F822102A1A0120904044
:102260000142E0D107E0BBF1000FDCD12846216A32
:1022700088470028D7D0E16901988847BBF1000F53
:1022800007D1002E05DD5FEACA7002D1002188F86F
:102290000010A068B84203DDBBF1000F03D017B1F6
:1022A0006FF00100B6E73046B4E730BCBDE8C09F30
:1022B000026811441378016018467047D1600549DF
:1022C0007944516104497944116200211161114638
:1022D00000F074BCEDFFFFFF43080000426842B10C
:1022E000016811F8013B23B1521EC0E900121846E3
:1022F00070470121C160881E704742685AB1C368A7
:10230000016843B983688B4205D0491E521CC0E95D
:102310000012002070474FF0FF3070472DE9FF4F4B
:102320004FF000089A461446C146464683B0D2E9AB
:1023300001B7CDF80080CDF80480916904988847F2
:10234000109905465AEA010005D009E0A1690498F0
:10235000761C88470546216A284688470028F5D11B
:10236000681C03D05FEACB7005D02AE04FF0FF3045
:1023700007B000F05DB82068011D2160D0F8008032
:102380001FE002A86A46E9B200F0E6FA411C07D055
:10239000801C09D04FF000095FEACB7007D00AE03B
:1023A000E169049888473EE04FF0010904E0BDF878
:1023B000081028F8021B7F1EA1690498761C884724
:1023C0000546002F1ADD681C18D0BAF1000F0DD099
:1023D000E81705EBD060421120F01F005AF82210D8
:1023E0002A1A012090400142CBD107E01098002822
:1023F000C7D12846216A88470028C2D0E1690498DD
:102400008847B9F1000F0ED1109830B9002E04DDC5
:102410005FEACB7001D1A8F80000A068B84202DDE5
:10242000109818B117B16FF00100A1E730469FE78F
:1024300030BCBDE8C08F2DE9FF4F4FF000089B4630
:102440001446454683B0D2E90196CDF80080CDF818
:1024500004809169DDF848A00498884707465BEA44
:102460000A0005D009E0A16904986D1C8847074659
:10247000216A384688470028F5D1781C03D05FEAE6
:10248000C97005D01BE04FF0FF3007B000F047B82F
:102490002068011D2160D0F8008010E05FEAC9705B
:1024A00007D16A464046B9B200F074FA411C31D0F7
:1024B0008044A1696D1C0498761E88470746002E4B
:1024C00014DD781C12D0BBF1000007D03B46DDE9DB
:1024D000101200F0B5FF0028E0D107E0BAF1000FBC
:1024E000DCD13846216A88470028D7D0E1690498B2
:1024F0008847BAF1000F06D1002D04DD5FEAC970EC
:1025000001D188F80000A068B04203DDBAF1000FE5
:1025100003D016B16FF00100B7E72846B5E730BC2D
:10252000BDE8C08F2DE9FF5F9B46144600273D465E
:102530009169D2E90196DDF840A00198884780466C
:102540005BEA0A0005D009E0A16901986D1C884783
:102550008046216A404688470028F5D1B8F1FF3F00
:1025600003D05FEAC97005D014E04FF0FF3004B02B
:1025700000F040B82068011D216007680AE05FEAAA
:10258000C97001D127F8028BA1696D1C0198761ED4
:1025900088478046002E15DDB8F1FF3F12D0BBF111
:1025A000000007D04346DDE90E1200F049FF002885
:1025B000E5D107E0BAF1000FE1D14046216A884732
:1025C0000028DCD0E16901988847BAF1000F05D1F5
:1025D000002D03DD5FEAC97000D13880A068B042E9
:1025E00003DDBAF1000F03D016B16FF00100BEE7B2
:1025F0002846BCE730BCBDE8C09F70B5C468A507DD
:1026000013D0650211D4B2F5807F09D0B2F5007FF6
:1026100006D0B2F5806F08D1012300F1240106E055
:102620005D1E6FF07F46B54201D3012070BD016190
:10263000C361416024F470611143C160002070BD2A
:102640002DE9F0410C46074616461046FEF7D8FD28
:102650002078611C61280AD0722802D077283CD1EA
:1026600002E00125002405E00225042402E00824FC
:1026700048F2020511F8010B2B2806D0622809D078
:1026800011F8010C74280AD00BE045F0030544F062
:102690000204EFE745F0040544F00104EAE744F0E2
:1026A000100438462146FEF7F8FE411C15D00021E3
:1026B000316171604FF40071F560F1617061200764
:1026C00004D5304602220021FEF7E8FB306D40F0D1
:1026D000010030653046BDE8F0810020FBE72DE9C0
:1026E000F0410D460646104C206DC10704D041084C
:1026F00004D020F00104F7E722460EE05420FEF754
:1027000093F807000ED0206D47F0010108435421D3
:1027100020653846FEF733F83A4629463046BDE88C
:10272000F0418DE70020D6E74C15002010B5044697
:10273000FEF7F4FED0E902121068104444F8100BC2
:102740005068104444F80C0C9068104444F8080C8D
:102750008868084444F8040CC86808442060086984
:102760000844606048690844A06088690844E060E3
:10277000C86908442061086A0844606108782076C6
:10278000487860768878A076C878E07608792077EF
:10279000487960778879A077C879E07710BD000024
:1027A00070B50646484231EA00000FD02A20741C5A
:1027B00000253070FEF7B2FE0346002253F82500D4
:1027C000010F000109292BD957312AE0042913D020
:1027D00004DC012908D0022904D109E008290FD01E
:1027E000102911D0002070BDFEF798FE00680EE0A1
:1027F000FEF794FE40680AE0FEF790FE806806E06F
:10280000FEF78CFEC06802E0FEF788FE006928B182
:1028100020F0030050F8041C084470BD4CA070BDAB
:102820003031521C082A04F8011BC9D36D1C052D38
:10283000C3DB00202070304670BD09B14B0901D0C8
:102840000020704722B113782A2B02D000F034B850
:10285000A6E7AFF300802DE9F0410F468046541CF7
:1028600000250026314614F8010BA0F13002092A98
:1028700003D9A0F16103052B16D8392801D81046D9
:1028800000E05738491C082940EA0616EBD301201E
:10289000A840384203D0FEF741FE40F825606D1C89
:1028A000052DDEDB207810B10020BDE8F08139462F
:1028B0004046BDE8F04173E72DE9F0410C4606467D
:1028C000154688070AD51146224878440CF00EF8C0
:1028D000071EEAD0FEF722FE7F1C4760E0070AD001
:1028E00029461C4878441A38AFF30080071EDCD014
:1028F000FEF714FE076060070AD52946154878449C
:1029000034380CF009F8071ECFD0FEF707FE8760B9
:1029100020070AD529460F4878444E380CF012F8A3
:10292000071EC2D0FEF7FAFDC760E0060AD52946A9
:10293000084878446838AFF30080051EB5D0FEF72C
:10294000EDFD056121463046BDE8F04128E7ACE7E2
:102950004300000072FA000070B516460C460546AA
:10296000FDF752FF036893F80101012804D0185DB8
:1029700068B101202C8070BDD3F803013246214696
:1029800003F2031303442846BDE8704018474FF094
:10299000FF3070BD70B516460C460546FDF734FF96
:1029A000036893F80101012806D0FF2C0FD8185DA9
:1029B00068B101202C7070BDD3F807013246214662
:1029C00003F2071303442846BDE8704018474FF050
:1029D000FF3070BD10B500F0AFFEBDE8104000F054
:1029E000A5BE10B500F0C0FEBDE8104000F09EBED0
:1029F00001B5FDF748FE01BD2DE9F04117460E4631
:102A0000054633B107FB0354E41B2046B047A542FB
:102A1000FAD1A5F10800BDE8F08110B500F00DF87D
:102A2000016919B100220261884701E0806880478E
:102A3000FEF723FC10B5FEF720FC70B500F048F857
:102A400004680546A4B92020FDF7EEFE040011D06D
:102A5000094900202C60C4E900010849A1602073E5
:102A6000206160610649A06109B100F09EFEE0614D
:102A7000204670BDFEF701FC00000000352A00086A
:102A80000000000070477546FEF740FDAE460500A9
:102A90006946534620F00700854618B020B5FDF77B
:102AA000BBFCBDE820404FF000064FF000074FF0A0
:102AB00000084FF0000B21F00701AC46ACE8C0095C
:102AC000ACE8C009ACE8C009ACE8C0098D46704765
:102AD0000048704728340020034640688C46002890
:102AE00018BF88423CBF03464068F8D318681844B2
:102AF000884207D00CF1030020F00700001D411AA6
:102B0000521A0146081D0A60FDF7BDBE10B5044605
:102B1000FDF77AFE0068005D00F0010010BD0000C6
:102B20002DE9F0411F46044603260168072A01F4F7
:102B3000006004DB08B116A505E016A503E008B1A6
:102B400015A500E015A521F010002060A069C01EA9
:102B5000A0610FB1401EA0612046FDF7F5FE4FB108
:102B6000D4E9012138469047206A401C2062C01CED
:102B7000206206E0206AFAE7D4E9012115F8010B8A
:102B80009047761EF8D22046FDF7F4FEBDE8F081AE
:102B90004E414E006E616E00494E4600696E660001
:102BA0003A2800D2303820F02002412A01D3A2F185
:102BB0003700884201D34FF0FF3070472DE9F34FC3
:102BC0004FF0000A0C4656468DB001200C9001F1E2
:102BD0000C000B9062690B9801219047051E2DD0C7
:102BE000252D2CD0216A8847C0B162690B9801213C
:102BF0009047216A88470028F7D16269411E0B98E7
:102C0000904700E0761CA1690D988847216A8847A3
:102C10000028F7D1E1690D988847DBE7A1690D9895
:102C20008847A842074601D1761CD3E7E1690D9891
:102C300088477F1C02D1BAF1000F6FD06BE1626947
:102C40000B9800273D46394690472A2804D16269EF
:102C50000B98012190470125DFF8D08262690B981B
:102C600001219047A0F130010A290AD24745E5DC4D
:102C700007EB870100EB4107303FDFD445F010053B
:102C8000ECE7E90601D46FF000476C280AD04C2825
:102C900014D0682815D06A280DD074281CD07A2842
:102CA0001AD01DE062690B98012190476C2802D070
:102CB00045F0040514E045F002050DE045F020055F
:102CC0000AE062690B9801219047682802D045F01C
:102CD000080505E045F4006562690B9801219047FD
:102CE000C4E9015765283DD019DC58287AD00CDC9E
:102CF000452837D004DC252826D041289ED131E054
:102D000046282FD0472899D12CE05B2877D061281E
:102D100028D063287CD0642823D15AE0F6E06F28BD
:102D200048D008DC66281DD067281BD0692821D030
:102D30006E2816D127E0702845D0732868D07528F2
:102D400047D078280DD14DE0A1690D9888472528F6
:102D500005463FF469AFE1690D9888476D1C3FF463
:102D60006AAFD8E00D9923466A466FF001000EF075
:102D700032FCC5E045F0400023464FF000026060A1
:102D8000A80736D43EE0E8077FF447AF2068011D6E
:102D900021600068290501D506701BE7290701D5C8
:102DA000068017E7A90703D5F117C0E9006111E70D
:102DB00006600FE745F0400023464FF008026060D0
:102DC000A80716D41EE040F60E0125EA0100606057
:102DD00016E045F0400023464FF00A026060A80765
:102DE00007D40FE045F040006060A80708D52346EF
:102DF00010220D996FF00100FFF790F880E007E0D6
:102E0000102223460D996FF00100FFF735F977E0A6
:102E10004FF0000963284F46C8464B46CB4602D0C8
:102E20005B2806D038E0E80601D40120A060012725
:102E300032E06269D4F80CB00B98012190475E280B
:102E400007D14FF0010949466269D4F80CB00B98DC
:102E50009047216939B900210A4603AB43F8212084
:102E6000491C0829FADBD8B3216949B308F10108E4
:102E700062690B98012190475D28F4D1B9F1000FE8
:102E800009D0002003A951F82020D24341F8202086
:102E9000401C0828F7DB03AB2069002820794FEAA3
:102EA00040701ED05B462246CDF80080CDE90197E8
:102EB0000D9900286FF0010020DAFFF733FB1FE0C7
:102EC000C11703AA00EBD1614B1121F01F0102EBE6
:102ED0008302411A13680120884003431360C7E747
:102EE00019E00D99224600286FF00100009702DAE0
:102EF000FFF714FA04E0FFF768F901E0FFF79BFA27
:102F000000280ADA401C06D10C9820B14FF0FF309F
:102F10000FB000F00DB85046FAE7E90701D10AF109
:102F2000010A064400200C9054E60000CCCCCC0CE6
:102F300030BCBDE8C08F00002DE9FF4F06468BB0C6
:102F40000878FF2806D0491C2D2805D000244FF012
:102F5000000908E000200CE00124F8E709EB8903F0
:102F6000491C00EB43090878FF28F7D114B1C9F1D7
:102F700000008146107800252C46AA4629462D28B7
:102F800001D02B2804D1521C2D2813D000208246BA
:102F90008B461078FF280FD04FF0000C0A21521CEE
:102FA000A5FB017804FB018105FB0C11C5194BEB56
:102FB0000104EEE70120EAE7002108464FF0000097
:102FC000BAF1000F02D000EB80004008C0F3815737
:102FD000012F01DD4FF0FF370E9955EA040009EB90
:102FE00001080BD04FF0020918F5FA7F16DA4FEA04
:102FF000CA70002F706008DD012007E04FEACA7038
:10300000C6E900B00FB000F013BA00203060FEF740
:1030100089FAC0F800901821084616E0B8F5FA7F42
:1030200018DD002F02DAF748784401E0F6487844CA
:10303000D0E90010C6E9001040EACA707060FEF7DF
:1030400071FAC0F80090142108460FB000F0F3B9EF
:103050000EF05ABA002108464FF00000B8F1000106
:10306000099002DAC7F1000200E03A4601DAC8F13D
:10307000000106A800F0F4F906AB93E8070003ABE3
:1030800083E8070044F23E005BEA040100905846E2
:1030900004D144F21E012C465D460091210C090426
:1030A000014306D10099240444EA15442D04103943
:1030B000009104F07F41014306D10099240244EAC3
:1030C00015642D020839009104F07041014306D1C6
:1030D0000099240144EA15742D01091F009104F0A0
:1030E0004041014306D10099A40044EA9574AD0023
:1030F000891E009104F00041084304D100986D1925
:103100006441401E00904FF001033A466846B8F112
:10311000000FCDE9014503A902DD01F064F901E0EA
:1031200001F037F9BAF1000F04460D4601D084F0E2
:103130000044002108464FF00000099940F2FF7753
:10314000484010F00C0F07D124F00040284303D072
:10315000C4F30A50B84212D1FEF7E4F9C0F8009067
:10316000C4F30A50B8420AD1A8487844D0E9001004
:10317000C6E9001004F000410843706042E7C6E968
:1031800000543FE72DE9FF4F1F464FF0000A4FF074
:10319000FF38454691B0D7E90146CDF83CA0FEF78F
:1031A000BDF9C0680168405C1090B96912986D1C47
:1031B0008847396A814688470028F6D1B9F1FF3F30
:1031C0000AD0002E24F4D06411DDB9F12B0F08D001
:1031D000B9F12D0F0BD102E0404615B013E744F4CE
:1031E0008064B96912986D1C8847761E8146600517
:1031F00004A901D52D2000E02B20002E01F1010BA8
:103200000DF130088DF810003FDDB9F1690F08D0DD
:10321000B9F1490F05D0B9F16E0F02D0B9F14E0FD7
:103220001CD13B4601A8009580E85002DDE912124E
:103230006FF002000EF0D3F9C11CCED10EE0B969D7
:1032400012986D1C884781461398761E44F40074CA
:1032500005600F98401C002E0F9016DDB9F1300F5D
:10326000EDD0B9F1780F02D0B9F1580F0DD10F9808
:1032700001280AD13B46CDE90054DDE91212001FB6
:1032800002960EF0AAF9C11CA7D1109989453ED12A
:1032900044F0800406E01399681CAAF1010A44F482
:1032A00000740860B9696D1C1298761E8847302832
:1032B0008146F0D02BE01099894505D1200603D432
:1032C000761E44F0800418E0484608F08BFC08B3F2
:1032D000761E0DF123018B4544F4007408D2A9F148
:1032E00030000BF8010B200607D5AAF1010003E01E
:1032F000200602D40AF101008246A00502D51399E6
:10330000681C0860B96912986D1C88478146002EB8
:10331000D1DC53E0002E51DDB9F1650F02D0B9F1D7
:10332000450F4BD1A00549D5B9696D1C1298761E81
:1033300024F440748847002E81460CDD2B2804D0ED
:10334000B9F12D0F07D144F48074B96912986D1C3E
:103350008847761E8146E00501D52D2100E02B210E
:1033600008F8011BCDF8008021E0761E0DF139012F
:10337000884544F400740CD2A9F1300010F0FF002D
:1033800088F8000002D10099884509D908F10108A0
:1033900006E0E00501D51E4801E042F20F708246CA
:1033A000B96912986D1C8847814613980560002EF4
:1033B00004DD484608F016FC0028D6D1F9691298B9
:1033C0008847FF2053468BF8000088F80000002053
:1033D0000A900B9004AA0CA90AA8FFF7ADFDA0055E
:1033E00002D46FF00100F8E614F0240F12D0E007C9
:1033F0001CD13868DDE90A12031D3B600068C0E992
:10340000001213E0F0F10000E2F10000A6F000006D
:10341000F1D8FFFF0AA9684608F0E2F9E00705D1F4
:103420003868009A011D3960006802602846D4E6B9
:1034300030BCBDE8C08F30BCBDE8C04FFFF708BE50
:1034400010B508E030F8024B9C4204D10AB10020CC
:1034500010BD012010BD491EF4D2104610BD000061
:103460002DE9F047814616468AB0354878440DC8A4
:103470008DE80D0032487844801C03AC0DC884E808
:103480000D0041F69B300844372190FBF1F290FB90
:10349000F1F5A5F1800501FB12041B3C02D5644245
:1034A000012000E00020DFF898A080460027FA44C1
:1034B000AAF1BE0A0EE0E0070AD03246684607EBE2
:1034C000470101230AEB810100F078FF8DE8070036
:1034D00064107F1C002CEED1194F7F44AE3F19E0E1
:1034E000E80715D007EB04100DF1180A90E80E005C
:1034F0008AE80E00C068F04201D19819089032465F
:10350000012306A903A800F059FF03AB83E80700D5
:103510006D10641C002DE3D14FF001033246694663
:10352000B8F1000F03A802D000F01EFF01E000F088
:1035300045FFC9E90001C9F808200AB0BDE8F087D5
:1035400010E600002DE9F04705460C46C86820F457
:10355000201040F48000C860800602D50846FDF7C0
:1035600092FDE06841F282014FF0FF3901400229EB
:1035700003D02046FDF730FDB5E000F42041B1F561
:10358000004F0FD1C00306D56168E06A884200D8B9
:103590000846606006E02069E06260606069FDF7EF
:1035A000A9FFA061A0680022EEB200280DDAE16850
:1035B0008B050AD4C043A06041F490302260E060E3
:1035C0006068411C61600670A5E0E068904622607A
:1035D00040F40050E060206968BB6069FDF77CFF43
:1035E000012704F12405A0B1A08910F4407F08D080
:1035F000E069FDF719F9206118B1E06840F4006056
:1036000016E0E7612561E06820F4407040F48060D6
:103610000EE0E069FDF708F900282061F1D0E068CC
:1036200040F4006010F4407FE06002D140F480700C
:10363000E06020696060E06825696FF0010AC105FB
:103640001FD56168E06A884200D80846411B04D053
:1036500022462846FDF7CAFCF0BBE068010203D50C
:10366000E562C4E9015854E0691CE1626160E16906
:1036700040F48030491EC4E9021030462E70BDE887
:10368000F087010202D500F480320AE06068411C34
:1036900061600670E0680A2E40F48030E06006D079
:1036A0000022E16A6068814203D90B4602E00122F0
:1036B000F7E70346A7895B1B7F0503D4E7699F42B1
:1036C00000DDE2B1814200D80146E5620F1AC4E98B
:1036D0000158002B09DD00E005E022461946284686
:1036E000FDF784FC08B14846C9E747B1A069E56227
:1036F0006560C01BA061E06840F01000E060E06819
:10370000000208D56168A069E562491B084465604C
:10371000A0615046B3E73046B1E710B50446AFF3B9
:1037200000802046BDE81040FCF7F1BD002801D024
:10373000FDF7E6BE7047000010B5002102A000F0C2
:10374000B0F8012010BD0000534947414252543A9D
:103750002041626E6F726D616C207465726D696E6E
:103760006174696F6E00000010B5014602A000F0A0
:1037700098F8012010BD0000534947525452454467
:103780003A2052656469726563743A2063616E27FA
:1037900074206F70656E3A200000000010B500F0D4
:1037A00099F8BDE81040FFF7C1BF10B58820FDF7BC
:1037B0003BF8002801D00021017010BD802902D8FB
:1037C00008B1017809B100207047012100F8081BF9
:1037D000704718B100F10802914201D000207047F3
:1037E0000021017070472DE9F0471C469246804643
:1037F00002FB01F511B3A76800203DE0002F3DDC7E
:10380000E069A8421DDAB9F1000F1AD02246294614
:103810004046FDF7EBFB08B1A7602AE0E06810F432
:10382000C06F01D0002008E022696168891AE2694E
:10383000511AC003A16001D44842A0605046BDE8BF
:10384000F087A84203DAE06840F40000E060214617
:1038500098F80000FFF776FEE16821F40001E160CE
:10386000411C06D0A768002805DB6D1E08F1010881
:1038700013E00020E3E7012081460EE0AF423E4620
:1038800000DD2E46414632466068FCF7B7FE6068B0
:10389000BF1BAD1B3044B0446060002DAEDCA760A0
:1038A000CCE770B505460C460A2000E06D1C00F020
:1038B00047F835B128780028F8D102E0641C00F000
:1038C0003FF814B120780028F8D1BDE870400A20F4
:1038D00000F036B810B5012805D0002103A0FFF78D
:1038E000E0FF012010BD09A1F8E70000534947524D
:1038F000544D454D3A204F7574206F6620686561C0
:1039000070206D656D6F7279000000003A20486587
:103910006170206D656D6F727920636F7272757062
:10392000746564002DE9F04116461F460C46851B60
:1039300002E02846B847AD1B641EFAD2BDE8F0810C
:1039400008B569468DF800000320ABBE08BD10B570
:10395000FDF7E8FD006810BD10B50446FDF7E2FD77
:10396000046010BD2DE9FF4F1F464FF03C0987B0A2
:103970004FF00042DDE9141001F10108DDF858A014
:1039800002EA405003900020059083460546044615
:103990000490B969461E08988847AAF1010A029066
:1039A000BAF1000F3BDD02982E2815D01021FFF749
:1039B000F7F800282EDB4FF0010B0599014317D0D3
:1039C000B9F1000F0BDB4A46C11700F0FCF90543C3
:1039D0000C43A9F1040905E0012004900BE008B1B3
:1039E00045F0010501200590049820B9361D02E03C
:1039F000049800B1361FB969089808F10108884792
:103A0000BBF1000FAAF1010A0290C9D00999C1F8CF
:103A10000080C5E70298702808D0502806D0F969C0
:103A200008988847BBF1000F14D04FE000200290A7
:103A30000120BBF1000F049009D0B969089808F182
:103A400001088847AAF10109B9F1000F07DCF969FB
:103A5000089888476FF001000BB000F013B92B28CD
:103A600004D02D280CD14FF0FF300490B96908988C
:103A700008F101088847A9F10109B9F1000FE6DD55
:103A8000411CE4D00A21FFF78BF80028DFDB029904
:103A900008F1010801EB810100EB41000290B969D6
:103AA000089888470A21FFF77BF8099AA9F10109CC
:103AB000B9F1000FC2F8008001DD0028E7DAF969EA
:103AC000089888470499029800FB016655EA0400AB
:103AD00004D004F04041090002D006E0039898E0C9
:103AE000A40044EA9574AD00B61E04F0004108003D
:103AF00002D16D196441761E159810F0240F03D081
:103B00004FF00B095C4803E04FF028096FF07D008F
:103B10008246564507DAAAEB06018944B9F1410FFE
:103B200001DD4FF0410901200021A9F1010200F05F
:103B30004AF9024628400B462140084301D00121A2
:103B400000E00021501E029143F1FF312840214046
:103B5000084301D0012000E000200299834651EA89
:103B60000B014FD0002108464FF00000039900F4EC
:103B7000400039B100EB80004FF4400100EBD07001
:103B800001EA60008015012802DD4FF0FF3000E0FF
:103B900013D0401C36D0029860B3BBF1000F0CD19B
:103BA0004A460120002100F00EF928402140084338
:103BB00001D0012000E00020E0B101204A460021B0
:103BC00000F001F9034640190A4661412D1A8C4163
:103BD00011D3B9F1400F09DD159810F0240F02D070
:103BE000AAF1340603E0AAF1170600E0761C0025CE
:103BF0004FF0004406E05B1E42F1FF3220EA03056D
:103C000021EA0204CAF10100B04206DA1B49039816
:103C100008430190002000900EE0039AC4F3D321E2
:103C2000E80A0A43164940EA44500A433146CDE9BE
:103C30000002684607F0CCFF159810F0240F0BD057
:103C40001598C00715D13868DDE90012031D3B60E7
:103C50000068C0E900120CE002A8694607F0C0FD48
:103C60001598C00705D13868029A011D39600068AF
:103C700002604046F0E6000002FCFFFF0000F07F1B
:103C80000000F03F30BCBDE8C08F00002DE9FF4FC1
:103C900092461D4685B04FF00041DDE9124BDDE94B
:103CA00014727F1E01EA4B50414940F0FF4940EA3F
:103CB0000108002122F020004928049102D04E285A
:103CC00028D04CE03BA0012607C88DE80700A96971
:103CD0000698641C88477F1E014606D41DF806001E
:103CE00018B121F0200181420BD0E969069888477C
:103CF000032E34D0082E32D06FF0010009B000F04E
:103D00005FB8761C032E01D0082EE0D1601CCAF8E3
:103D10000000DCE7A9690698641C88477F1E2AD446
:103D200020F02000412826D1A9690698641C884704
:103D30007F1E20D420F020004E281CD1A9690698AF
:103D4000641C88477F1E48F4002849F48009CAF89B
:103D5000004001D4282806D0E969069888475FEA20
:103D6000CB7012D022E0A9690698641C88477F1E98
:103D700001D4002803DAE96906988847BCE72928B6
:103D8000F1D1641CCAF80040E9E71BF0240F07D00A
:103D900028680499031D2B600068C0E9001805E03D
:103DA0002868021D2A600068C0F800902046A5E738
:103DB0000000F07F494E46494E495459000000002A
:103DC00030BCBDE8C08FB2F120030AD5C2F1200398
:103DD00001FA02F120FA03F300FA02F041EA0301CA
:103DE000704700FA03F14FF0000070475FEA400CA3
:103DF00008BF91F0000F4FEA8C234FEAC12243EA3B
:103E000051514FEA1C5018BF00F5F0404FEA300006
:103E100018BF41F000415FEA6C5C00F02980BCF102
:103E2000FF3F08BF40F080407047130C06BF1204EC
:103E30004FF0100C4FF0000C130E04BF12020CF1E7
:103E4000080C130F04BF12010CF1040C930F04BFF4
:103E500092000CF1020CD30F04BF52000CF1010CC4
:103E600011464FF00002A0F11F00A0EB0C007047BC
:103E700011F0004F08BF704731F000413FF4D5AF5B
:103E80000B0C06BF09044FF0100C4FF0000C0B0E8A
:103E900004BF09020CF1080C0B0F04BF09010CF15F
:103EA000040C8B0F04BF89000CF1020CCB0F04BF74
:103EB00049000CF1010CCCF12003A0EB0C0022FA1C
:103EC00003F302FA0CF241EA030100F1010070472A
:103ED00020F07F4C80EA030023F07F47ACEB070320
:103EE00003F57C5300F0004003F1FF032DE9804906
:103EF0004FEA154B09B44FEA144325EA0B4E24EA66
:103F000003480FF2042606EB132749083E785FEAC0
:103F1000320203FB0667C7F5000707FB06F64FEA08
:103F200054374FEAD64606F1020607FB066CCCF181
:103F3000005C4FEA1C472CEA074C07FB06F40CFB1D
:103F400006F504EB15464FEA961634BF00204FF0F5
:103F500000404FEAD13706FB07FC4FEA1C4C0CFB34
:103F60000BF7D21B03FB0CF761EB07010CFB0EF701
:103F7000B0EB074072EB17420CFB08F734BFA2EB23
:103F80000742B2EB074261EB17414FEA0C444FEA9C
:103F9000910706FB07FC4FEA1C4C0CFB0BF7B0EB40
:103FA000C74072EB573203FB0CF734BFA2EBC7429A
:103FB000B2EBC74261EB57310CFB0EF7B0EBC70019
:103FC00072EB57720CFB08F734BFA2EBC702B2EBDF
:103FD000C70261EB5771039F4FEA816141EA921179
:103FE00004EBCC044FEAD1374FEA826206FB07FCB0
:103FF00042EA90124FEA80604FEA1C4C0CFB0BF730
:10400000D21B03FB0CF761EB07010CFB0EF7B0EBC7
:10401000074072EB17420CFB08F734BFA2EB0742D4
:10402000B2EB074261EB17414FEA8C554FEA91071B
:1040300004EB9C2406FB07FC4FEA1C4C0CFB0BF723
:10404000B0EBC74072EB573203FB0CF734BFA2EB67
:10405000C742B2EBC74261EB57310CFB0EF7B0EB36
:10406000C70072EB57720CFB08F734BFA2EBC70214
:10407000B2EBC70261EB577115EB4C254FEA81613A
:1040800041EA92114FEA82624FEAD13742EA901236
:1040900006FB07FC44F100044FEA80604FEA1C4C29
:1040A0000CFB0BF7D21B03FB0CF761EB07010CFBBE
:1040B0000EF7B0EB074072EB17420CFB08F734BF6A
:1040C000A2EB0742B2EB074261EB174115EB1C155F
:1040D0004FEA813141EA92414FEA823242EA90420C
:1040E0004FEA80304FEA0C7644F1000448EA03437B
:1040F0004EEA0B484FF0000EB2EB080C71EB0307D1
:1041000024BF624639464EEB0E0E4FF0000B0018EE
:10411000524149414BEB0B0BB2EB080C71EB03071F
:104120007BF1000B24BF624639464EEB0E0E4FF07A
:10413000000B0018524149414BEB0B0BB2EB080C42
:1041400071EB03077BF1000B24BF624639464EEB4F
:104150000E0E51EA020718BF46F0010616EB0E7666
:1041600055F1000254F1000103D5BDE88901BDE815
:104170000088BDE88901BDE80048B619524141EB0D
:104180000101A3F10103704780807F7E7D7C7B7AF3
:104190007978777676757473727171706F6E6E6DF3
:1041A0006C6C6B6A6A696868676666656464636399
:1041B00062616160605F5F5E5E5D5D5C5C5B5B5A1F
:1041C0005A5959585857575656555555545453538C
:1041D00052525251515050504F4F4F4E4E4D4D4DE7
:1041E0004C4C4C4B4B4B4A4A4A4949494848484732
:1041F0004747474646464545454444444443434370
:10420000434242424241414146EA0646A3F57053C9
:104210004FEA164646EA42564FEAD22242EA415255
:1042200010B54FEAD121A3F1010300F02FF820F0DF
:10423000004000F1020C00F0004701EB0050114675
:10424000BCF5006F40EA070000D210BDBAF1000FC4
:104250000AD01CB503B44FF004004FF004014FF036
:1042600000000FBCBDE810404FF00001BBF1010F92
:10427000B9BF04484FF0FF310348002140EA07006E
:1042800010BD00BFFFFFEF7F0000F07F002B9C46BA
:1042900030D477002BD01CB54FEA370703B44FF06A
:1042A00010004FF01001BAF1000F06D0BCF1000F62
:1042B000DCBF40F0080040F008014FF000000FBCE8
:1042C000BDE810400BF1010BBBF1010F08BF5FEA25
:1042D000170722BF12F1010211F101014FF0004155
:1042E00043F1000300F0004043EA00007047F9D3B7
:1042F0005708D0E746EA064613F1400F4FEA164644
:104300001FDD13F1200FDFBF16430A4600212033C3
:104310005B42BED0C3F1200746EA064602FA07F721
:104320004FEA164646EA0706C3F1200722FA03F2CF
:1043300001FA07F721FA03F14FF0000342EA0702FE
:10434000A7E746EA020646EA06464FEA164646EA66
:104350000106BCBF46EA0646360C4FF000034FF09C
:1043600000024FF0000194E72DE9804C9A469346F5
:1043700070B491E8380007C831EA400C48BF34EA0D
:10438000430C03D5FFF7A4FDFFF780FFF0BCBDE8A9
:10439000008C2DE9804C9A46934670B491E8380021
:1043A00007C831EA400C48BF34EA430C03D5FFF795
:1043B0008FFDFFF729FFF0BCBDE8008C2DE9804C94
:1043C0009A46934670B491E8380007C810F0804FC1
:1043D00008BF13F0804F03D100F01AF8FFF756FF23
:1043E000F0BCBDE8008C2DE9804C9A46934670B431
:1043F00091E8380007C810F0804F08BF13F0804FD5
:1044000003D100F005F8FFF7FFFEF0BCBDE8008C1B
:1044100020F07F4780EA030023F07F4C07EB0C037A
:10442000A3F57C5300F00040A3F1FE0392F0000FCF
:1044300000F0B38095F0000F00F077802DE901497E
:104440004FEA11404FEA144621EA004800FB06FCFF
:1044500024EA064708FB06F607FB08F800FB07F707
:1044600018EB06484CEB164C4FEA124B18EB07487A
:104470004FEA15464CEB174022EA0B4E0BFB06FCAD
:1044800025EA06470EFB06F607FB0EFE0BFB07F7B9
:104490001EEB064E4CEB164C4FF000061EEB074E83
:1044A0004CEB174B18EB0B0840F1000018EB0E0B10
:1044B00058EB000840F100008F1A4FF000013CBF9C
:1044C000C943661B14BFB5EB040C00213CBFC943B4
:1044D000F61B4FEA17444EEA8E0E27EA04454FEAD0
:1044E0001C4704FB07622CEA074C05FB07F70CFB93
:1044F00005F604FB0CFC16EB074642EB174216EBE5
:104500000C4642EB1C421BEB060658EB02024141F3
:1045100046EA9E0601D5BDE80189B619524141EB34
:104520000101A3F10103BDE801894FEA14454FEAF7
:10453000114724EA054621EA074C05FB07F406FB70
:1045400007F70CFB06F105FB0CFC11EB074144EBF4
:1045500017444FEA124711EB0C4144EB1C4422EA8A
:10456000074C05FB07F206FB07F70CFB06F605FBFD
:104570000CFC16EB074642EB174216EB0C4642EBDF
:104580001C456A1854F1000148BF7047B6195241E2
:1045900041EB0101A3F10103704795F0000F37D003
:1045A0004FEA11424FEA144721EA024624EA074C37
:1045B00002FB07F106FB07F70CFB06F402FB0CFC01
:1045C00014EB074441EB17414FEA154714EB0C4439
:1045D00041EB1C4125EA074C02FB07F506FB07F7F8
:1045E0000CFB06F602FB0CFC16EB074645EB1745E9
:1045F00016EB0C4645EB1C42121951F1000148BF65
:104600007047B619524141EB0101A3F10103704714
:104610004FEA14454FEA114724EA054621EA074CC0
:1046200005FB07F106FB07F70CFB06F24FF000064F
:1046300005FB0CFC12EB074241EB174112EB0C425D
:1046400051EB1C4148BF7047921841EB0101A3F1A7
:104650000103704738B504466846AFF30080014651
:1046600020460BF093FB38BD10B501248021034890
:1046700000F070FC00B10024204610BD000400488A
:1046800010B504462146024802F070FA10BD000041
:10469000DC01002010B5044802F07BFA042801D0A8
:1046A000012010BD0020FCE7DC01002010B5002433
:1046B00000F00CF8012801D0022010BD024802F0E1
:1046C0007AFA04462046F8E7DC01002008B501200C
:1046D0000090FFF7C9FF08B9002000909DF8000086
:1046E00008BD00002DE9F04104460D46164600279E
:1046F00033462A462146044802F054FB00B1012704
:104700003846BDE8F0810000DC01002010B5002231
:1047100001210248006807F093FE10BD68000020E8
:104720002DE9F04104460D461646002733462A4639
:104730002146044802F0CEFB00B101273846BDE80F
:10474000F0810000DC01002000BFFEE710B5024848
:1047500000F06BF810BD00009001002010B5024879
:1047600000F063F810BD00009001002010B5024871
:1047700000F05BF810BD00009001002010B5024869
:1047800000F053F810BD00009001002030B590F803
:10479000444004F01C050124AC40056C6C600468C6
:1047A00063608468102C04D10468A2600468E1602E
:1047B00003E00468A1600468E26030BD70477047A0
:1047C00030B504460D4600222946204600F002F886
:1047D00030BD0000F0B50346012500241148407AA1
:1047E00001281CDA00200F4E767A0E4FB855384655
:1047F000467A001D40F82630001F467A0830825560
:104800003E46707A461C7E72044604F13000087001
:104810003A2048702F2088700020C8700025284654
:10482000F0BD00003008002070472DE9F05F04461D
:104830000025206846692068D0F8049020688768C1
:104840002068D0F80CA02068D0F810B02068D0F80C
:10485000188006F00100002855D007F00100C0B113
:1048600001202168886007F0020018B1204600F09E
:1048700025FA0EE007F0040010B145F4006508E0E9
:1048800007F0080010B145F4805502E0204600F022
:1048900014FA07F48070C8B14FF480702168886002
:1048A00007F4007018B1204600F00AFA0EE007F491
:1048B000806010B145F4005508E007F4006010B1C5
:1048C00045F4804502E0204600F0F9F907F4803015
:1048D000C8B14FF480302168886007F4003018B107
:1048E000204600F0EFF90EE007F4802010B145F407
:1048F000004508E007F4002010B145F4803502E0DF
:10490000204600F0DEF906F0080038B10AF0100089
:1049100020B145F4007510202168C86006F004003D
:1049200040B10AF0080028B108202168C86020467C
:1049300000F0BEF906F0020038B12068C06800F04F
:10494000030010B1204600F0B4F906F0400038B181
:104950000BF0100020B145F480651020216808613B
:1049600006F0200040B10BF0080028B108202168B3
:104970000861204600F09EF906F0100038B120686A
:10498000006900F0030010B1204600F094F906F42D
:10499000003040B109F0100028B1102021684860B3
:1049A000204600F089F906F4803040B109F0080093
:1049B00028B1082021684860204600F084F906F4F8
:1049C000004088B309F0040078B306F4807020B189
:1049D00008F0010008B145F0010506F4007020B1AF
:1049E00008F0020008B145F0020506F4806020B12D
:1049F00008F0040008B145F0040506F40060A0B119
:104A000008F0700088B108F07000402817D006DC6C
:104A100010280BD020280CD0302819D10CE05028B9
:104A200010D0602814D110E01DE019E045F0080511
:104A30000FE045F010050CE045F0200509E045F0D9
:104A4000400506E045F0800503E045F4807500E090
:104A500000BF00BF2068806920F070002168886175
:104A60000420216848602DB1606A284360622046B6
:104A7000FFF7DAFE00F000B830BCBDE8C09F70B5AB
:104A800004460CB9012070BD94F8200010B92046EE
:104A900000F0B0F82068006820F00200216808608B
:104AA00000F066FA05460DE000F062FA401B0A28A5
:104AB00008D9606A40F400306062052084F8200064
:104AC0000120E0E72068406800F002000028EBD1F8
:104AD0002068006840F001002168086000F048FA92
:104AE00005460DE000F044FA401B0A2808D9606A28
:104AF00040F400306062052084F820000120C2E705
:104B00002068406800F001000028EBD0207E0128DA
:104B100006D12068006840F080002168086005E048
:104B20002068006820F0800021680860607E01280D
:104B300006D12068006840F040002168086005E068
:104B40002068006820F0400021680860A07E0128ED
:104B500006D12068006840F020002168086005E068
:104B60002068006820F0200021680860E07E0128AD
:104B700006D12068006820F010002168086005E078
:104B80002068006840F0100021680860207F01283C
:104B900006D12068006840F008002168086005E040
:104BA0002068006820F0080021680860607F012804
:104BB00006D12068006840F004002168086005E024
:104BC0002068006820F0040021680860D4E9020130
:104BD000084321690843616908436168491E084325
:104BE0002168C86100206062012084F82000002054
:104BF00049E7000010B586B00446142101A8FBF770
:104C0000BEFD28492068884249D100BF2648806DF2
:104C100040F00070244988650846806D00F00070FF
:104C2000009000BF00BF00BF0846C06C40F002000B
:104C3000C8640846C06C00F00200009000BF00BFCE
:104C40004FF4407001900220029000200390032056
:104C500004900920059001A9144800F097F800225B
:104C60001146132000F030FA132000F019FA002248
:104C70001146142000F028FA142000F011FA002246
:104C80001146152000F020FA152000F009FA002244
:104C90001146162000F018FA162000F001FA06B0AE
:104CA00010BD0000006400400010024000040048F5
:104CB000704770477047704770477047704770473C
:104CC00070477047704770472DE9F04104460D4624
:104CD00016461F464FF0000800BF94F82400012834
:104CE00002D10220BDE8F081012084F8240000BF39
:104CF00094F8250001282CD1022084F825000020FA
:104D0000E0632068006820F00100216808603B46ED
:104D1000324629462046FFF739FD206B30B1206826
:104D2000006840F00E00216808600BE02068006811
:104D300020F00400216808602068006840F00A0044
:104D4000216808602068006840F001002168086060
:104D500006E000BF002084F8240000BF4FF00208E6
:104D60004046BFE770B5044600F002F90646254606
:104D7000681C10B104480078054400BF00F0F8F842
:104D8000801BA842FAD370BD7C00002078B5034692
:104D90000022CBE0012696400D6805EA0604002CAF
:104DA00072D04D68012D08D04D68022D05D04D6898
:104DB000112D02D04D68122D13D19868560003258D
:104DC000B540A8435600CD68B54028439860586860
:104DD00001259540A8430D79C5F30015954028435A
:104DE0005860D86856000325B540A84356008D6822
:104DF000B5402843D8604D68022D02D04D68122D71
:104E000013D1D60803F1200555F826005507EE0EFC
:104E10000F25B540A8435607F60E0D69B540284347
:104E2000D60803F1200545F826001868560003252A
:104E3000B540A8430D7905F003055600B540284359
:104E400018604D6805F08055B5F1805F6DD100BFE9
:104E5000394D2D6E45F00105374E356635462D6EC0
:104E600005F00105009500BF00BF4FEAB635960872
:104E700055F8260095072E0F0F25B540A843B3F12E
:104E8000904F02D1002515E04FE02C4DAB4201D1EF
:104E900001250FE02A4DAB4201D102250AE0294D40
:104EA000AB4201D1032505E0274DAB4201D10425DA
:104EB00000E007259607360FB5402843234D960896
:104EC00045F82600224D2868A0434D6805F480353A
:104ED000B5F5803F00D120431D4D28602D1D286869
:104EE000A0434D6805F40035B5F5003F00D12043DF
:104EF000174D2D1D28602D1D2868A0434D6805F411
:104F00008015B5F5801F00D12043114D083528606C
:104F10002D1D2868A0434D6805F40015B5F5001F48
:104F200000D120430A4D0C352860521C0D68D54035
:104F3000002D7FF42FAF78BD001002400004004820
:104F400000080048000C004800100048080001401C
:104F500000040140024613690B400BB1012000E040
:104F6000002070470AB1816100E081627047000053
:104F70000148006870470000740000200148006884
:104F8000704700009075FF1F0148006870470000DF
:104F90009475FF1F01480068704700009875FF1F57
:104FA00003480068034909780844014908607047CC
:104FB000740000207C00002010B50024032000F0C5
:104FC000C5F8002000F008F808B1012401E000F065
:104FD00047F8204610BD000070B588B00446002593
:104FE000002600222146192000F06EF8192000F05A
:104FF00057F800BF1648006E40F400601449086678
:105000000846006E00F40060019000BF00BF02A9D6
:1050100003A800F0E7FE00F01FFF05460D48B5FBB2
:10502000F0F0461E0C480D49086040F2E7310B488D
:10503000C160466000210161816001F0E2FF20B99A
:10504000064802F017F808B070BD0120FBE7000029
:105050000010024040420F00002C0140C407002015
:1050600008B500BF0D48006E40F001000B4908660E
:105070000846006E00F00100009000BF00BF00BFB6
:105080000846806D40F0805088650846806D00F0CD
:105090008050009000BF00BF08BD0000001002401B
:1050A0000146084600280DDB00BF00BF00F01F03CB
:1050B00001229A4043099B0003F1E023C3F8002139
:1050C00000BF00BF00BF70472DE9F05F80460D466E
:1050D0001646002706F03EFA074639462A4633466A
:1050E00001F00700C0F1070ABAF1040F02D94FF02E
:1050F000040A01E0C0F1070AD14600F1040ABAF13E
:10510000070F02D24FF0000A01E0A0F1030AD446D3
:105110004FF0010A0AFA09FAAAF1010A0AEA020A98
:105120000AFA0CFA4FF0010B0BFA0CFBABF1010B76
:105130000BEA030B4AEA0B042146404606F012FA3A
:1051400000F000B830BCBDE8C09F000000BF00F018
:105150000702064B19684FF6FF031940044B0B4337
:1051600043EA0221014B196000BF70470CED00E0DB
:105170000000FA050246B2F5007F2AD11D480068FA
:1051800000F4C060B0F5007F32D01A48006820F407
:10519000C06040F40070174B186017480068322355
:1051A0005843164BB0FBF3F0411C00E0491E114878
:1051B000406900F48060B0F5806F01D10029F5D11D
:1051C0000C48406900F48060B0F5806F10D1032076
:1051D00070470848006800F4C060B0F5806F07D0E1
:1051E0000448006820F4C06040F48060014B1860FF
:1051F0000020EDE7007000408000002040420F00DA
:105200000248006800F4C060704700000070004071
:105210002DE9F04707464FF00009B7F5003F2DD1C3
:10522000F748006800F44074B4F5807F06D0B4F508
:10523000007F0CD0B4F5407F1ED112E0F04800682A
:1052400000F00200022801D14FF4004915E0EC48BB
:10525000001D006800F00200022801D14FF4FA4955
:105260000BE0E7489038006800F40030B0F5003FEC
:1052700001D1DFF8909300E000BF03E3E0489038ED
:10528000C06800F00308B8F1010F06D0B8F1020FB2
:1052900023D0B8F1030F38D12BE0D94890380068FB
:1052A00000F00200022816D1D5489038006800F0BE
:1052B000080028B1D2489038006800F0F00005E0FE
:1052C000CF48001D006800F4706000090009CE4955
:1052D00051F8205000E0002519E0C94890380068D6
:1052E00000F48060B0F5806F01D1C84D00E000256A
:1052F0000DE0C3489038006800F40030B0F5003F7E
:1053000001D1C34D00E0002501E0002500BF00BF32
:10531000B7F5007F79D011DC202F77D006DC012F84
:1053200075D0022F74D0042F73D119E1402F71D0A2
:10533000802F70D0B7F5807FF6D1F8E1B7F5804FB8
:105340006AD009DCB7F5806F67D0B7F5006F0DD074
:10535000B7F5005FE8D110E0B7F5004F70D0B7F5B2
:10536000802F0BD0B7F5002FDED108E029464FF48F
:10537000006002F083F9814683E200BF00BFA048CD
:105380000838006800F04064F4B3B4F1806F58D07E
:10539000B4F1006F20D0B4F1406F7BD198489038C1
:1053A000006800F00200022815D195489038006886
:1053B00000F0080028B192489038006800F0F00032
:1053C00005E08F48001D006800F4706000090009C6
:1053D0008D4951F8209069E089489038006800F0C4
:1053E0000070B0F1007F2AD185489038C06800F481
:1053F0008010B0F5801F22D181489038C068C0F37A
:10540000062605FB06F009E045E0B3E1D4E04FE0F5
:105410007AE035E245E167E10AE1E0E17849903977
:10542000C968C1F30211491CB0FBF1F5744890380A
:10543000C068C0F34150401C4000B5FBF0F935E0B6
:1054400002E26F489038006800F00060B0F1006F31
:105450001FD16B489038006900F48010B0F5801FB0
:1054600017D1674890380069C0F3062605FB06F09F
:1054700063499039C968C1F30211491CB0FBF1F5C9
:105480005F4890380069C0F34150401C4000B5FBB4
:10549000F0F90BE009E05A480830006800F002001B
:1054A000022801D1DFF86C9100E000BF00BFE8E105
:1054B00053480838006800F0030434B1012C08D0C8
:1054C000022C0AD0032C1CD112E000F0C5FC81464E
:1054D00018E000F0D3FC814614E049489038006899
:1054E00000F48060B0F5806F01D1DFF8209109E011
:1054F0004348006800F00200022801D14FF400493F
:1055000000E000BF00BFBCE13D480838006800F083
:105510000C0434B1042C08D0082C0AD00C2C1CD15B
:1055200012E000F087FC814618E000F0A7FC8146FD
:1055300014E033489038006800F48060B0F5806F64
:1055400001D1DFF8C89009E02D48006800F00200A2
:10555000022801D14FF4004900E000BF00BF90E1F4
:1055600027480838006800F0300434B1102C08D007
:10557000202C0AD0302C1CD112E000F05BFC8146BC
:1055800018E000F07BFC814614E01D48903800686C
:1055900000F48060B0F5806F01D1DFF8709009E011
:1055A0001748006800F00200022801D14FF40049BA
:1055B00000E000BF00BF64E111480838006800F453
:1055C00040644CB1B4F5806F0AD0B4F5006F0BD0D5
:1055D000B4F5406F29D11FE000F02CFC814625E096
:1055E00000F04CFC814621E005489038006800F44A
:1055F0008060B0F5806F01D1DFF8109016E00000F8
:105600009010024090D00300AC1601080024F40072
:1056100000127A00006CDC029C48006800F0020076
:10562000022801D14FF4004900E000BF00BF28E18B
:1056300096480838006800F04054B4F1805F06D006
:10564000B4F1405F2AD100F019FC814627E08F4871
:105650009038006800F00060B0F1006F1DD18B48F9
:105660009038006900F08070B8B1884890380069BF
:10567000C0F3062605FB06F084499039C968C1F3DA
:105680000211491CB0FBF1F5804890380069C0F365
:105690004160401C4000B5FBF0F900E000BF00BFD6
:1056A000EFE07A480838006800F4405434B1B4F5AB
:1056B000805F07D0B4F5005F13D107E000F0BAFBBC
:1056C00081460FE000F0DAFB81460BE06F4890382E
:1056D000006800F48060B0F5806F01D1DFF8B09110
:1056E00000E000BF00BFCCE068480838006800F464
:1056F000404434B1B4F5804F07D0B4F5004F13D116
:1057000007E000F097FB81460FE000F0B7FB814611
:105710000BE05E489038006800F48060B0F5806F60
:1057200001D1DFF86C9100E000BF00BFA9E057484D
:105730000838006800F4403434B1B4F5803F07D035
:10574000B4F5003F13D107E000F074FB81460FE091
:1057500000F094FB81460BE04C489038006800F460
:105760008060B0F5806F01D1DFF8249100E000BFC8
:1057700000BF86E045480838006800F440244CB17A
:10578000B4F5802F0AD0B4F5002F11D0B4F5402F16
:1057900022D118E000F04EFB81461EE03B48001D80
:1057A000006800F00200022801D14FF4FA4914E029
:1057B00036489038006800F48060B0F5806F01D101
:1057C000DFF8CC9009E03148006800F002000228C0
:1057D00001D14FF4004900E000BF00BF51E02B4869
:1057E0000838006800F440144CB1B4F5801F0AD0AA
:1057F000B4F5001F11D0B4F5401F22D118E000F01D
:1058000019FB81461EE02148001D006800F00200DF
:10581000022801D14FF4FA4914E01C48903800687E
:1058200000F48060B0F5806F01D1DFF8649009E08A
:105830001648006800F00200022801D14FF4004928
:1058400000E000BF00BF1CE010480838006800F00E
:1058500080441CB1B4F1804F0FD103E000F0EAFAAC
:1058600081460BE009489038006800F48060B0F58C
:10587000806F01D1DFF8189000E000BF00BF00E0AA
:1058800000BF00BF4846BDE8F0870000901002400E
:105890000024F4002DE9F84304460025A84620889A
:1058A00000F40060B0F5006F26D1606C68B1B0F50F
:1058B000000F03D0B0F5400F0ED10CE0E848C068EF
:1058C00040F48030E649C86008E00021201D01F066
:1058D00063FF054602E001E0012500BF00BF55B9A6
:1058E000DF488830006820F44000616C0843DC49E0
:1058F000C1F8880000E0A846206800F40030B0F548
:10590000003F75D14FF00009D548806D012121EA93
:10591000107078B100BFD248806D40F08050D049FF
:1059200088650846806D00F08050009000BF00BF81
:105930004FF00109CB48006840F48070C949086005
:10594000FFF716FB074606E0FFF712FBC01B022815
:1059500001D9032505E0C348006800F480700028E1
:10596000F2D000BF7DBBBE489030006800F44076A6
:10597000CEB1E06DB04216D0B9489030006820F446
:105980004076B748D0F8900040F48030B449C1F870
:1059900090000846D0F8900020F48030C1F89000C4
:1059A0000846C0F8906006F00100A8B1FFF7E0FAE1
:1059B000074609E0FFF7DCFAC01B41F28831884254
:1059C00002D9032507E016E0A5489030006800F0F2
:1059D00002000028EED000BF5DB9A14890300068F9
:1059E00020F44070E16D08439D49C1F8900003E048
:1059F0000CE0A84600E0A846B9F1010F05D198488F
:105A0000806D20F080509649886500BF207800F0B6
:105A1000010048B192488830006820F00300216AF4
:105A200008438F49C1F88800207800F0020002285E
:105A300009D18B488830006820F00C00616A084367
:105A40008749C1F88800207800F00400042809D1B3
:105A500083488830006820F03000A16A08438049FC
:105A6000C1F88800207800F02000202809D17C4867
:105A70008830006820F44060E16A08437849C1F842
:105A80008800208800F40070B0F5007F09D17448C8
:105A90008830006820F44020E16B08437049C1F869
:105AA0008800208800F48060B0F5806F09D16C48D0
:105AB0008830006820F44010216C08436849C1F820
:105AC0008800207800F04000402809D164488830E0
:105AD000006820F44050216B08436149C1F88800F8
