:020000040800F2
:10000000101800200D030008DD350008B735000882
:10001000D9350008D1060008CB4C000800000000CC
:100020000000000000000000000000002D02000899
:10003000450700080000000089020008A1460008EA
:1000400027030008270300082703000827030008E8
:1000500027030008270300082703000827030008D8
:1000600027030008270300082703000827030008C8
:1000700027030008270300082703000827030008B8
:1000800027030008270300082703000805070008C6
:10009000D5060008E5060008F50600082703000855
:1000A0002703000825470008270300082703000846
:1000B00027030008000000000000000027030008DC
:1000C0002703000827030008270300082703000868
:1000D0002703000827030008270300082703000858
:1000E00027030008270300080000000000000000AC
:1000F0000000000000000000000000000000000000
:10010000000000002703000800000000270300088B
:10011000000000000000000027030008270300087B
:100120002703000827030008270300082703000807
:10013000270300080000000000000000000000008D
:1001400027030008270300082703000827030008E7
:1001500027030008270300082703000827030008D7
:1001600027030008270300082703000800000000F9
:1001700027030008270300082703000800000000E9
:1001800027030008270300082703000800F002F8EF
:1001900000F03CF80AA090E8000C82448344AAF1E5
:1001A0000107DA4501D100F031F8AFF2090EBAE8E3
:1001B0000F0013F0010F18BFFB1A43F0010318479B
:1001C000C46B0000E46B0000103A24BF78C878C10B
:1001D000FAD8520724BF30C830C144BF04680C604D
:1001E000704700000023002400250026103A28BF95
:1001F00078C1FBD8520728BF30C148BF0B60704799
:100200001FB506F047FD1FBD10B510BD00F0B6F9D3
:100210001146FFF7F5FF04F033FF00F0D4F903B403
:10022000FFF7F2FF03BC00F0DBF900002C4B19686C
:10023000086800F05AB880F30988BFF36F8F4FF059
:10024000000080F311887047000000000848006833
:10025000006880F308884FF0000080F3148862B6CD
:1002600061B6BFF34F8FBFF36F8F00DF00BF00BFDA
:1002700008ED00E0DFF80C00016841F47001016056
:10028000704700BF88ED00E0EFF30980BFF36F8F88
:10029000134B1A681EF0100F08BF20ED108A20E9DA
:1002A000F04F106009B44FF0500080F31188BFF395
:1002B0004F8FBFF36F8F05F0C5FD4FF0000080F347
:1002C000118809BC1968086800F014B81EF0100FF6
:1002D00008BF00F014B880F30988BFF36F8F704730
:1002E0002C000020EFF30580704730C8B0E8C04F05
:1002F000FFF7A1BF30C8B0E8C04FFFF7E7BFB0ECD1
:10030000088AB0EC08CAFFF7E6BF0000094880473A
:1003100009480047FEE7FEE7FEE7FEE7FEE7FEE7E7
:10032000FEE7FEE7FEE7FEE704480549054A064BFF
:1003300070470000D54600088D010008101200200B
:1003400010180020101400201014002053EA020C92
:1003500000F069802DE9F04B4FF00006002B1FBF25
:10036000B3FA83F503FA05F424FA05F65E4012BFEA
:100370001643B2FA82F502FA05F4C5F120051EBF54
:1003800022FA05FC44EA0C04203556EA044C4FEAF4
:10039000144418BF641C4FF000084FF0000990424D
:1003A00071EB030C39D3002919BFB1FA81F701FAB7
:1003B00007F6B0FA80F700FA07F6C7F120071EBF6C
:1003C00020FA07FC46EA0C062037B6FBF4FCA7EB44
:1003D0000507103F07F01F0BCBF120060CFA0BFBB3
:1003E0002CFA06F644BFB3460026202FA4BF5E4673
:1003F0004FF0000B5BEA060C08BF4FF0010B19EB46
:100400000B09ABFB027C48EB0608C01B06FB02CCC9
:100410000BFB03CC71EB0C01C1E70B4602464146D6
:100420004846BDE8F08B13B54FF000004FF00001D7
:10043000AFF30080BDE81C407047032A40F23080D3
:1004400010F0030C00F0158011F8013BBCF1020F15
:10045000624498BF11F801CB00F8013B38BF11F896
:10046000013BA2F1040298BF00F801CB38BF00F8AD
:10047000013B11F0030300F02580083AC0F008802A
:1004800051F8043B083A51F804CBA0E80810F5E70E
:10049000121D5CBF51F8043B40F8043BAFF30080F1
:1004A000D20724BF11F8013B11F801CB48BF11F866
:1004B000012B24BF00F8013B00F801CB48BF00F836
:1004C000012B704710B5203AC0F00B80B1E81850EE
:1004D000203AA0E81850B1E81850A0E81850BFF42E
:1004E000F5AF5FEA027C24BFB1E81850A0E81850CD
:1004F00044BF18C918C0BDE810405FEA827C24BF21
:1005000051F8043B40F8043B08BF7047D20728BFAE
:1005100031F8023B48BF11F8012B28BF20F8023BFD
:1005200048BF00F8012B70474FF0000200B513469A
:1005300094469646203922BFA0E80C50A0E80C5003
:10054000B1F12001BFF4F7AF090728BFA0E80C50B4
:1005500048BF0CC05DF804EB890028BF40F8042BAD
:1005600008BF704748BF20F8022B11F0804F18BF1A
:1005700000F8012B7047704770477047754600F0D0
:100580002BF8AE4605006946534620F00700854625
:1005900018B020B5FFF7C8FEBDE820404FF00006B8
:1005A0004FF000074FF000084FF0000B21F007015B
:1005B000AC46ACE8C009ACE8C009ACE8C009ACE89E
:1005C000C0098D46704710B50446AFF30080204641
:1005D000BDE81040FFF723BE00487047B01100206F
:1005E00001491820ABBEFEE726000200704700005C
:1005F00010B501248021034800F070FC00B10024F4
:10060000204610BD0004004810B5044621460248AB
:1006100002F05EFA10BD0000D800002010B50448BA
:1006200002F069FA042801D0012010BD0020FCE787
:10063000D800002010B5002400F00CF8012801D0EB
:10064000022010BD024802F068FA04462046F8E78E
:10065000D800002008B501200090FFF7C9FF08B9B5
:10066000002000909DF8000008BD00002DE9F04139
:1006700004460D461646002733462A4621460448BE
:1006800002F042FB00B101273846BDE8F0810000CE
:10069000D800002010B5002201210248006804F0B3
:1006A000C3FD10BD100000202DE9F04104460D46A9
:1006B0001646002733462A462146044802F0BCFB72
:1006C00000B101273846BDE8F0810000D8000020C5
:1006D00000BFFEE710B5024800F06BF810BD000047
:1006E0008C00002010B5024800F063F810BD000037
:1006F0008C00002010B5024800F05BF810BD00002F
:100700008C00002010B5024800F053F810BD000026
:100710008C00002030B590F8444004F01C05012402
:10072000AC40056C6C60046863608468102C04D174
:100730000468A2600468E16003E00468A1600468E2
:10074000E26030BD7047704730B504460D46002268
:100750002946204600F002F830BD0000F0B50346FF
:10076000012500241148407A01281CDA00200F4E90
:10077000767A0E4FB8553846467A001D40F8263036
:10078000001F467A083082553E46707A461C7E72BB
:10079000044604F1300008703A2048702F20887019
:1007A0000020C87000252846F0BD0000FC04002091
:1007B00070472DE9F05F04460025206846692068EF
:1007C000D0F80490206887682068D0F80CA02068D2
:1007D000D0F810B02068D0F8188006F0010000288A
:1007E00055D007F00100C0B101202168886007F0F2
:1007F000020018B1204600F025FA0EE007F00400D0
:1008000010B145F4006508E007F0080010B145F4A8
:10081000805502E0204600F014FA07F48070C8B159
:100820004FF480702168886007F4007018B120468A
:1008300000F00AFA0EE007F4806010B145F40055AC
:1008400008E007F4006010B145F4804502E020465E
:1008500000F0F9F907F48030C8B14FF48030216816
:10086000886007F4003018B1204600F0EFF90EE080
:1008700007F4802010B145F4004508E007F400209B
:1008800010B145F4803502E0204600F0DEF906F0B4
:10089000080038B10AF0100020B145F400751020AE
:1008A0002168C86006F0040040B10AF0080028B1D1
:1008B00008202168C860204600F0BEF906F002005A
:1008C00038B12068C06800F0030010B1204600F085
:1008D000B4F906F0400038B10BF0100020B145F437
:1008E000806510202168086106F0200040B10BF0FF
:1008F000080028B1082021680861204600F09EF910
:1009000006F0100038B12068006900F0030010B153
:10091000204600F094F906F4003040B109F01000D0
:1009200028B1102021684860204600F089F906F4BB
:10093000803040B109F0080028B1082021684860E3
:10094000204600F084F906F4004088B309F0040062
:1009500078B306F4807020B108F0010008B145F0CA
:10096000010506F4007020B108F0020008B145F05E
:10097000020506F4806020B108F0040008B145F0DB
:10098000040506F40060A0B108F0700088B108F01A
:100990007000402817D006DC10280BD020280CD07F
:1009A000302819D10CE0502810D0602814D110E064
:1009B0001DE019E045F008050FE045F010050CE0DA
:1009C00045F0200509E045F0400506E045F08005CA
:1009D00003E045F4807500E000BF00BF2068806937
:1009E00020F07000216888610420216848602DB1E2
:1009F000606A284360622046FFF7DAFE00F000B824
:100A000030BCBDE8C09F70B504460CB9012070BD74
:100A100094F8200010B9204600F0B0F82068006873
:100A200020F002002168086000F066FA05460DE03B
:100A300000F062FA401B0A2808D9606A40F40030CE
:100A40006062052084F820000120E0E7206840680B
:100A500000F002000028EBD12068006840F001009F
:100A60002168086000F048FA05460DE000F044FAFD
:100A7000401B0A2808D9606A40F4003060620520F3
:100A800084F820000120C2E72068406800F00100DF
:100A90000028EBD0207E012806D12068006840F0B5
:100AA00080002168086005E02068006820F0800070
:100AB00021680860607E012806D12068006840F047
:100AC00040002168086005E02068006820F04000D0
:100AD00021680860A07E012806D12068006840F0E7
:100AE00020002168086005E02068006820F02000F0
:100AF00021680860E07E012806D12068006820F0A7
:100B000010002168086005E02068006840F01000CF
:100B100021680860207F012806D12068006840F025
:100B200008002168086005E02068006820F00800DF
:100B300021680860607F012806D12068006840F0C5
:100B400004002168086005E02068006820F00400C7
:100B500021680860D4E902010843216908436169FA
:100B600008436168491E08432168C861002060622B
:100B7000012084F82000002049E7000010B586B06D
:100B80000446142101A8FFF7CFFC284920688842B9
:100B900049D100BF2648806D40F000702449886527
:100BA0000846806D00F00070009000BF00BF00BFDD
:100BB0000846C06C40F00200C8640846C06C00F0F3
:100BC0000200009000BF00BF4FF44070019002206F
:100BD000029000200390032004900920059001A9B1
:100BE000144800F097F800221146132000F01EFA76
:100BF000132000F007FA00221146142000F016FA24
:100C0000142000F0FFF900221146152000F00EFA22
:100C1000152000F0F7F900221146162000F006FA20
:100C2000162000F0EFF906B010BD0000006400408F
:100C3000001002400004004870477047704770473A
:100C400070477047704770477047704770477047EC
:100C50002DE9F04104460D4616461F464FF00008A8
:100C600000BF94F82400012802D10220BDE8F081E1
:100C7000012084F8240000BF94F8250001282CD11D
:100C8000022084F825000020E0632068006820F03E
:100C90000100216808603B46324629462046FFF79E
:100CA00039FD206B30B12068006840F00E002168EB
:100CB00008600BE02068006820F0040021680860EC
:100CC0002068006840F00A00216808602068006819
:100CD00040F001002168086006E000BF002084F8B1
:100CE000240000BF4FF002084046BFE770B504463D
:100CF00000F002F906462546681C10B10448007849
:100D0000054400BF00F0F8F8801BA842FAD370BD7C
:100D10002400002078B503460022CBE0012696404F
:100D20000D6805EA0604002C72D04D68012D08D02C
:100D30004D68022D05D04D68112D02D04D68122D41
:100D400013D1986856000325B540A8435600CD68D6
:100D5000B54028439860586801259540A8430D790F
:100D6000C5F30015954028435860D8685600032500
:100D7000B540A84356008D68B5402843D8604D68FB
:100D8000022D02D04D68122D13D1D60803F1200593
:100D900055F826005507EE0E0F25B540A843560717
:100DA000F60E0D69B5402843D60803F1200545F835
:100DB0002600186856000325B540A8430D7905F0B4
:100DC00003055600B540284318604D6805F080556E
:100DD000B5F1805F6DD100BF394D2D6E45F0010535
:100DE000374E356635462D6E05F00105009500BF7E
:100DF00000BF4FEAB635960855F8260095072E0F26
:100E00000F25B540A843B3F1904F02D1002515E05E
:100E10004FE02C4DAB4201D101250FE02A4DAB42F2
:100E200001D102250AE0294DAB4201D1032505E09D
:100E3000274DAB4201D1042500E007259607360F68
:100E4000B5402843234D960845F82600224D2868D2
:100E5000A0434D6805F48035B5F5803F00D12043AF
:100E60001D4D28602D1D2868A0434D6805F40035F0
:100E7000B5F5003F00D12043174D2D1D28602D1DD5
:100E80002868A0434D6805F48015B5F5801F00D192
:100E90002043114D083528602D1D2868A0434D685A
:100EA00005F40015B5F5001F00D120430A4D0C359F
:100EB0002860521C0D68D540002D7FF42FAF78BDFF
:100EC000001002400004004800080048000C0048E0
:100ED0000010004808000140000401400246136968
:100EE0000B400BB1012000E0002070470AB1816186
:100EF00000E0816270470000014800687047000010
:100F00001C0000200348006803490978084401498F
:100F1000086070471C0000202400002010B5002449
:100F2000032000F0C5F8002000F008F808B1012403
:100F300001E000F047F8204610BD000070B588B011
:100F400004460025002600222146192000F06EF8F4
:100F5000192000F057F800BF1648006E40F40060FA
:100F6000144908660846006E00F40060019000BF56
:100F700000BF02A903A800F0E7FE00F01FFF05462E
:100F80000D48B5FBF0F0461E0C480D49086040F2D4
:100F9000E7310B48C160466000210161816001F0CA
:100FA000E2FF20B9064802F017F808B070BD012032
:100FB000FBE700000010024040420F00002C0140FF
:100FC000B004002008B500BF0D48006E40F00100DD
:100FD0000B4908660846006E00F00100009000BF53
:100FE00000BF00BF0846806D40F08050886508460D
:100FF000806D00F08050009000BF00BF08BD000071
:10100000001002400146084600280DDB00BF00BF6B
:1010100000F01F0301229A4043099B0003F1E023E3
:10102000C3F8002100BF00BF00BF70472DE9F05F8B
:1010300080460D461646002703F0FEFF0746394658
:101040002A46334601F00700C0F1070ABAF1040F3F
:1010500002D94FF0040A01E0C0F1070AD14600F1BD
:10106000040ABAF1070F02D24FF0000A01E0A0F122
:10107000030AD4464FF0010A0AFA09FAAAF1010A52
:101080000AEA020A0AFA0CFA4FF0010B0BFA0CFBFF
:10109000ABF1010B0BEA030B4AEA0B042146404675
:1010A00003F0D2FF00F000B830BCBDE8C09F0000E4
:1010B00000BF00F00702064B19684FF6FF03194006
:1010C000044B0B4343EA0221014B196000BF7047F8
:1010D0000CED00E00000FA050246B2F5007F2AD1CF
:1010E0001D48006800F4C060B0F5007F32D01A4897
:1010F000006820F4C06040F40070174B1860174877
:10110000006832235843164BB0FBF3F0411C00E05B
:10111000491E1148406900F48060B0F5806F01D12C
:101120000029F5D10C48406900F48060B0F5806F6B
:1011300010D1032070470848006800F4C060B0F583
:10114000806F07D00448006820F4C06040F48060DD
:10115000014B18600020EDE70070004028000020DF
:1011600040420F000248006800F4C0607047000071
:10117000007000402DE9F04707464FF00009B7F531
:10118000003F2DD1F748006800F44074B4F5807F2B
:1011900006D0B4F5007F0CD0B4F5407F1ED112E02C
:1011A000F048006800F00200022801D14FF4004925
:1011B00015E0EC48001D006800F00200022801D193
:1011C0004FF4FA490BE0E7489038006800F400302B
:1011D000B0F5003F01D1DFF8909300E000BF03E3DA
:1011E000E0489038C06800F00308B8F1010F06D05D
:1011F000B8F1020F23D0B8F1030F38D12BE0D94852
:101200009038006800F00200022816D1D5489038C6
:10121000006800F0080028B1D2489038006800F05B
:10122000F00005E0CF48001D006800F47060000980
:101230000009CE4951F8205000E0002519E0C948C6
:101240009038006800F48060B0F5806F01D1C84D1F
:1012500000E000250DE0C3489038006800F400303D
:10126000B0F5003F01D1C34D00E0002501E00025AD
:1012700000BF00BFB7F5007F79D011DC202F77D0F9
:1012800006DC012F75D0022F74D0042F73D119E121
:10129000402F71D0802F70D0B7F5807FF6D1F8E164
:1012A000B7F5804F6AD009DCB7F5806F67D0B7F526
:1012B000006F0DD0B7F5005FE8D110E0B7F5004F33
:1012C00070D0B7F5802F0BD0B7F5002FDED108E036
:1012D00029464FF4006002F083F9814683E200BFA3
:1012E00000BFA0480838006800F04064F4B3B4F1CF
:1012F000806F58D0B4F1006F20D0B4F1406F7BD133
:1013000098489038006800F00200022815D19548EE
:101310009038006800F0080028B1924890380068C2
:1013200000F0F00005E08F48001D006800F47060D8
:10133000000900098D4951F8209069E089489038EA
:10134000006800F00070B0F1007F2AD18548903825
:10135000C06800F48010B0F5801F22D18148903819
:10136000C068C0F3062605FB06F009E045E0B3E1DE
:10137000D4E04FE07AE035E245E167E10AE1E0E1FF
:1013800078499039C968C1F30211491CB0FBF1F5E5
:1013900074489038C068C0F34150401C4000B5FB11
:1013A000F0F935E002E26F489038006800F0006024
:1013B000B0F1006F1FD16B489038006900F48010C5
:1013C000B0F5801F17D1674890380069C0F3062632
:1013D00005FB06F063499039C968C1F30211491C45
:1013E000B0FBF1F55F4890380069C0F34150401CF4
:1013F0004000B5FBF0F90BE009E05A4808300068FE
:1014000000F00200022801D1DFF86C9100E000BF7B
:1014100000BFE8E153480838006800F0030434B125
:10142000012C08D0022C0AD0032C1CD112E000F0B1
:10143000C5FC814618E000F0D3FC814614E0494821
:101440009038006800F48060B0F5806F01D1DFF85B
:10145000209109E04348006800F00200022801D111
:101460004FF4004900E000BF00BFBCE13D48083830
:10147000006800F00C0434B1042C08D0082C0AD009
:101480000C2C1CD112E000F087FC814618E000F023
:10149000A7FC814614E033489038006800F480606F
:1014A000B0F5806F01D1DFF8C89009E02D480068E1
:1014B00000F00200022801D14FF4004900E000BF13
:1014C00000BF90E127480838006800F0300434B1CC
:1014D000102C08D0202C0AD0302C1CD112E000F0A7
:1014E0005BFC814618E000F07BFC814614E01D485F
:1014F0009038006800F48060B0F5806F01D1DFF8AB
:10150000709009E01748006800F00200022801D13D
:101510004FF4004900E000BF00BF64E11148083803
:10152000006800F440644CB1B4F5806F0AD0B4F5A3
:10153000006F0BD0B4F5406F29D11FE000F02CFCF8
:10154000814625E000F04CFC814621E005489038BA
:10155000006800F48060B0F5806F01D1DFF8109072
:1015600016E000009010024090D00300306D00089B
:101570000024F40000127A00006CDC029C48006831
:1015800000F00200022801D14FF4004900E000BF42
:1015900000BF28E196480838006800F04054B4F1D4
:1015A000805F06D0B4F1405F2AD100F019FC81467B
:1015B00027E08F489038006800F00060B0F1006FBD
:1015C0001DD18B489038006900F08070B8B1884810
:1015D00090380069C0F3062605FB06F0844990396F
:1015E000C968C1F30211491CB0FBF1F5804890387D
:1015F0000069C0F34160401C4000B5FBF0F900E019
:1016000000BF00BFEFE07A480838006800F440549B
:1016100034B1B4F5805F07D0B4F5005F13D107E0B3
:1016200000F0BAFB81460FE000F0DAFB81460BE0E8
:101630006F489038006800F48060B0F5806F01D189
:10164000DFF8B09100E000BF00BFCCE06848083888
:10165000006800F4404434B1B4F5804F07D0B4F5CD
:10166000004F13D107E000F097FB81460FE000F038
:10167000B7FB81460BE05E489038006800F480605C
:10168000B0F5806F01D1DFF86C9100E000BF00BFC2
:10169000A9E057480838006800F4403434B1B4F584
:1016A000803F07D0B4F5003F13D107E000F074FB92
:1016B00081460FE000F094FB81460BE04C489038E7
:1016C000006800F48060B0F5806F01D1DFF82491EC
:1016D00000E000BF00BF86E045480838006800F41D
:1016E00040244CB1B4F5802F0AD0B4F5002F11D0AE
:1016F000B4F5402F22D118E000F04EFB81461EE0E9
:101700003B48001D006800F00200022801D14FF4A0
:10171000FA4914E036489038006800F48060B0F56B
:10172000806F01D1DFF8CC9009E03148006800F00B
:101730000200022801D14FF4004900E000BF00BFC1
:1017400051E02B480838006800F440144CB1B4F55F
:10175000801F0AD0B4F5001F11D0B4F5401F22D16C
:1017600018E000F019FB81461EE02148001D0068CA
:1017700000F00200022801D14FF4FA4914E01C489D
:101780009038006800F48060B0F5806F01D1DFF818
:10179000649009E01648006800F00200022801D1B8
:1017A0004FF4004900E000BF00BF1CE010480838BB
:1017B000006800F080441CB1B4F1804F0FD103E009
:1017C00000F0EAFA81460BE009489038006800F41E
:1017D0008060B0F5806F01D1DFF8189000E000BFA5
:1017E00000BF00E000BF00BF4846BDE8F087000032
:1017F000901002400024F4002DE9F843044600252F
:10180000A846208800F40060B0F5006F26D1606C17
:1018100068B1B0F5000F03D0B0F5400F0ED10CE069
:10182000E848C06840F48030E649C86008E000211C
:10183000201D01F063FF054602E001E0012500BF25
:1018400000BF55B9DF488830006820F44000616C63
:101850000843DC49C1F8880000E0A846206800F48D
:101860000030B0F5003F75D14FF00009D548806DCC
:10187000012121EA107078B100BFD248806D40F09C
:101880008050D04988650846806D00F080500090F7
:1018900000BF00BF4FF00109CB48006840F48070E2
:1018A000C9490860FFF728FB074606E0FFF724FB5D
:1018B000C01B022801D9032505E0C348006800F4D5
:1018C00080700028F2D000BF7DBBBE489030006819
:1018D00000F44076CEB1E06DB04216D0B9489030F9
:1018E000006820F44076B748D0F8900040F480308B
:1018F000B449C1F890000846D0F8900020F4803038
:10190000C1F890000846C0F8906006F00100A8B148
:10191000FFF7F2FA074609E0FFF7EEFAC01B41F2C3
:101920008831884202D9032507E016E0A5489030A7
:10193000006800F002000028EED000BF5DB9A148A9
:101940009030006820F44070E16D08439D49C1F873
:10195000900003E00CE0A84600E0A846B9F1010FB2
:1019600005D19848806D20F080509649886500BF69
:10197000207800F0010048B192488830006820F0DB
:101980000300216A08438F49C1F88800207800F0DD
:101990000200022809D18B488830006820F00C0032
:1019A000616A08438749C1F88800207800F0040084
:1019B000042809D183488830006820F03000A16AEB
:1019C00008438049C1F88800207800F020002028D2
:1019D00009D17C488830006820F44060E16A0843FF
:1019E0007849C1F88800208800F40070B0F5007FC5
:1019F00009D174488830006820F44020E16B084326
:101A00007049C1F88800208800F48060B0F5806FCC
:101A100009D16C488830006820F44010216C0843DC
:101A20006849C1F88800207800F04000402809D1BA
:101A300064488830006820F44050216B08436149B5
:101A4000C1F88800207800F08000802809D15D4826
:101A50008830006820F44040616B08435949C1F860
:101A60008800208800F48070B0F5807F09D1554847
:101A70008830006820F44030A16B08435149C1F818
:101A80008800208800F40050B0F5005F1FD14D4859
:101A90008830006820F04060A16C084349498831D3
:101AA0000860A06CB0F1006F06D14648C06840F4F1
:101AB00080104449C8600AE0A06CB0F1806F06D184
:101AC0000121201D01F01AFE054605B1A846206837
:101AD00000F40020B0F5002F1FD13A48883000688C
:101AE00020F04060E16C0843364988310860E06CC2
:101AF000B0F1006F06D13348C06840F4801031491E
:101B0000C8600AE0E06CB0F1806F06D10121201DB1
:101B100001F0F4FD054605B1A846206800F48020D8
:101B2000B0F5802F1FD127488830006820F0406032
:101B3000216D0843234988310860206DB0F1006FA2
:101B400006D12048C06840F480101E49C8600AE0F1
:101B5000206DB0F1806F06D10121201D01F0CEFD76
:101B6000054605B1A846208800F48040B0F5804FB6
:101B700014D114488830006820F04050616D08434B
:101B8000104988310860606DB0F1805F06D1022194
:101B9000201D01F0B3FD054605B1A846208800F4DC
:101BA0000040B0F5004F09D106488830006820F0A9
:101BB0008040A16D08430349C1F888004046BDE854
:101BC000F883000000100240007000402DE9F04151
:101BD00004460D4614B90120BDE8F081554800685F
:101BE00000F00700A8420ED25248006820F007001B
:101BF0002843504908600846006800F00700A842E2
:101C000001D00120E8E7207800F00100002840D052
:101C10006068032806D14848006800F00070D8B911
:101C20000120D9E76068022806D14348006800F423
:101C3000003088B90120CFE7606830B93E480068BD
:101C400000F0020040B90120C6E73B48006800F4FC
:101C5000806008B90120BFE73748806820F00300A2
:101C60006168084334498860FFF746F9064608E092
:101C7000FFF742F9801B41F28831884201D90320E5
:101C8000AAE72D48806800F00C006168B0EB810F76
:101C9000EED1207800F00200022807D126488068A3
:101CA00020F0F000A16808432349886021480068BB
:101CB00000F00700A8420ED91E48006820F0070077
:101CC00028431C4908600846006800F00700A84245
:101CD00001D0012080E7207800F00400042807D11B
:101CE0001548806820F4E060E16808431249886084
:101CF000207800F00800082808D10F48806820F4F8
:101D00006050216940EAC1000B49886000F068F822
:101D100009498968C1F30311084A515C01F01F01A8
:101D2000C8400749086007480068FFF707F90746F9
:101D3000384651E70020024000100240186D0008AC
:101D400028000020200000200F2202600D4A926827
:101D500002F0030242600B4A926802F0F0028260D5
:101D6000084A926802F4E062C260064A926802F48D
:101D70006052D2080261044A126802F007020A6047
:101D80007047000000100240002002400148006837
:101D9000704700002800002000B5FFF7F7FF054955
:101DA0008968C1F30221044A515C01F01F01C84057
:101DB00000BD000000100240286D000800B5FFF7CC
:101DC000E5FF05498968C1F3C221044A515C01F06D
:101DD0001F01C84000BD000000100240286D00082F
:101DE000F0B500230020DFF8D4C0DCF808C00CF008
:101DF0000C01DFF8C8C0DCF80CC00CF0030719B107
:101E00000C291ED1012F1CD1DFF8B0C0DCF800C0B6
:101E10000CF0080CBCF1000F06D1DFF8A0C0DCF814
:101E200094C0CCF3032305E0DFF890C0DCF800C0D9
:101E3000CCF30313DFF888C05CF8233041B91846AF
:101E400006E0042901D11F4802E0082900D11E48FC
:101E50000C2932D1DFF864C0DCF80CC00CF00304AC
:101E6000012C09D0022C02D0032C04D101E0154A28
:101E700004E0154A02E000BF1A4600BF00BFDFF8C9
:101E80003CC0DCF80CC0CCF3021C0CF10106DFF8FE
:101E90002CC0DCF80CC0CCF3062C0CFB02FCBCFB09
:101EA000F6F2DFF818C0DCF80CC0CCF3416C0CF192
:101EB000010C4FEA4C05B2FBF5F0F0BD00100240FA
:101EC000306D00080024F40000127A002DE9F84378
:101ED000044614B90120BDE8F883F948806800F091
:101EE0000C06F748C06800F00307207800F01000E7
:101EF000102877D11EB10C2E76D1012F74D1F04865
:101F0000006800F0020018B1A06908B90120E2E7FA
:101F1000EB48216A006800F0080020B1E84800683A
:101F200000F0F00005E0E6489430006800F47060CE
:101F3000000981421FD9206A01F0A4FC08B10120E8
:101F4000C9E700BFDE48006840F00800DC490860CF
:101F50000846006820F0F000216A0843D84908606C
:101F600000BF0846406820F47F40E16940EA012054
:101F7000D34948601FE000BFD148006840F0080026
:101F8000CF4908600846006820F0F000216A084345
:101F9000CB49086000BF0846406820F47F40E169F3
:101FA00040EA0120C64948602EB9206A01F06AFC67
:101FB00008B101208FE7FFF713FFC1498968C1F31A
:101FC0000311C04A515C01F01F01C840BE490860BE
:101FD000BE480068FEF7B2FF8046B8F1000F4ED051
:101FE000404678E74BE0FFE7A06980B3B44800685B
:101FF00040F00100B2490860FEF77EFF054606E0AA
:10200000FEF77AFF401B022801D9032063E7AC48A2
:10201000006800F002000028F2D000BFA848006865
:1020200040F00800A64908600846006820F0F0006B
:10203000216A0843A249086000BF0846406820F4AE
:102040007F40E16940EA01209D49486017E0FFE7D1
:102050009B48006820F0010099490860FEF74CFF9A
:10206000054606E0FEF748FF401B022801D9032081
:1020700031E79348006800F002000028F2D1207890
:1020800000F0010000285CD0082E03D00C2E0AD1ED
:10209000032F08D18A48006800F4003088B36068D4
:1020A00078BB012017E700BF6068B0F5803F06D11C
:1020B0008348006840F48030814908601AE0606815
:1020C000B0F5A02F0BD17E48006840F480207C49F9
:1020D00008600846006840F4803008600AE07848EC
:1020E000006820F48030764908600846006820F4D3
:1020F0008020086000BF606890B1FEF7FDFE0546D5
:1021000007E01EE0FEF7F8FE401B642801D903201B
:10211000E1E66B48006800F400300028F2D010E0DF
:10212000FEF7EAFE054606E0FEF7E6FE401B6428E1
:1021300001D90320CFE66248006800F4003000288F
:10214000F2D1207800F00200022852D1042E03D0F0
:102150000C2E14D1022F12D15948006800F480606F
:1021600018B1E06808B90120B5E65548406820F08C
:10217000FE40217C40EA01605149486039E0E06856
:1021800000B34F48006840F480704D490860FEF786
:10219000B3FE054606E0FEF7AFFE401B022801D95C
:1021A000032098E64648006800F480600028F2D0DA
:1021B0004348406820F0FE40217C40EA01604049ED
:1021C000486016E03E48006820F480703C49086092
:1021D000FEF792FE054606E0FEF78EFE401B022843
:1021E00001D9032077E63648006800F480600028B3
:1021F000F2D1207800F00800082836D16069D0B10B
:102200002F489430006840F001002D49C1F8940037
:10221000FEF772FE054606E0FEF76EFE401B022842
:1022200001D9032057E626489430006800F00200E8
:102230000028F1D019E022489430006820F0010015
:102240001F49C1F89400FEF757FE054606E0FEF769
:1022500053FE401B022801D903203CE61848943065
:10226000006800F002000028F1D1207800F004009E
:10227000042872D14FF000091148806D00F08050A1
:1022800078B900BF0E48806D40F080500C498865D9
:102290000846806D00F08050009000BF00BF4FF0F6
:1022A00001090B48006800F4807000BB0848006812
:1022B00040F4807006490860FEF71EFE054610E0F7
:1022C00000100240186D00082800002020000020A7
:1022D00000700040FEF710FE401B022801D90320C9
:1022E000F9E5D048006800F480700028F2D000BF03
:1022F000A068012808D1CC48006840F00100CA4914
:102300009039C1F8900021E0A06805280FD1C64897
:10231000006840F00400C4499039C1F890000846B4
:10232000D0F8900040F00100C1F890000EE0BE48E7
:10233000006820F00100BC499039C1F890000846BF
:10234000D0F8900020F00400C1F8900000BFA06811
:10235000A0B1FEF7D1FD054609E02EE0FEF7CCFD69
:10236000401B41F28831884201D90320B3E5AE48D1
:10237000006800F002000028F0D012E0FEF7BCFD7B
:10238000054608E0FEF7B8FD401B41F2883188425F
:1023900001D903209FE5A448006800F0020000284E
:1023A000F0D1B9F1010F07D19F489038806D20F02E
:1023B00080509D499039886500BF207800F020004A
:1023C000202838D1606AD8B197480830006840F0BA
:1023D000010095499039C1F89800FEF78DFD05463A
:1023E00006E0FEF789FD401B022801D9032072E5B3
:1023F0008D480830006800F002000028F1D01AE093
:1024000089480830006820F0010087499039C1F8F8
:102410009800FEF771FD054606E0FEF76DFD401BD6
:10242000022801D9032056E57F480830006800F0F3
:1024300002000028F1D1A06A00287DD0A06A0228FD
:102440007BD179489038C76807F00301E06A814280
:1024500025D107F07001206B401EB1EB001F1ED18B
:1024600007F4FE41606BB1EB002F18D107F0784103
:102470003820005DB1EBC06F11D107F4C001A08F0F
:102480000122C2EB5000B1EB405F08D107F0C06100
:102490004020005DC2EB5000B1EB406F66D00C2EC7
:1024A00062D061489038006800F0806008B1012077
:1024B00011E55D489038006820F080705A499039E5
:1024C0000860FEF719FD054606E0FEF715FD401B06
:1024D000022801D90320FEE453489038006800F038
:1024E00000700028F1D1D4E90B10401E41EA001120
:1024F000606B41EA0021A08F0122C2EB500041EA4B
:1025000040514020005DC2EB500041EA406138205C
:10251000005D41EAC06044499039C968434A1140AE
:10252000084341499039C8600846006840F080700F
:1025300008600846C06801E05BE03DE040F0807064
:10254000C860FEF7D9FC054606E0FEF7D5FC401B47
:10255000022801D90320BEE433489038006800F017
:1025600000700028F1D05AE00120B4E42E489038E1
:10257000006800F00070E0BB2B489038006840F025
:1025800080702949903908600846C06840F0807022
:10259000C860FEF7B1FC054606E0FEF7ADFC401B47
:1025A000022801D9032096E41F489038006800F003
:1025B00000700028F1D032E00C2E2ED01A4890384E
:1025C000006820F08070184990390860084600685B
:1025D00000F0006020B90846C06820F00300C86021
:1025E00011489038C068124908400F499039C860B6
:1025F00000E014E0FEF780FC054606E0FEF77CFCF8
:10260000401B022801D9032065E407489038006880
:1026100000F000700028F1D101E001205BE400200F
:1026200059E4000000700040901002408C809D0131
:10263000FFFFEEFE70B504460125002C4DD094F846
:10264000210028B9002084F82000204600F04AF834
:10265000022084F8210000BFCA202168486253206C
:102660002168486200BF204601F068F90546A5BB15
:10267000206880681A49084021688860216960687C
:102680000843A16908432168896808432168886074
:102690002168E068086120680169208941EA0040FA
:1026A00021680861204601F06BF90546ADB9206844
:1026B000C06C20F003002168C8646169E0690843C8
:1026C0002168C96C08432168C86400BFFF202168E5
:1026D000486200BF012084F82100284670BD000038
:1026E000BFFF8FFF064A0168914207D1054909687B
:1026F00041F40041034A903AC2F89010704700003C
:1027000000280040901002402DE9F04705460C4695
:10271000174600BF95F82000012802D10220BDE82D
:10272000F087012085F8200000BF022085F82100F5
:102730004FB9607800F01000102804D1607800F0E4
:10274000EF000A30607097B9E07801F0E9F84FEADD
:102750000049607801F0E4F849EA0029A07801F026
:10276000DFF849EA0009207849EA403809E0E078D2
:102770000004617840EA0120A1780843217840EA0A
:10278000413800BFCA20296848625320296848623E
:1027900000BF284601F0D2F8064646B90C4808EAC0
:1027A000000029684860284601F0EAF8064600BFA4
:1027B000FF202968486200BF16B9012085F8210072
:1027C00000BF002085F8200000BF3046A7E70000CA
:1027D0003FFFFF002DE9F04704460D46904600BF3D
:1027E00094F82000012802D10220BDE8F0870120E2
:1027F00084F8200000BF022084F8210000BFCA2016
:102800002168486253202168486200BF204601F0D9
:1028100095F80646002E47D1B8F1000F1BD120686D
:10282000806800F0400000B102E00020E87000BFC6
:10283000287801F075F84FEA0049687801F070F8DF
:1028400049EA0029A87801F06BF849EA0009E8781C
:1028500049EA805712E02068806800F0400000B12B
:1028600002E00020E87000BF28780004697840EAA0
:102870000120A9780843E97840EA81571248384096
:10288000216808602068806820F4802021688860C2
:10289000D5E90301084321688968084321688860F5
:1028A000204601F06DF8064600BFFF20216848620F
:1028B00000BF16B9012084F8210000BF002084F871
:1028C000200000BF304690E77F7F7F0070B5044650
:1028D0002068C06820F0A0002168C860FEF70CFBEB
:1028E000054607E0FEF708FB401BB0F57A7F01D9EB
:1028F000032070BD2068C06800F020000028F1D0DF
:102900000020F6E77047000010B50246506E800FB9
:102910000870506EC0F383604870506EC0F3016061
:102920008870506E000CC870B2F86400000A08711C
:1029300092F864004871906E000DC880906EC0F3EC
:10294000034008726820805AC0F3C0304872682083
:10295000805AC0F3803088726820805AC0F34030BB
:10296000C8726820805AC0F3003008730020487392
:10297000506C002836D16820805A8005030DD06E37
:1029800043EA90700861D06EC0F3C2600875D06EE3
:10299000C0F302604875D06EC0F342508875D06EA7
:1029A000C0F38240C875D06EC0F3C23008760869A3
:1029B000401C50650B7E506D03F007039B1C0124E7
:1029C0009C4060435065087A00F00F030120984056
:1029D0009065D2E915035B0A5843D0654FF4007344
:1029E000136621E0506C012813D16820805C8006BA
:1029F000830AD06E43EA104008610869401C8302D4
:102A00005365536DD3654FF400739365936D1366EF
:102A10000AE02E4813689863906B40F080509063F2
:102A2000012082F8340010BD6C20805AC0F3803041
:102A300001F8190F6C20805AC0F3C61048706C2042
:102A4000805C00F07F008870106FC00FC870106F3E
:102A5000C0F341700871106FC0F382604871106F4D
:102A6000C0F383508871106FC0F34050C8710020CC
:102A70000872106FC0F3004048727020805AC0F393
:102A8000C03088727020805AC0F38030C8727020C5
:102A9000805AC0F3403008737020805AC0F3003071
:102AA00048737020805AC0F3812088737020805A48
:102AB000C0F30120C8737020805CC0F34600087426
:102AC0000120487419390020ADE70000FF054000DF
:102AD0000246506C0860906C4860D06C8860106D45
:102AE000C860506D0861906D4861D06D8861106E4E
:102AF000C86100207047F8B5044600200090694680
:102B0000204601F0C1FC054615B1A06B2843A06327
:102B10000098C0F343263046F8BD10B504460CB902
:102B2000012010BD94F8340020B900202077204601
:102B300000F090F8032084F83400204600F00CF8F0
:102B400008B10120EDE70020A0632063012084F894
:102B500034000020E5E700002DE9F0418AB004468A
:102B60000020049005900690079008904FF40020F4
:102B7000FEF700FB074647B9012084F83400C00681
:102B8000A06301200AB0BDE8F0812F48B7FBF0F048
:102B9000801E099007A807C88DE80700206804A9CF
:102BA0000EC901F0C8FA06460EB10120EAE7206816
:102BB000406820F4807021684860206801F0D5FAF0
:102BC00006460EB10120DDE72068406840F48070C1
:102BD000216848600998801CB7FBF0F71B48B0FBE0
:102BE000F7F000F101084046FEF780F8204601F0BA
:102BF000E5FB05463DB1012084F83400A06B284375
:102C0000A0630120BEE7204601F057FB05463DB119
:102C1000012084F83400A06B2843A0630120B1E7B1
:102C20004FF40071206800F019FF05464DB10848C7
:102C300021688863A06B2843A063012084F83400D6
:102C4000A0E700209EE70000801A06001021010086
:102C5000FF05400010B586B00446142101A8FDF719
:102C600063FC25492068884244D100BF2348006E98
:102C700040F48060214908660846006E00F48060D8
:102C8000009000BF00BF00BF0846C06C40F00800C5
:102C9000C8640846C06C00F00800009000BF00BF88
:102CA00000BF0846C06C40F00400C8640846C06C11
:102CB00000F00400009000BF00BF0420019002203B
:102CC000029000200390032004900C20059001A99D
:102CD0000B48FEF71FF84FF4885001900220029035
:102CE00000200390032004900C20059001A90548C2
:102CF000FEF710F806B010BD002801400010024099
:102D0000000C0048000800482DE9F04387B0044655
:102D10000F4691461D46C8463FB9A06B40F0006083
:102D2000A063012007B0BDE8F08394F834000128C7
:102D300074D10020A06308EB0501E06D814205D944
:102D4000A06B40F00070A0630120EBE7032084F843
:102D5000340000202168C8623148216CC8623148C3
:102D6000216C48630020216C88636A029308226802
:102D700002F180013A46206CFDF76AFF50B12A4803
:102D800021688863A06B40F08040A063012084F834
:102D90003400C7E72068C06A40F008002168C862B4
:102DA000606C012801D04FEA48284FF0FF300190B5
:102DB0006802029090200390022004900020059069
:102DC0000120069001A9206800F0AAFF012D07D973
:102DD000822020634146206800F08CFE064606E013
:102DE000812020634146206800F0A0FE064666B1BF
:102DF0000D4821688863A06B3043A063012084F8EC
:102E000034000020206301208CE72068C06B40F470
:102E100095702168C863002084E7FFE7022081E7FE
:102E200061420008F5410008FF05400010B5044666
:102E3000FDF730FC10BD00002DE9F04387B00446DB
:102E4000884691461D464F46B8F1000F07D1A06B4A
:102E500040F00060A063012007B0BDE8F08394F863
:102E60003400012874D10020A0637919E06D8142FB
:102E700005D9A06B40F00070A0630120ECE70320AF
:102E800084F8340000202168C8623248E16BC862CF
:102E90003148E16B48630020E16B8863606C012876
:102EA00000D07F02012D07D9A02020633946206879
:102EB00000F0FEFE064606E09020206339462068BA
:102EC00000F012FF064666B1244821688863A06BB3
:102ED0003043A063012084F83400002020630120E7
:102EE000BAE72068C06A40F008002168C862690239
:102EF0008B08216801F180024146E06BFDF7A8FED6
:102F000068B1164821688863A06B40F08040A063D8
:102F1000012084F834000020206301209CE74FF05A
:102F2000FF300190680202909020039000200490EE
:102F300005900120069001A9206800F0F1FE2068AC
:102F4000C06B40F01A002168C863002084E7FFE7E7
:102F5000022081E7A9420008F5410008FF05400072
:102F600070477047704710B504460CB9012010BD7A
:102F700094F83D0028B9002084F83C00204600F079
:102F800029F8022084F83D00211D206801F0D2FBC1
:102F9000012084F8480000BF84F83E0001213F2052
:102FA0000155402001554120015542200155432043
:102FB000015500BF00BF012084F8440045200155A1
:102FC000462001554720015500BF012084F83D00EF
:102FD0000020CCE770470000014691F83D00012831
:102FE00001D001207047022081F83D000868C068C8
:102FF00040F001000B68D860124B0868984207D077
:103000000868B0F1804F03D00F4B0868984210D188
:10301000086880680D4B00EA0302062A0FD0B2F55B
:10302000803F0CD00868006840F001000B68186011
:1030300005E00868006840F001000B681860002097
:10304000D0E70000002C01400040014007000100D3
:10305000704710B5044620680069C0F34000D8B13D
:103060002068C068C0F34000B0B16FF00200216872
:103070000861012020772068806900F0030018B102
:103080002046FFF7E5FF05E0204600F0BEF82046A9
:1030900000F0BCF80020207720680069C0F38000B1
:1030A000D8B12068C068C0F38000B0B16FF00400F0
:1030B00021680861022020772068806900F4407050
:1030C00018B12046FFF7C4FF05E0204600F09DF848
:1030D000204600F09BF80020207720680069C0F3AC
:1030E000C000D8B12068C068C0F3C000B0B16FF0B4
:1030F000080021680861042020772068C06900F07A
:10310000030018B12046FFF7A3FF05E0204600F0BA
:103110007CF8204600F07AF80020207720680069CB
:10312000C0F30010D8B12068C068C0F30010B0B17F
:103130006FF0100021680861082020772068C069BE
:1031400000F4407018B12046FFF782FF05E02046EA
:1031500000F05BF8204600F059F800202077206846
:10316000006900F0010058B12068C06800F001005B
:1031700030B16FF0010021680861204600F048F886
:1031800020680069C0F3C01058B12068C068C0F35F
:10319000C01030B16FF08000216808612046FFF751
:1031A000E0FE20680069C0F3002058B12068C068C4
:1031B000C0F3C01030B16FF4807021680861204600
:1031C000FFF7CEFE20680069C0F3801058B1206878
:1031D000C068C0F3801030B16FF040002168086112
:1031E000204600F021F820680069C0F3401058B173
:1031F0002068C068C0F3401030B16FF02000216833
:1032000008612046FFF7AEFE10BD70477047000012
:1032100010B5044603492068884201D1FDF772FECB
:1032200010BD0000002C0140704710B504460CB9D9
:10323000012010BDA06900B100E000BF606F28B997
:10324000002084F87000204600F02AF824206067EF
:103250002068006820F0010021680860204601F025
:1032600057FB012800D1E4E7606A10B1204601F065
:103270009BFA2068406820F49040216848602068EC
:10328000806820F02A00216888602068006840F08B
:10329000010021680860204601F002FBC9E7000038
:1032A00010B586B00446142101A8FDF73DF93C494C
:1032B000206888422AD100BF3A48806D40F400302F
:1032C000384988650846806D00F40030009000BFE2
:1032D00000BF00BF0846C06C40F00100C86408464B
:1032E000C06C00F00100009000BF00BF0F200190F3
:1032F00002200290002003900320049007200590F4
:1033000001A94FF09040FDF705FD47E026492068F0
:10331000884243D100BF2348806D40F4802021497A
:1033200088650846806D00F48020009000BF00BFD3
:1033300000BF0846C06C40F00200C8640846C06C7C
:1033400000F00200009000BF00BF00BF0846C06C44
:1033500040F00400C8640846C06C00F0040000900F
:1033600000BF00BF081501900220029000200390CA
:10337000032004900720059001A90C48FDF7CAFC22
:10338000202001900220029000200390032004904E
:103390000720059001A90648FDF7BCFC06B010BD4A
:1033A0000044004000100240004800400004004873
:1033B000000800482DE9F84F04460E4617469A4685
:1033C000A06F202871D106B117B9012000F084B890
:1033D00000BF94F87000012801D10220F6E7012017
:1033E00084F8700000BF0020E0672220A067FDF78E
:1033F00083FD8346A4F85870A4F85A7000BFA068F3
:10340000B0F5805F0AD1206920B940F2FF10A4F81E
:103410005C0020E0FF20A4F85C001CE0A06848B934
:10342000206918B9FF20A4F85C0014E07F20A4F8FC
:103430005C0010E0A068B0F1805F09D1206918B984
:103440007F20A4F85C0006E03F20A4F85C0002E0C6
:103450000020A4F85C0000BFB4F85C90A068B0F550
:10346000805F04D1206910B90025B04602E03546DE
:103470004FF0000800BF002084F8700000BF21E07A
:103480005B46002220212046CDF800A001F0C3FBBE
:1034900008B103209AE74DB92068808C00EA090042
:1034A000A8F8000008F1020807E013E02068808C0B
:1034B00009F0FF01084028706D1CB4F85A00401E46
:1034C000A4F85A00B4F85A000028D9D12020A067E7
:1034D00000207BE7022079E718BCBDE8E08F2DE9EA
:1034E000F84F04460E4617469946606F20285DD176
:1034F00006B117B9012000F05BB800BF94F8700066
:10350000012801D10220F6E7012084F8700000BFF5
:103510000020E06721206067FDF7EEFC8246A4F8FA
:103520005070A4F85270A068B0F5805F04D1206993
:1035300010B90025B04602E035464FF0000800BF44
:10354000002084F8700000BF1DE053460022802157
:103550002046CDF8009001F05EFB08B10320CAE7D9
:1035600045B9B8F80000C0F308002168088508F1E3
:10357000020803E02878216808856D1CB4F8520021
:10358000401EA4F85200B4F852000028DDD1534682
:10359000002240212046CDF8009001F03CFB08B10C
:1035A0000320A8E7202060670020A4E70220A2E70C
:1035B00018BCBDE8E08F00BFFEE7000010B503496E
:1035C0000348FDF7C1F80349087010BD150000203D
:1035D000F46C00081400002000BFFEE770470000F4
:1035E000F0B505460E46002000240023B5F5006F17
:1035F00007D13F4F3F6807F44004B4F5400F00D1B6
:103600003C48002873D13146B4F5000F37D1384F0C
:10361000883F3F6807F00077B7F1007F25D1344F2E
:10362000883FFF6807F48037FFB1314F883FFF685C
:10363000C7F302177F1CB1FBF7F12D4F883FFF68DE
:10364000C7F306222A4F883FFF68FB0E43B9284F75
:10365000883FFF6807F400370FB1112300E007230C
:1036600001FB02F7B7FBF3F041E0214F883F3F68D1
:1036700007F48067B7F5806F39D11F4837E064BB26
:103680001B4F883F3F6807F00067B7F1006F25D1F7
:10369000174F883F3F6907F48037FFB1144F883FC9
:1036A000FF68C7F302177F1CB1FBF7F1104F883F8B
:1036B0003F69C7F306220E4F883F3F69FB0E43B9AF
:1036C0000B4F883F3F6907F400370FB1112300E02B
:1036D000072301FB02F7B7FBF3F008E0044F883F34
:1036E0003F6807F48067B7F5806F00D10248F0BDEE
:1036F0008810024068FF1F000024F4002DE9F0410B
:1037000004460F4600255B48C06800F0030090B1F6
:103710005848C06800F003002168884209D1206839
:1037200038B15448C068C0F30210401C6168884238
:1037300033D0012531E02068012804D0022809D0C7
:1037400003281AD10DE04B48006800F0020000B9D0
:10375000012514E04748006800F4806000B90125A5
:103760000DE04448006800F4003028B94148006882
:1037700000F4802000B9012501E0012500BF00BF51
:103780005DB9D4E90010401E41EA00103949C9680A
:1037900021F0730108433749C860002D67D13548CF
:1037A000006820F0806033490860FDF7A5FB0646FD
:1037B00006E0FDF7A1FB801B022801D9032505E0E7
:1037C0002C48006800F000600028F2D100BFC5BBA3
:1037D00067B9A0680002217B40EAC16025490969F8
:1037E000254A114008432349086120E0012F0FD1E9
:1037F000A0680002218A0122C2EB510140EA415037
:103800001C4909691D4A114008431A4908610EE024
:10381000A0680002217D0122C2EB510140EA416013
:1038200014490969164A11400843124908611148B0
:10383000006840F080600F490860FDF75DFB0646B8
:1038400007E014E0FDF758FB801B022801D903258F
:1038500005E00848006800F000600028F2D000BFD2
:103860002DB904480069A169084302490861284646
:10387000BDE8F08100100240FF80FF07FF809FFF3E
:10388000FF80FFF9F8B5044600262348806D00F05C
:10389000805018B1FDF766FC054616E000BF1E48D3
:1038A000806D40F080501C4988650846806D00F0AE
:1038B0008050009000BF00BFFDF754FC054616483D
:1038C000806D20F0805014498865B5F5007F07D1E0
:1038D000802C10D9A02C01D902260CE001260AE088
:1038E000802C01D9032606E0802C01D1022602E0BB
:1038F000702C00D101260948006820F007003043F1
:10390000064908600846006800F00700B04201D090
:103910000120F8BD0020FCE700100240002002401A
:1039200002460023114603E05B1CA1F10A00C1B26C
:103930000A29F9D2180741EA1060704770B50446A9
:1039400000262068C06800F04000B8B9701E2168E9
:10395000C860FDF7D1FA054609E0FDF7CDFA401B36
:10396000B0F57A7F03D90326032084F8210020686C
:10397000C06800F0400008B9032EEED1304670BD9B
:1039800070B5044600251748006820F080001549EE
:103990000860081F006800F0200040B92046FEF7CC
:1039A00095FFE0B1032084F82100032517E00D48BE
:1039B000001F006820F020000A49091F0860204607
:1039C000FEF784FF18B1032084F821000325054881
:1039D000001F006840F020000249091F08602846C7
:1039E00070BD00000C28004070B585B005460C463F
:1039F00000943720019040200290002003904FF463
:103A0000806004906946284600F0B8FB41F2883295
:103A10003721284600F0BAF90646304605B070BD99
:103A200070B585B005460C460B4820430090292010
:103A3000019040200290002003904FF48060049099
:103A40006946284600F09AFB284600F0A7FA064689
:103A5000304605B070BD00000000108070B585B024
:103A600005460C4600941020019040200290002052
:103A700003904FF4806004906946284600F07EFB76
:103A800041F288321021284600F080F9064630467F
:103A900005B070BD30B585B004460020009001909F
:103AA000029003904FF4806004906946204600F035
:103AB00065FB204600F04AF90546284605B030BDB2
:103AC00030B585B004464FF4D570009008200190C1
:103AD00040200290002003904FF4806004906946DB
:103AE000204600F04BFB204600F0E0FA0546284651
:103AF00005B030BD70B585B005460C460094122067
:103B0000019040200290002003904FF480600490C8
:103B10006946284600F032FB41F2883212212846DD
:103B200000F034F90646304605B070BD70B585B07A
:103B300005460C4600941120019040200290002080
:103B400003904FF4806004906946284600F016FB0D
:103B500041F288321121284600F018F90646304615
:103B600005B070BDF0B585B0064614461D460094FC
:103B70000720019040200290002003904FF48060C5
:103B800004906946304600F0F9FA41F28832072184
:103B9000304600F0FBF80746384605B0F0BD30B5BA
:103BA00085B004460020009002200190C0200290C1
:103BB000002003904FF4806004906946204600F096
:103BC000DDFA204600F0B8F90546284605B030BDBC
:103BD00070B585B005460C46009409200190C020C0
:103BE0000290002003904FF48060049069462846BC
:103BF00000F0C4FA284600F09FF90646304605B0AA
:103C000070BD70B585B005460C4600940D2001903E
:103C100040200290002003904FF480600490694699
:103C2000284600F0ABFA41F288320D21284600F018
:103C3000ADF80646304605B070BD70B585B0054696
:103C40000C460020009003200190402002900020AC
:103C500003904FF4806004906946284600F08EFA85
:103C600022460321284600F0C5F90646304605B035
:103C700070BD000030B585B00446002000900C20D7
:103C8000019040200290002003904FF48060049047
:103C90006946204600F072FA044A0C21204600F0E2
:103CA00075F80546284605B030BD000000E1F50571
:103CB00070B585B005460C4600941920019040204F
:103CC0000290002003904FF48060049069462846DB
:103CD00000F054FA41F288321921284600F056F8D3
:103CE0000646304605B070BD70B585B005460C4639
:103CF00000941820019040200290002003904FF47F
:103D0000806004906946284600F038FA41F2883213
:103D10001821284600F03AF80646304605B070BD36
:103D200010B5024600230868506248689062D1E9E5
:103D3000020420430C6920434C6920430343D06AAA
:103D400020F0F7001843D062002010BD01460E4855
:103D50000068C0084FF47A73B0FBF3F041F2883387
:103D600000FB03F200BF101EA2F1010202D14FF0CE
:103D700000407047486B00F080000028F3D0C52059
:103D800088630020F5E70000280000202DE9F043BB
:103D900005460F46904666480068C0084FF47A71A1
:103DA000B0FBF1F000FB08F900BFB9F10000A9F188
:103DB000010903D14FF00040BDE8F0836E6B06F0BF
:103DC00045000028F1D006F400600028EDD1686BB2
:103DD00000F0040010B10420A863EDE7686B00F068
:103DE000010010B10120A863E6E7C520A8632846BA
:103DF00000F092F9B84201D00120DDE70021284609
:103E000000F093F904464B48204008B90020D3E75E
:103E100004F00040B0F1004F02D14FF00070CBE74A
:103E200004F08040B0F1804F01D14020C4E704F09D
:103E30000050B0F1005F01D18020BDE704F0805058
:103E4000B0F1805F02D14FF48070B5E704F00060FC
:103E5000B0F1006F02D14FF40070ADE704F0806064
:103E6000B0F1806F02D14FF48060A5E704F080705C
:103E7000B0F1807F02D14FF400609DE704F40000B0
:103E8000B0F5000F02D14FF4805095E704F48000A4
:103E9000B0F5800F02D14FF400508DE704F400100C
:103EA000B0F5001F02D14FF4804085E704F4801084
:103EB000B0F5801F02D14FF400407DE704F480206C
:103EC000B0F5802F02D14FF4003075E704F40030D4
:103ED000B0F5003F02D14FF480206DE704F480304C
:103EE000B0F5803F02D14FF4002065E704F40040B4
:103EF000B0F5004F02D14FF480105DE704F480402C
:103F0000B0F5804F02D14FF4001055E704F4005093
:103F1000B0F5005F02D14FF480004DE704F00800D7
:103F2000082801D1000547E74FF4803044E700003E
:103F30002800002008E0FFFD10B501461648006883
:103F4000C0084FF47A74B0FBF4F041F2883400FBFF
:103F500004F300BF181EA3F1010302D14FF000408B
:103F600010BD4A6B02F045000028F3D002F4006057
:103F70000028EFD1486B00F0040010B104208863E2
:103F8000EEE7486B00F0010010B101208863E7E71D
:103F9000C52088630020E3E72800002010B5014613
:103FA00013480068C0084FF47A74B0FBF4F041F293
:103FB000883400FB04F300BF181EA3F1010302D1F3
:103FC0004FF0004010BD4A6B02F045000028F3D0CE
:103FD00002F400600028EFD1486B00F0040010B13B
:103FE00004208863EEE7C52088630020EAE700002C
:103FF000280000202DE9F04304460F4690462A4849
:104000000068C0084FF47A71B0FBF1F041F28831DA
:1040100000FB01F900BFB9F10000A9F1010903D1CA
:104020004FF00040BDE8F083666B06F045000028C5
:10403000F1D006F400600028EDD1606B00F00400C0
:1040400010B10420A063EDE7606B00F0010010B137
:104050000120A063E6E7204600F05EF8B84201D0F8
:104060000120DFE7C520A0630021204600F05DF8B5
:10407000054605F4604020B9280CA8F8000000208F
:10408000D0E705F48040B0F5804F02D14FF40050E6
:10409000C8E705F40040B0F5004F02D14FF480505E
:1040A000C0E74FF48030BDE72800002010B501467E
:1040B00018480068C0084FF47A74B0FBF4F041F27D
:1040C000883400FB04F300BF181EA3F1010302D1E2
:1040D0004FF0004010BD4A6B02F045000028F3D0BD
:1040E00002F400600028EFD1486B00F0040010B12A
:1040F00004208863EEE7486B00F0010010B1012056
:104100008863E7E7486B00F0400008B1402088630F
:104110000020DFE72800002001460869C0B2704790
:104120000146086800F003007047024602F11400DF
:104130004318186870470FB410B50446002104985E
:104140000143059A03981043069A1043079A1043B7
:10415000089A10430143606847F6FF6290430843A2
:104160006060002010BC5DF814FB10B5044603200D
:1041700020600220FCF7BAFD002010BD10B50246F9
:10418000002308689060D1E901042043CC682043F3
:104190000C6920430343D0686FF30B001843D060D1
:1041A000002010BD10B50446012007490870FCF737
:1041B00035FA28B90448007820F001000249087057
:1041C0000148007810BD00000C00002070B50446C6
:1041D00000F0B9FF054604E0FCF720FA08B900201A
:1041E00070BD00F0B0FF401BA042F5D34FF0FF3090
:1041F000F6E700002DE9F0410646B46A206CC76B73
:10420000E06BD0F83C80012F02D0B8F1010F1FD134
:104210001248216888632068C06B20F49D70216873
:10422000C863A06B40F08040A0632046FEF763FCAB
:104230000546062D01D0052D05D12068FFF71AFD92
:10424000A16B0843A063012084F8340000202063A0
:104250002046FEF757FBBDE8F0810000FF05400057
:1042600070B50646B46A206B82280AD12068FFF731
:1042700001FD05462DB1A06B2843A0632046FEF743
:1042800041FB2068C06A20F008002168C86240F243
:104290003A5021688863012084F8340000202063AC
:1042A0002046FEF7C3FD70BD0146886A0268D26BE6
:1042B00042F480720368DA63704730B58FB0044609
:1042C000012003902068FFF72BFF18B94FF08060A2
:1042D0000FB030BD606C03281BD02068FFF75FFC77
:1042E00005460DB12846F3E700212068FFF71DFFC2
:1042F000606704212068FFF718FFA0670821206885
:10430000FFF713FFE0670C212068FFF70EFF802105
:104310000851606C032807D003A92068FFF78DFCC3
:1043200005460DB12846D3E7606C032820D0BDF8C0
:104330000C1021655022125B11042068FFF748FC25
:1043400005460DB12846C3E700212068FFF7EDFEC2
:10435000606604212068FFF7E8FEA0660821206857
:10436000FFF7E3FEE0660C212068FFF7DEFE206722
:1043700004212068FFF7D9FE010DE16404A920465D
:10438000FEF7C2FA10B14FF08050A1E75020005B59
:1043900001040A4600232068FFF7E4FB05460DB13F
:1043A000284695E7D4E90412A069CDE900120290ED
:1043B00094E80F00FFF7BFFE002089E7F8B5044638
:1043C00000200090002600272068FFF763FB0546C9
:1043D0000DB12846F8BD2068FFF772FB054645B1D0
:1043E0000021A1642068FFF755FB05461DB1284652
:1043F000F0E70121A164A06C012808D10021206808
:10440000FFF7F2FA054615B14FF08050E2E71DE0E4
:1044100000212068FFF7E8FA05460DB12846D9E7E4
:1044200018492068FFF7FCFA054615B14FF0805097
:10443000D0E700212068FFF778FE0646012080EAD9
:10444000D67080F001070098401C00904FF6FF7175
:104450000098884201D2002FDAD04FF6FF71009801
:10446000884202D34FF08070B4E706F08040B0F18C
:10447000804F02D10120606401E0002060640020D0
:10448000A8E70000000010C170B504460D4615B93C
:104490004FF0006070BD5022125B11042068FFF7DE
:1044A000B0FB06460EB13046F4E700212068FFF766
:1044B0003CFE28600020EDE71FB5044601201649A8
:1044C000087000F032FE10B3FCF7B4F820B92046B3
:1044D000FFF768FE104908700F480078012816D0D1
:1044E0000E48006850B90E4B0FCB8DE80F0000212D
:1044F000684600F032FE0949086000BF07480068BE
:1045000028B90548007840F00100034908700248C6
:10451000007804B010BD00000C0000201000002046
:10452000086D0008F0B589B007460D46144601260F
:104530001648007800F0010010B1032009B0F0BD6A
:1045400035B1012D06D0022D0BD0032D18D10FE06F
:10455000002617E001A8FCF757F80798206000260E
:1045600010E001A8FCF750F808982080002609E028
:1045700001A8FCF749F80898400A2060002601E0ED
:10458000042600BF00BF3046D8E700000C00002022
:104590002DE9F04786B082460E46174698464FF002
:1045A000010947F23050FFF711FE002803DA4846B0
:1045B00006B0BDE8F087424639463046FCF756F86B
:1045C000054615BB47F2305211480168684600F0B5
:1045D000D9FD9DE8070003AB07C30398102814D149
:1045E0000498012811D100F0AEFD044605E0FCF767
:1045F00015F810B94FF0000906E000F0A4FD001B0B
:1046000047F230518842F2D300BF4846D0E700005D
:104610001000002010B504462046FFF7C3FD10BD72
:104620002DE9F04387B081460D4616461F464FF0F0
:10463000010847F23050FFF7C9FD002803DA404671
:1046400007B0BDE8F0833A4631462846FCF72CF81F
:1046500010BB47F230521148016801A800F092FDEA
:1046600001A807C804AB07C30498102814D1059803
:10467000022811D100F067FD044605E0FBF7CEFFEC
:1046800010B94FF0000806E000F05DFD001B47F296
:1046900030518842F2D300BF4046D1E710000020DD
:1046A00010B500BF502080F31188BFF34F8FBFF3C8
:1046B0006F8F00BF02F018F918B14FF08050044915
:1046C000086000BF002080F3118800BF10BD00000B
:1046D00004ED00E01048006840F470000E490860E6
:1046E0000E48006840F001000C4908600020886016
:1046F000084600680A490840084908608814C860EC
:104700000846006820F48020086000208861C80303
:10471000014980390860704788ED00E000100240D0
:10472000FFFFF6EA10B50248FEF793FC10BD00004B
:10473000B004002010B50268184B984202D0B0F1C6
:10474000804F03D122F070024B681A43134B9842FA
:1047500008D0B0F1804F05D0114B984202D0114BD8
:10476000984203D122F44072CB681A4322F08003AE
:104770004C6943EA040202608B68C3620B6883627F
:10478000064B984205D0064B984202D0054B984202
:1047900001D10B6903630123436110BD002C01406B
:1047A000004001400044014090F8241001F0010154
:1047B00039B10168496821F40031826A1143026805
:1047C000516090F8241001F00201022907D101681C
:1047D000496821F48031C26A11430268516090F83F
:1047E000241001F00401042907D10168496821F46B
:1047F0008021026B11430268516090F8241001F08F
:104800000801082907D10168496821F40041426B79
:1048100011430268516090F8241001F01001102932
:1048200007D10168896821F48051826B11430268C5
:10483000916090F8241001F02001202907D101682F
:10484000896821F40051C26B11430268916090F8AD
:10485000241001F04001402913D10168496821F476
:104860008011026C114302685160016CB1F5801F28
:1048700007D10168496821F4C001426C1143026804
:10488000516090F8241001F08001802907D101685F
:10489000496821F40021826C11430268516070471D
:1048A00038B504460020E067FCF726FB0546206883
:1048B000006800F0080008280CD16FF07E402B46FD
:1048C00000224FF400110090204600F0A4F908B136
:1048D000032038BD2068006800F0040004280CD1D3
:1048E0006FF07E402B4600224FF48001009020465E
:1048F00000F091F908B10320EBE720206067A06782
:1049000000BF002084F8700000BF00BFE1E7000096
:104910002DE9F84F044600200090B64920688842EF
:1049200000D100E000BF2169A06808436169084325
:10493000E16940EA010A20680068AF49084040EA9E
:104940000A00216808602068406820F44050E1684F
:10495000084321684860D4F818A0A6492068884216
:1049600002D0206A40EA0A0A2068806820F4306099
:1049700040EA0A002168886000BFA0492068884298
:1049800016D19F48006800F0030030B1012808D01C
:10499000022804D0032808D105E0012507E00225FC
:1049A00005E0042503E0082501E0102500BF54E0E0
:1049B00094492068884216D19148006800F00C00A4
:1049C00030B1042808D0082804D00C2808D105E00C
:1049D000002507E0022505E0042503E0082501E0A5
:1049E000102500BF39E088492068884216D18448E4
:1049F000006800F0300030B1102808D0202804D022
:104A0000302808D105E0002507E0022505E004254F
:104A100003E0082501E0102500BF1EE0754920686D
:104A2000884219D17648006800F4406048B1B0F57A
:104A3000806F0AD0B0F5006F05D0B0F5406F08D197
:104A400005E0002507E0022505E0042503E0082530
:104A500001E0102500BF00E0102500BF6549206877
:104A600088424AD135B1022D08D0042D08D0082D36
:104A70000DD109E0FDF790F906460CE0634E0AE01F
:104A8000FDF7AEF9064606E04FF4004603E00026C7
:104A90000120009000BF00BF002E0AD0606800EB2C
:104AA0004000B04203D860680003B04202D2012047
:104AB000009098E002220023D4F804C06046194612
:104AC000FBF744FC4FF48072A6FB02238718594180
:104AD000D4F804C0624600233846FBF737FC814611
:104AE000B9F5407F06D3B9F5801F03D22068C0F81E
:104AF0000C9078E00120009075E0E069B0F5004F7F
:104B00003CD1092D17D2DFE805F005090D160F1667
:104B100016161300FDF740F9064610E0FDF74EF9B2
:104B200006460CE0394E0AE0FDF75AF9064606E063
:104B30004FF4004603E000260120009000BF00BFB4
:104B40007EB37000616800EB5100B0FBF1F01FFA1A
:104B500080F9B9F1100F0ED3B9F5803F0BD24FF6A3
:104B6000F07009EA000BC9F342004BEA000B206821
:104B7000C0F80CB037E00120009034E0092D18D2C5
:104B8000DFE805F005090D17101717171400FDF7DA
:104B900003F9064611E0FDF711F906460DE01B4E3C
:104BA0000BE020E0FDF71CF9064606E04FF4004656
:104BB00003E000260120009000BF00BF9EB16068A6
:104BC00006EB50006168B0FBF1F01FFA80F9B9F113
:104BD000100F06D3B9F5803F03D22068C0F80C90BF
:104BE00001E001200090002020666066009800F03F
:104BF0000FB8000000800040F369FFEF003801406B
:104C00008810024000440040004800400024F400A6
:104C100018BCBDE8E08F2DE9F04104460D4617466B
:104C20009846069E45E0701C002842D0FCF764F9C7
:104C3000A0EB0800B04200D8B6B92068006820F4A4
:104C4000D070216808602068806820F00100216829
:104C5000886020206067A06700BF002084F8700093
:104C600000BF0320BDE8F0812068006800F0040068
:104C7000F8B12068C069C0F3C020D0B14FF4006023
:104C8000216808622068006820F4D07021680860FC
:104C90002068806820F0010021688860202060671B
:104CA000A067E06700BF002084F8700000BF032009
:104CB000D8E72068C0692840A84201D1012000E05F
:104CC0000020B842AFD00020CCE700BFFEE70000D4
:104CD00000B587B0142102A8FBF726FC0020019044
:104CE0001C481D490860002048607F211A488160E7
:104CF000FF21C1600021016141618161C161FDF756
:104D000099FC08B1FBF71FFD00208DF808008DF815
:104D100009008DF80A0005900690012202A90E48AC
:104D2000FDF758FD08B1FBF70EFD01208DF80400DA
:104D30008DF805008DF8060000208DF8070001228F
:104D400001A90548FDF7E0FC08B1FBF7FCFC07B042
:104D500000BD000000280040B400002010B50D4840
:104D60000D4908601020486000210B488160C16037
:104D70004FF4403101610901416100210176417622
:104D80008176C17601774177FBF73DFE08B1FBF7ED
:104D9000DAFC10BD006400408C00002000B587B034
:104DA000142102A8FBF7C0FB00BF2648C06C40F0EE
:104DB00002002449C8640846C06C00F0020001905B
:104DC00000BF00BF0846C06C40F00100C864084640
:104DD000C06C00F00100019000BF00BF0846C06C2D
:104DE00040F00800C8640846C06C00F0080001905C
:104DF00000BF00BF0846C06C40F00400C86408460D
:104E0000C06C00F00400019000BF002210214FF0A0
:104E10009040FCF76BF880200290002003900490F3
:104E200002A90948FBF776FF1020029001200390A9
:104E300000200490059002A94FF09040FBF76AFF14
:104E400007B000BD001002400004004800F0C8F8A0
:104E500000BFFEE7064807490860002048600021BF
:104E600004488160C1600161416181617047000057
:104E700000280140D800002000B5AFB044211EA892
:104E8000FBF752FB142119A8FBF74EFB602101A888
:104E9000FBF74AFB18201E9001202390249000204D
:104EA0002590602026900220289001211EA8C16232
:104EB000016328214163072181630221C1630164E9
:104EC000FDF704F808B1FBF73EFC0F201990032012
:104ED0001A9000201B901C901D90042119A8FCF72B
:104EE00075FE08B1FBF72FFC1248019000200A90D4
:104EF0000B904FF400701890400414900120029021
:104F000001210391182104910721059102210691A5
:104F100007910105089101A8FCF76EFC08B1FBF7A9
:104F200012FC4FF40070FCF7D7F808B1FBF70BFC4C
:104F30002FB000BD06000A0010B50E480E490860EB
:104F40004FF4E130486000210B488160C16001618D
:104F50000C214161890181610021C1610162002050
:104F6000054948620846FEF760F908B1FBF7EBFB1C
:104F700010BD0000004400405C01002010B50D4849
:104F80000D4908604FF4E130486000210A48816013
:104F9000C16001610C21416100218161C161016237
:104FA0000020054948620846FEF73FF908B1FBF7C3
:104FB000CAFB10BD00480040DC01002000F039F8B9
:104FC00000BF012000F0A5F8FBE700BFFEE7704737
:104FD000FFF73CFF00BF012000F09BF8FBE700005B
:104FE0001CB50EA0006801906423022201A90C48A0
:104FF000FEF775FA10B101A8FFF7E9FF4FF4FA7058
:10500000FBF774FE074B032269460548FEF7D2F909
:1050100008B1FFF7DAFF00BFFEE7000041540000CF
:105020005C01002040420F0000BF012000F071F839
:10503000FBE700BFFEE7000002480068C0F3022063
:10504000704700000CED00E010B5002804DB0A07F3
:10505000130E054A135406E00A07140E034A00F023
:105060000F031B1FD45410BD00E400E018ED00E056
:1050700000BFEFF3058008B1012070470020FCE776
:1050800096B0FBF74BFFFFF7F7FEFFF787FEFFF742
:1050900065FEFFF7DFFEFEF791FAFFF74DFFFFF722
:1050A00017FEFFF76BFF1C2212490FA8FBF70AFA45
:1050B00000210FA800F0E8F80F4908601C220D49F4
:1050C0001C3108A8FBF7FEF9002108A800F0DCF865
:1050D0000A4908601C220749383101A8FBF7F2F998
:1050E000002101A800F0D0F80549086000F026F87A
:1050F00000BFFEE7A06C00080000002004000020B4
:105100000800002001460020842901D0CA1C104458
:10511000704770B5044625460DB1294600E00121CF
:10512000084600F0D3FD002070BD10B501F0BCFBB7
:10513000012801D1002010BD0120FCE710B500F0CE
:1051400021FE002010BD10B5FFF792FF10B101F055
:10515000C1FB10BD01F0B8FBFBE7F8B504460D46F6
:10516000A06840B1E06830B10020009094E80F00E2
:1051700000F092FFF8BD0022D4E9000100F05CFFCE
:10518000F8E700002DE9FF4107460D461446029559
:10519000002001903DB9802000909DE8070087E83D
:1051A000070000F03DB8002003900026601C08B9FD
:1051B000761E03E014B1264606B90126FFF758FF14
:1051C000B0B103AA01A9284601F02AFA012802D1A8
:1051D0001020009001E0002000900398B8B14FF03B
:1051E00080500E490860BFF34F8FBFF36F8F0EE002
:1051F000324601A9284601F05FF9012802D11020AA
:10520000009004E00EB9002000E0402000909DE8EE
:10521000070087E8070000BFC3E7000004ED00E0D7
:1052200003BCBDE8FC81000077B581B0064614469A
:1052300000200090254605B90125FFF719FFA8B108
:1052400000236A4602A9304601F0B6F8012802D0D0
:10525000FF2004B070BD009890B14FF08050094914
:105260000860BFF34F8FBFF36F8F09E000232A461A
:1052700002A9304600F0CCFF012801D0FF20E8E76A
:105280000020E6E704ED00E07FB504460D466069C6
:1052900098B1A06988B1B4F90800FFF733FF06465A
:1052A000D4E90510CDE9006102902B462269D4E9CA
:1052B000001001F098FA039013E0B4F90800FFF72A
:1052C00021FF064603A8CDE90060238A9AB22B4647
:1052D000D4E9001001F052FA012802D0002004B0F5
:1052E00070BD0398FBE700002DE9F04105460E462E
:1052F0001C4807681C480068001D00F0AFFB50B94F
:105300001948006890F82C10012088401749096856
:10531000814316480160681C38B936B112480168EB
:10532000091D134800F0E4FB1AE07C190E480068E0
:105330004460BC4207D20C480168091D0D48006852
:1053400000F0BCFB0CE008480168091D0A48006831
:1053500000F0B4FB09480068844201D207480460A9
:10536000BDE8F081400000202C0000204400002017
:10537000E405002034000020300000205C00002004
:1053800010B5044600F0C0FB23480068401C2249C9
:1053900008602248006840B9204804600846006858
:1053A00001280DD100F0A8F90AE01D48006838B9BD
:1053B0001A480068C06AE16A884201D81748046048
:1053C00018480068401C1749086094F82C10012008
:1053D000884015490968084313490860E16A01EBF0
:1053E0008101124A02EB8100211D00F081FB00F0D7
:1053F000B5FB0B48006868B108480068C06AE16AFC
:10540000884207D24FF0805009490860BFF34F8FA0
:10541000BFF36F8F10BD00003C0000202C00002067
:10542000480000205800002044000020080500200B
:1054300004ED00E010B516E000F066FB0C48C06813
:10544000C468201D00F00AFB0A480068401E094994
:10545000086009480068401E0749086000F07EFBAC
:10546000204600F05FF8044800680028E4D110BD31
:10547000D00500203C0000203800002070B5044614
:105480000D46206C70B1216CE0680144E160D4E904
:105490000210884201D32168E1602846226CE1684D
:1054A000FAF7CBFF70BD2DE9F04104460F461546D3
:1054B0004FF00008A66B206C48B9206800282CD15A
:1054C000A06801F0B5FA80460020A06025E07DB913
:1054D0003946226C6068FAF7B0FF216C60680844B6
:1054E0006060D4E90101884217D32068606014E04D
:1054F0003946226CE068FAF7A0FF216CE068411A97
:10550000E1602168E068884203D2216CA068411AFA
:10551000E160022D01D106B1761E701CA0634046E9
:10552000BDE8F08110B5044694F8510030B9206B05
:1055300000F032FB204600F02FFB1AE094F85100F7
:10554000012803D1204600F027FB12E094F8510017
:10555000022801D1012000E0002050B900BF5020F6
:1055600080F31188BFF34F8FBFF36F8F00BF00BF71
:10557000FEE710BD30B540F6B833174800F0070419
:105580002CB1C01D20F00700134C041B1B1B02464E
:10559000124C22600024114D6C60D018083820F0A5
:1055A00007000F4C206000240D4D2D686C600C4DE1
:1055B0002D682C601146441A4C60094C24680C601C
:1055C000084D4C682C60084D4C682C604FF000442E
:1055D000064D2C6030BD0000F8050020680000205A
:1055E0007000002078000020740000207C00002063
:1055F00000BFFFF71FFF064800680128F9D94FF0E8
:10560000805004490860BFF34F8FBFF36F8FF0E7FE
:105610000805002004ED00E02DE9F04106460D46A6
:1056200017469846069C0DB9246000E02760E663A3
:1056300025640121204600F09FFDBDE8F0812DE9A1
:10564000FF5F81460E469246DDE90E7B109CAAF173
:105650000100216B01EB800828F0070808F0070023
:1056600008B9012000E0002050B900BF502080F3AD
:105670001188BFF34F8FBFF36F8F00BF00BFFEE7EE
:1056800086B1002507E0715D04F134004155705D7D
:1056900000B902E06D1C102DF5D300BF002143209E
:1056A000015502E0002084F83400072F00D30627BC
:1056B000E76267640020A064201D00F0FCF904F19B
:1056C000180000F0F8F92461C7F10700A0616462D6
:1056D0000020E06484F8500049464046039A00F0F8
:1056E000A7F92060BBF1000F01D0CBF8004000F01B
:1056F00000B83FBCBDE8C09F10B5002407E004EB34
:1057000084010F4A02EB810000F0C8F9641C072CE9
:10571000F5D30C4800F0C2F90B4800F0BFF90B4874
:1057200000F0BCF90A4800F0B9F90A4800F0B6F9EF
:1057300004480949086004480849086010BD000091
:105740000805002094050020A8050020BC050020C5
:10575000D0050020E40500203000002034000020A7
:1057600010B50146164800E0006803688B42FBD381
:105770000246436813448B4204D143684C68234477
:10578000436001460A464B6813440468A34211D1A2
:105790000C4C03682468A34208D04B680468646812
:1057A00023444B6003681B680B6005E0054B1B68D6
:1057B0000B6001E003680B60884200D0016010BDFF
:1057C000680000207000002070B5054600F09CF9CC
:1057D000A86B08B9012400E0002400F0BFF92046BE
:1057E00070BD70B5054600F08FF9A86BE96B884273
:1057F00001D1012400E0002400F0B0F9204670BD82
:105800000A490968096809B9012100E0002121B1AC
:105810004FF0FF31064A116006E004490968C96883
:10582000C868034A416811607047000030000020DA
:105830005C0000200E480068401C08B9012000E010
:10584000002050B900BF502080F31188BFF34F8F64
:10585000BFF36F8F00BF00BFFEE700BF502080F393
:105860001188BFF34F8FBFF36F8F00BF00BFFEE7FC
:105870008000002070B5044600F046F994F94550C8
:1058800010E0606A08B9012000E0002038B904F196
:10589000240001F031F918B100F052FA00E003E001
:1058A000681E45B2002DECDC00BFFF2084F84500E7
:1058B00000F054F900F028F994F9445010E0206900
:1058C00008B9012000E0002048B904F1100001F0FF
:1058D00013F908B100F034FA681E45B200E001E0A7
:1058E000002DECDC00BFFF2084F8440000F036F906
:1058F00070BD00002DE9F04104464FF0000800F0B3
:1059000099FA4648006808B9FFF734FE4448006831
:10591000204000286BD1D4B1083404F00700B0B1A6
:1059200004F00700C0F10800044404F0070008B9BF
:10593000012000E0002050B900BF502080F3118802
:10594000BFF34F8FBFF36F8F00BF00BFFEE7002C88
:105950004DD034480068844249D8334E30460568FB
:1059600001E02E462D686868A04202D2286800280F
:10597000F7D12A480068854239D0306800F108081C
:10598000286830606868001B102819D92F1907F0A3
:10599000070008B9012000E0002050B900BF5020E6
:1059A00080F31188BFF34F8FBFF36F8F00BF00BF2D
:1059B000FEE76868001B78606C603846FFF7D0FE31
:1059C000184968680968081A164908600846006896
:1059D00016490968884203D21248006813490860D2
:1059E0000F4968680968084368600020286001F072
:1059F000CFF808F0070008B9012000E0002050B9F6
:105A000000BF502080F31188BFF34F8FBFF36F8F1B
:105A100000BF00BFFEE74046BDE8F08170000020F7
:105A20007C00002074000020680000207800002026
:105A3000001F4FF080730360001F21F0010303601B
:105A4000001F054B036014380260001F6FF0020353
:105A500003602038704700003558000801460A6985
:105A6000D1E901309860D1E901035860506888425B
:105A700001D188685060002008611068401E1060E5
:105A800010687047034B0360034B0B608023136067
:105A9000704700005C020020B002002000F1080105
:105AA00041604FF0FF31816000F10801C160016188
:105AB00000210160704700210161704710B5024666
:105AC0000B685C1C0CB9106907E002F1080000E0EB
:105AD0004068446824689C42FAD944684C604C6829
