:020000040800F2
:10000000601A00200D030008F1320008CD3200080C
:10001000ED320008E1060008DD4B0008000000009A
:100020000000000000000000000000002D02000899
:100030005507000800000000890200086945000813
:1000400027030008270300082703000827030008E8
:1000500027030008270300082703000827030008D8
:1000600027030008270300082703000827030008C8
:1000700027030008270300082703000827030008B8
:1000800027030008270300082703000815070008B6
:10009000E5060008F5060008050700082703000824
:1000A00027030008ED450008270300082703000880
:1000B00027030008000000000000000027030008DC
:1000C0002703000827030008270300082703000868
:1000D0002703000827030008270300082703000858
:1000E00027030008270300080000000000000000AC
:1000F0000000000000000000000000000000000000
:10010000000000002703000800000000270300088B
:10011000000000000000000027030008270300087B
:100120002703000827030008270300082703000807
:10013000270300080000000000000000000000008D
:1001400027030008270300082703000827030008E7
:1001500027030008270300082703000827030008D7
:1001600027030008270300082703000800000000F9
:1001700027030008270300082703000800000000E9
:1001800027030008270300082703000800F002F8EF
:1001900000F03CF80AA090E8000C82448344AAF1E5
:1001A0000107DA4501D100F031F8AFF2090EBAE8E3
:1001B0000F0013F0010F18BFFB1A43F0010318479B
:1001C000BC690000DC690000103A24BF78C878C11F
:1001D000FAD8520724BF30C830C144BF04680C604D
:1001E000704700000023002400250026103A28BF95
:1001F00078C1FBD8520728BF30C148BF0B60704799
:100200001FB506F043FC1FBD10B510BD00F0B6F9D8
:100210001146FFF7F5FF04F031FE00F0D4F903B406
:10022000FFF7F2FF03BC00F0DBF900002C4B19686C
:10023000086800F05AB880F30988BFF36F8F4FF059
:10024000000080F311887047000000000848006833
:10025000006880F308884FF0000080F3148862B6CD
:1002600061B6BFF34F8FBFF36F8F00DF00BF00BFDA
:1002700008ED00E0DFF80C00016841F47001016056
:10028000704700BF88ED00E0EFF30980BFF36F8F88
:10029000134B1A681EF0100F08BF20ED108A20E9DA
:1002A000F04F106009B44FF0500080F31188BFF395
:1002B0004F8FBFF36F8F05F0C1FC4FF0000080F34C
:1002C000118809BC1968086800F014B81EF0100FF6
:1002D00008BF00F014B880F30988BFF36F8F704730
:1002E0002C000020EFF30580704730C8B0E8C04F05
:1002F000FFF7A1BF30C8B0E8C04FFFF7E7BFB0ECD1
:10030000088AB0EC08CAFFF7E6BF0000094880473A
:1003100009480047FEE7FEE7FEE7FEE7FEE7FEE7E7
:10032000FEE7FEE7FEE7FEE704480549054A064BFF
:10033000704700009D4500088D01000860140020F2
:10034000601A0020601600206016002053EA020C9C
:1003500000F069802DE9F04B4FF00006002B1FBF25
:10036000B3FA83F503FA05F424FA05F65E4012BFEA
:100370001643B2FA82F502FA05F4C5F120051EBF54
:1003800022FA05FC44EA0C04203556EA044C4FEAF4
:10039000144418BF641C4FF000084FF0000990424D
:1003A00071EB030C39D3002919BFB1FA81F701FAB7
:1003B00007F6B0FA80F700FA07F6C7F120071EBF6C
:1003C00020FA07FC46EA0C062037B6FBF4FCA7EB44
:1003D0000507103F07F01F0BCBF120060CFA0BFBB3
:1003E0002CFA06F644BFB3460026202FA4BF5E4673
:1003F0004FF0000B5BEA060C08BF4FF0010B19EB46
:100400000B09ABFB027C48EB0608C01B06FB02CCC9
:100410000BFB03CC71EB0C01C1E70B4602464146D6
:100420004846BDE8F08B13B54FF000004FF00001D7
:10043000AFF30080BDE81C407047032A40F23080D3
:1004400010F0030C00F0158011F8013BBCF1020F15
:10045000624498BF11F801CB00F8013B38BF11F896
:10046000013BA2F1040298BF00F801CB38BF00F8AD
:10047000013B11F0030300F02580083AC0F008802A
:1004800051F8043B083A51F804CBA0E80810F5E70E
:10049000121D5CBF51F8043B40F8043BAFF30080F1
:1004A000D20724BF11F8013B11F801CB48BF11F866
:1004B000012B24BF00F8013B00F801CB48BF00F836
:1004C000012B704710B5203AC0F00B80B1E81850EE
:1004D000203AA0E81850B1E81850A0E81850BFF42E
:1004E000F5AF5FEA027C24BFB1E81850A0E81850CD
:1004F00044BF18C918C0BDE810405FEA827C24BF21
:1005000051F8043B40F8043B08BF7047D20728BFAE
:1005100031F8023B48BF11F8012B28BF20F8023BFD
:1005200048BF00F8012B70474FF0000200B513469A
:1005300094469646203922BFA0E80C50A0E80C5003
:10054000B1F12001BFF4F7AF090728BFA0E80C50B4
:1005500048BF0CC05DF804EB890028BF40F8042BAD
:1005600008BF704748BF20F8022B11F0804F18BF1A
:1005700000F8012B7047704770477047754600F0D0
:100580002BF8AE4605006946534620F00700854625
:1005900018B020B5FFF7C8FEBDE820404FF00006B8
:1005A0004FF000074FF000084FF0000B21F007015B
:1005B000AC46ACE8C009ACE8C009ACE8C009ACE89E
:1005C000C0098D46704710B50446AFF30080204641
:1005D000BDE81040FFF723BE00487047001400201C
:1005E00001491820ABBEFEE726000200704700005C
:1005F00010B501246103034800F078FC00B1002429
:10060000204610BD0008004810B5044621460248A7
:1006100002F038FA10BD0000B400002010B5044804
:1006200002F043FA042801D0012010BD0020FCE7AD
:10063000B400002010B5002400F014F8012801D007
:10064000022010BD064802F042FA044634B94FF4C5
:100650000061034802F0CEF800B101242046F0E723
:10066000B400002008B501200090FFF7C1FF08B9D1
:10067000002000909DF8000008BD00002DE9F04129
:1006800004460D461646002733462A4621460448AE
:1006900002F014FB00B101273846BDE8F0810000EC
:1006A000B400002010B5002201210248006804F0C7
:1006B000B7FC10BD100000202DE9F04104460D46A6
:1006C0001646002733462A462146044802F08EFB90
:1006D00000B101273846BDE8F0810000B4000020D9
:1006E00000BFFEE710B5024800F06BF810BD000037
:1006F0008C00002010B5024800F063F810BD000027
:100700008C00002010B5024800F05BF810BD00001E
:100710008C00002010B5024800F053F810BD000016
:100720008C00002030B590F8444004F01C050124F2
:10073000AC40056C6C60046863608468102C04D164
:100740000468A2600468E16003E00468A1600468D2
:10075000E26030BD7047704730B504460D46002258
:100760002946204600F002F830BD0000F0B50346EF
:10077000012500241148407A01281CDA00200F4E80
:10078000767A0E4FB8553846467A001D40F8263026
:10079000001F467A083082553E46707A461C7E72AB
:1007A000044604F1300008703A2048702F20887009
:1007B0000020C87000252846F0BD00004C0700202E
:1007C00070472DE9F05F04460025206846692068DF
:1007D000D0F80490206887682068D0F80CA02068C2
:1007E000D0F810B02068D0F8188006F0010000287A
:1007F00055D007F00100C0B101202168886007F0E2
:10080000020018B1204600F025FA0EE007F00400BF
:1008100010B145F4006508E007F0080010B145F498
:10082000805502E0204600F014FA07F48070C8B149
:100830004FF480702168886007F4007018B120467A
:1008400000F00AFA0EE007F4806010B145F400559C
:1008500008E007F4006010B145F4804502E020464E
:1008600000F0F9F907F48030C8B14FF48030216806
:10087000886007F4003018B1204600F0EFF90EE070
:1008800007F4802010B145F4004508E007F400208B
:1008900010B145F4803502E0204600F0DEF906F0A4
:1008A000080038B10AF0100020B145F4007510209E
:1008B0002168C86006F0040040B10AF0080028B1C1
:1008C00008202168C860204600F0BEF906F002004A
:1008D00038B12068C06800F0030010B1204600F075
:1008E000B4F906F0400038B10BF0100020B145F427
:1008F000806510202168086106F0200040B10BF0EF
:10090000080028B1082021680861204600F09EF9FF
:1009100006F0100038B12068006900F0030010B143
:10092000204600F094F906F4003040B109F01000C0
:1009300028B1102021684860204600F089F906F4AB
:10094000803040B109F0080028B1082021684860D3
:10095000204600F084F906F4004088B309F0040052
:1009600078B306F4807020B108F0010008B145F0BA
:10097000010506F4007020B108F0020008B145F04E
:10098000020506F4806020B108F0040008B145F0CB
:10099000040506F40060A0B108F0700088B108F00A
:1009A0007000402817D006DC10280BD020280CD06F
:1009B000302819D10CE0502810D0602814D110E054
:1009C0001DE019E045F008050FE045F010050CE0CA
:1009D00045F0200509E045F0400506E045F08005BA
:1009E00003E045F4807500E000BF00BF2068806927
:1009F00020F07000216888610420216848602DB1D2
:100A0000606A284360622046FFF7DAFE00F000B813
:100A100030BCBDE8C09F70B504460CB9012070BD64
:100A200094F8200010B9204600F0B0F82068006863
:100A300020F002002168086000F060FA05460DE031
:100A400000F05CFA401B0A2808D9606A40F40030C4
:100A50006062052084F820000120E0E720684068FB
:100A600000F002000028EBD12068006840F001008F
:100A70002168086000F042FA05460DE000F03EFAF9
:100A8000401B0A2808D9606A40F4003060620520E3
:100A900084F820000120C2E72068406800F00100CF
:100AA0000028EBD0207E012806D12068006840F0A5
:100AB00080002168086005E02068006820F0800060
:100AC00021680860607E012806D12068006840F037
:100AD00040002168086005E02068006820F04000C0
:100AE00021680860A07E012806D12068006840F0D7
:100AF00020002168086005E02068006820F02000E0
:100B000021680860E07E012806D12068006820F096
:100B100010002168086005E02068006840F01000BF
:100B200021680860207F012806D12068006840F015
:100B300008002168086005E02068006820F00800CF
:100B400021680860607F012806D12068006840F0B5
:100B500004002168086005E02068006820F00400B7
:100B600021680860D4E902010843216908436169EA
:100B700008436168491E08432168C861002060621B
:100B8000012084F82000002049E7000010B586B05D
:100B90000446142101A8FFF7C7FC284920688842B1
:100BA00049D100BF2648806D40F000702449886517
:100BB0000846806D00F00070009000BF00BF00BFCD
:100BC0000846C06C40F00200C8640846C06C00F0E3
:100BD0000200009000BF00BF4FF44070019002205F
:100BE000029000200390032004900920059001A9A1
:100BF000144800F097F800221146132000F018FA6C
:100C0000132000F001FA00221146142000F010FA1F
:100C1000142000F0F9F900221146152000F008FA1E
:100C2000152000F0F1F900221146162000F000FA1C
:100C3000162000F0E9F906B010BD00000064004085
:100C4000001002400004004870477047704770472A
:100C500070477047704770477047704770477047DC
:100C60002DE9F04104460D4616461F464FF0000898
:100C700000BF94F82400012802D10220BDE8F081D1
:100C8000012084F8240000BF94F8250001282CD10D
:100C9000022084F825000020E0632068006820F02E
:100CA0000100216808603B46324629462046FFF78E
:100CB00039FD206B30B12068006840F00E002168DB
:100CC00008600BE02068006820F0040021680860DC
:100CD0002068006840F00A00216808602068006809
:100CE00040F001002168086006E000BF002084F8A1
:100CF000240000BF4FF002084046BFE770B504462D
:100D000000F0FCF806462546681C10B1044800783F
:100D1000054400BF00F0F2F8801BA842FAD370BD72
:100D20002400002078B503460022CBE0012696403F
:100D30000D6805EA0604002C72D04D68012D08D01C
:100D40004D68022D05D04D68112D02D04D68122D31
:100D500013D1986856000325B540A8435600CD68C6
:100D6000B54028439860586801259540A8430D79FF
:100D7000C5F30015954028435860D86856000325F0
:100D8000B540A84356008D68B5402843D8604D68EB
:100D9000022D02D04D68122D13D1D60803F1200583
:100DA00055F826005507EE0E0F25B540A843560707
:100DB000F60E0D69B5402843D60803F1200545F825
:100DC0002600186856000325B540A8430D7905F0A4
:100DD00003055600B540284318604D6805F080555E
:100DE000B5F1805F6DD100BF394D2D6E45F0010525
:100DF000374E356635462D6E05F00105009500BF6E
:100E000000BF4FEAB635960855F8260095072E0F15
:100E10000F25B540A843B3F1904F02D1002515E04E
:100E20004FE02C4DAB4201D101250FE02A4DAB42E2
:100E300001D102250AE0294DAB4201D1032505E08D
:100E4000274DAB4201D1042500E007259607360F58
:100E5000B5402843234D960845F82600224D2868C2
:100E6000A0434D6805F48035B5F5803F00D120439F
:100E70001D4D28602D1D2868A0434D6805F40035E0
:100E8000B5F5003F00D12043174D2D1D28602D1DC5
:100E90002868A0434D6805F48015B5F5801F00D182
:100EA0002043114D083528602D1D2868A0434D684A
:100EB00005F40015B5F5001F00D120430A4D0C358F
:100EC0002860521C0D68D540002D7FF42FAF78BDEF
:100ED000001002400004004800080048000C0048D0
:100EE0000010004808000140000401400246136958
:100EF0000B400BB1012000E0002070470148006862
:100F0000704700001C00002003480068034909786E
:100F100008440149086070471C000020240000209C
:100F200010B50024032000F0C5F8002000F008F8F8
:100F300008B1012401E000F047F8204610BD000090
:100F400070B588B0044600250026002221461920ED
:100F500000F06EF8192000F057F800BF1648006E38
:100F600040F40060144908660846006E00F4006012
:100F7000019000BF00BF02A903A800F0C5FF00F068
:100F8000FDFF05460D48B5FBF0F0461E0C480D4927
:100F9000086040F2E7310B48C16046600021016102
:100FA000816001F0BAFF20B9064801F0EFFF08B0F8
:100FB00070BD0120FBE700000010024040420F001E
:100FC000002C01400007002008B500BF0D48006E4E
:100FD00040F001000B4908660846006E00F0010071
:100FE000009000BF00BF00BF0846806D40F08050F9
:100FF00088650846806D00F08050009000BF00BFFB
:1010000008BD0000001002400146084600280DDB24
:1010100000BF00BF00F01F0301229A4043099B005C
:1010200003F1E023C3F8002100BF00BF00BF7047F9
:101030002DE9F05F80460D461646002703F0FAFEC4
:10104000074639462A46334601F00700C0F1070A31
:10105000BAF1040F02D94FF0040A01E0C0F1070A07
:10106000D14600F1040ABAF1070F02D24FF0000A8C
:1010700001E0A0F1030AD4464FF0010A0AFA09FA86
:10108000AAF1010A0AEA020A0AFA0CFA4FF0010B65
:101090000BFA0CFBABF1010B0BEA030B4AEA0B0456
:1010A0002146404603F0CEFE00F000B830BCBDE85B
:1010B000C09F000000BF00F00702064B19684FF602
:1010C000FF031940044B0B4343EA0221014B196013
:1010D00000BF70470CED00E00000FA050246116801
:1010E0000120C2F8E802002082F8E00231F8540F33
:1010F00040F001000880088840F0020021F85409FF
:101100000020704730B585B0044614B9012005B001
:1011100030BD94F8A90228B9002084F8A80220461E
:1011200000F0A2F8032084F8A902206803F049FD2A
:10113000142204F110016846FFF7C4F994E80F0087
:1011400003F027FD20B1022084F8A9020120DEE788
:101150000021206803F03FFD002531E0012105EB6F
:10116000850204F1280000EBC200417005EB850107
:1011700004F1280000F8315005EB850100EBC100B7
:10118000C581002105EB850204F1280000EBC200B7
:10119000C17005EB850204F1280000EBC20001617B
:1011A00005EB850204F1280000EBC200416105EB6C
:1011B000850204F1280000EBC2008161681CC5B201
:1011C0006068A842CAD800252AE0002105EB850204
:1011D00004F5B47000EBC200417005EB850104F525
:1011E000B47000F83150002105EB850200EBC2001D
:1011F000C17005EB850204F5B47000EBC20001611B
:1012000005EB850204F5B47000EBC200416105EB0B
:10121000850204F5B47000EBC2008161681CC5B2A0
:101220006068A842D1D8142204F110016846FFF783
:1012300049F994E80F0003F0B9FC20B1022084F8CA
:10124000A902012063E7002084F82400012084F82B
:10125000A902E069012802D12046FFF73FFF20687C
:1012600003F09BFC002052E708B5094A016891424F
:101270000DD100BF0749896D41F08061054A916534
:101280001146896D01F08061009100BF00BF08BD6B
:1012900000680040001002400246B2F5007F2AD1EB
:1012A0001D48006800F4C060B0F5007F32D01A48D5
:1012B000006820F4C06040F40070174B18601748B5
:1012C000006832235843164BB0FBF3F0411C00E09A
:1012D000491E1148406900F48060B0F5806F01D16B
:1012E0000029F5D10C48406900F48060B0F5806FAA
:1012F00010D1032070470848006800F4C060B0F5C2
:10130000806F07D00448006820F4C06040F480601B
:10131000014B18600020EDE700700040280000201D
:1013200040420F000248006800F4C06070470000AF
:10133000007000402DE9F04707464FF00009B7F56F
:10134000003F2DD1F748006800F44074B4F5807F69
:1013500006D0B4F5007F0CD0B4F5407F1ED112E06A
:10136000F048006800F00200022801D14FF4004963
:1013700015E0EC48001D006800F00200022801D1D1
:101380004FF4FA490BE0E7489038006800F4003069
:10139000B0F5003F01D1DFF8909300E000BF03E318
:1013A000E0489038C06800F00308B8F1010F06D09B
:1013B000B8F1020F23D0B8F1030F38D12BE0D94890
:1013C0009038006800F00200022816D1D548903805
:1013D000006800F0080028B1D2489038006800F09A
:1013E000F00005E0CF48001D006800F470600009BF
:1013F0000009CE4951F8205000E0002519E0C94805
:101400009038006800F48060B0F5806F01D1C84D5D
:1014100000E000250DE0C3489038006800F400307B
:10142000B0F5003F01D1C34D00E0002501E00025EB
:1014300000BF00BFB7F5007F79D011DC202F77D037
:1014400006DC012F75D0022F74D0042F73D119E15F
:10145000402F71D0802F70D0B7F5807FF6D1F8E1A2
:10146000B7F5804F6AD009DCB7F5806F67D0B7F564
:10147000006F0DD0B7F5005FE8D110E0B7F5004F71
:1014800070D0B7F5802F0BD0B7F5002FDED108E074
:1014900029464FF4006001F02DFF814683E200BF32
:1014A00000BFA0480838006800F04064F4B3B4F10D
:1014B000806F58D0B4F1006F20D0B4F1406F7BD171
:1014C00098489038006800F00200022815D195482D
:1014D0009038006800F0080028B192489038006801
:1014E00000F0F00005E08F48001D006800F4706017
:1014F000000900098D4951F8209069E08948903829
:10150000006800F00070B0F1007F2AD18548903863
:10151000C06800F48010B0F5801F22D18148903857
:10152000C068C0F3062605FB06F009E045E0B3E11C
:10153000D4E04FE07AE035E245E167E10AE1E0E13D
:1015400078499039C968C1F30211491CB0FBF1F523
:1015500074489038C068C0F34150401C4000B5FB4F
:10156000F0F935E002E26F489038006800F0006062
:10157000B0F1006F1FD16B489038006900F4801003
:10158000B0F5801F17D1674890380069C0F3062670
:1015900005FB06F063499039C968C1F30211491C83
:1015A000B0FBF1F55F4890380069C0F34150401C32
:1015B0004000B5FBF0F90BE009E05A48083000683C
:1015C00000F00200022801D1DFF86C9100E000BFBA
:1015D00000BFE8E153480838006800F0030434B164
:1015E000012C08D0022C0AD0032C1CD112E000F0F0
:1015F000C5FC814618E000F0D3FC814614E0494860
:101600009038006800F48060B0F5806F01D1DFF899
:10161000209109E04348006800F00200022801D14F
:101620004FF4004900E000BF00BFBCE13D4808386E
:10163000006800F00C0434B1042C08D0082C0AD047
:101640000C2C1CD112E000F087FC814618E000F061
:10165000A7FC814614E033489038006800F48060AD
:10166000B0F5806F01D1DFF8C89009E02D4800681F
:1016700000F00200022801D14FF4004900E000BF51
:1016800000BF90E127480838006800F0300434B10A
:10169000102C08D0202C0AD0302C1CD112E000F0E5
:1016A0005BFC814618E000F07BFC814614E01D489D
:1016B0009038006800F48060B0F5806F01D1DFF8E9
:1016C000709009E01748006800F00200022801D17C
:1016D0004FF4004900E000BF00BF64E11148083842
:1016E000006800F440644CB1B4F5806F0AD0B4F5E2
:1016F000006F0BD0B4F5406F29D11FE000F02CFC37
:10170000814625E000F04CFC814621E005489038F8
:10171000006800F48060B0F5806F01D1DFF81090B0
:1017200016E000009010024090D00300286B0008E3
:101730000024F40000127A00006CDC029C4800686F
:1017400000F00200022801D14FF4004900E000BF80
:1017500000BF28E196480838006800F04054B4F112
:10176000805F06D0B4F1405F2AD100F019FC8146B9
:1017700027E08F489038006800F00060B0F1006FFB
:101780001DD18B489038006900F08070B8B188484E
:1017900090380069C0F3062605FB06F084499039AD
:1017A000C968C1F30211491CB0FBF1F580489038BB
:1017B0000069C0F34160401C4000B5FBF0F900E057
:1017C00000BF00BFEFE07A480838006800F44054DA
:1017D00034B1B4F5805F07D0B4F5005F13D107E0F2
:1017E00000F0BAFB81460FE000F0DAFB81460BE027
:1017F0006F489038006800F48060B0F5806F01D1C8
:10180000DFF8B09100E000BF00BFCCE068480838C6
:10181000006800F4404434B1B4F5804F07D0B4F50B
:10182000004F13D107E000F097FB81460FE000F076
:10183000B7FB81460BE05E489038006800F480609A
:10184000B0F5806F01D1DFF86C9100E000BF00BF00
:10185000A9E057480838006800F4403434B1B4F5C2
:10186000803F07D0B4F5003F13D107E000F074FBD0
:1018700081460FE000F094FB81460BE04C48903825
:10188000006800F48060B0F5806F01D1DFF824912A
:1018900000E000BF00BF86E045480838006800F45B
:1018A00040244CB1B4F5802F0AD0B4F5002F11D0EC
:1018B000B4F5402F22D118E000F04EFB81461EE027
:1018C0003B48001D006800F00200022801D14FF4DF
:1018D000FA4914E036489038006800F48060B0F5AA
:1018E000806F01D1DFF8CC9009E03148006800F04A
:1018F0000200022801D14FF4004900E000BF00BF00
:1019000051E02B480838006800F440144CB1B4F59D
:10191000801F0AD0B4F5001F11D0B4F5401F22D1AA
:1019200018E000F019FB81461EE02148001D006808
:1019300000F00200022801D14FF4FA4914E01C48DB
:101940009038006800F48060B0F5806F01D1DFF856
:10195000649009E01648006800F00200022801D1F6
:101960004FF4004900E000BF00BF1CE010480838F9
:10197000006800F080441CB1B4F1804F0FD103E047
:1019800000F0EAFA81460BE009489038006800F45C
:101990008060B0F5806F01D1DFF8189000E000BFE3
:1019A00000BF00E000BF00BF4846BDE8F087000070
:1019B000901002400024F4002DE9F843044600256D
:1019C000A846208800F40060B0F5006F26D1606C56
:1019D00068B1B0F5000F03D0B0F5400F0ED10CE0A8
:1019E000E848C06840F48030E649C86008E000215B
:1019F000201D01F00DFD054602E001E0012500BFBC
:101A000000BF55B9DF488830006820F44000616CA1
:101A10000843DC49C1F8880000E0A846206800F4CB
:101A20000030B0F5003F75D14FF00009D548806D0A
:101A3000012121EA107078B100BFD248806D40F0DA
:101A40008050D04988650846806D00F08050009035
:101A500000BF00BF4FF00109CB48006840F4807020
:101A6000C9490860FFF74AFA074606E0FFF746FA59
:101A7000C01B022801D9032505E0C348006800F413
:101A800080700028F2D000BF7DBBBE489030006857
:101A900000F44076CEB1E06DB04216D0B948903037
:101AA000006820F44076B748D0F8900040F48030C9
:101AB000B449C1F890000846D0F8900020F4803076
:101AC000C1F890000846C0F8906006F00100A8B187
:101AD000FFF714FA074609E0FFF710FAC01B41F2BE
:101AE0008831884202D9032507E016E0A5489030E6
:101AF000006800F002000028EED000BF5DB9A148E8
:101B00009030006820F44070E16D08439D49C1F8B1
:101B1000900003E00CE0A84600E0A846B9F1010FF0
:101B200005D19848806D20F080509649886500BFA7
:101B3000207800F0010048B192488830006820F019
:101B40000300216A08438F49C1F88800207800F01B
:101B50000200022809D18B488830006820F00C0070
:101B6000616A08438749C1F88800207800F00400C2
:101B7000042809D183488830006820F03000A16A29
:101B800008438049C1F88800207800F02000202810
:101B900009D17C488830006820F44060E16A08433D
:101BA0007849C1F88800208800F40070B0F5007F03
:101BB00009D174488830006820F44020E16B084364
:101BC0007049C1F88800208800F48060B0F5806F0B
:101BD00009D16C488830006820F44010216C08431B
:101BE0006849C1F88800207800F04000402809D1F9
:101BF00064488830006820F44050216B08436149F4
:101C0000C1F88800207800F08000802809D15D4864
:101C10008830006820F44040616B08435949C1F89E
:101C20008800208800F48070B0F5807F09D1554885
:101C30008830006820F44030A16B08435149C1F856
:101C40008800208800F40050B0F5005F1FD14D4897
:101C50008830006820F04060A16C08434949883111
:101C60000860A06CB0F1006F06D14648C06840F42F
:101C700080104449C8600AE0A06CB0F1806F06D1C2
:101C80000121201D01F0C4FB054605B1A8462068CE
:101C900000F40020B0F5002F1FD13A4888300068CA
:101CA00020F04060E16C0843364988310860E06C00
:101CB000B0F1006F06D13348C06840F4801031495C
:101CC000C8600AE0E06CB0F1806F06D10121201DF0
:101CD00001F09EFB054605B1A846206800F480206F
:101CE000B0F5802F1FD127488830006820F0406071
:101CF000216D0843234988310860206DB0F1006FE1
:101D000006D12048C06840F480101E49C8600AE02F
:101D1000206DB0F1806F06D10121201D01F078FB0C
:101D2000054605B1A846208800F48040B0F5804FF4
:101D300014D114488830006820F04050616D084389
:101D4000104988310860606DB0F1805F06D10221D2
:101D5000201D01F05DFB054605B1A846208800F472
:101D60000040B0F5004F09D106488830006820F0E7
:101D70008040A16D08430349C1F888004046BDE892
:101D8000F883000000100240007000402DE9F0418F
:101D900004460D4614B90120BDE8F081554800689D
:101DA00000F00700A8420ED25248006820F0070059
:101DB0002843504908600846006800F00700A84220
:101DC00001D00120E8E7207800F00100002840D091
:101DD0006068032806D14848006800F00070D8B950
:101DE0000120D9E76068022806D14348006800F462
:101DF000003088B90120CFE7606830B93E480068FC
:101E000000F0020040B90120C6E73B48006800F43A
:101E1000806008B90120BFE73748806820F00300E0
:101E20006168084334498860FFF768F8064608E0AF
:101E3000FFF764F8801B41F28831884201D9032002
:101E4000AAE72D48806800F00C006168B0EB810FB4
:101E5000EED1207800F00200022807D126488068E1
:101E600020F0F000A16808432349886021480068F9
:101E700000F00700A8420ED91E48006820F00700B5
:101E800028431C4908600846006800F00700A84283
:101E900001D0012080E7207800F00400042807D159
:101EA0001548806820F4E060E168084312498860C2
:101EB000207800F00800082808D10F48806820F436
:101EC0006050216940EAC1000B49886000F068F861
:101ED00009498968C1F30311084A515C01F01F01E7
:101EE000C8400749086007480068FFF729F8074617
:101EF000384651E70020024000100240106B0008F5
:101F000028000020200000200F2202600D4A926865
:101F100002F0030242600B4A926802F0F002826013
:101F2000084A926802F4E062C260064A926802F4CB
:101F30006052D2080261044A126802F007020A6085
:101F40007047000000100240002002400148006875
:101F5000704700002800002000B5FFF7F7FF054993
:101F60008968C1F30221044A515C01F01F01C84095
:101F700000BD000000100240206B000800B5FFF714
:101F8000E5FF05498968C1F3C221044A515C01F0AB
:101F90001F01C84000BD000000100240206B000877
:101FA000F0B500230020DFF8D4C0DCF808C00CF046
:101FB0000C01DFF8C8C0DCF80CC00CF0030719B145
:101FC0000C291ED1012F1CD1DFF8B0C0DCF800C0F5
:101FD0000CF0080CBCF1000F06D1DFF8A0C0DCF853
:101FE00094C0CCF3032305E0DFF890C0DCF800C018
:101FF000CCF30313DFF888C05CF8233041B91846EE
:1020000006E0042901D11F4802E0082900D11E483A
:102010000C2932D1DFF864C0DCF80CC00CF00304EA
:10202000012C09D0022C02D0032C04D101E0154A66
:1020300004E0154A02E000BF1A4600BF00BFDFF807
:102040003CC0DCF80CC0CCF3021C0CF10106DFF83C
:102050002CC0DCF80CC0CCF3062C0CFB02FCBCFB47
:10206000F6F2DFF818C0DCF80CC0CCF3416C0CF1D0
:10207000010C4FEA4C05B2FBF5F0F0BD0010024038
:10208000286B00080024F40000127A002DE9F843C0
:10209000044614B90120BDE8F883F948806800F0CF
:1020A0000C06F748C06800F00307207800F0100025
:1020B000102877D11EB10C2E76D1012F74D1F048A3
:1020C000006800F0020018B1A06908B90120E2E739
:1020D000EB48216A006800F0080020B1E848006879
:1020E00000F0F00005E0E6489430006800F470600D
:1020F000000981421FD9206A01F04EFA08B101207F
:10210000C9E700BFDE48006840F00800DC4908600D
:102110000846006820F0F000216A0843D8490860AA
:1021200000BF0846406820F47F40E16940EA012092
:10213000D34948601FE000BFD148006840F0080064
:10214000CF4908600846006820F0F000216A084383
:10215000CB49086000BF0846406820F47F40E16931
:1021600040EA0120C64948602EB9206A01F014FAFD
:1021700008B101208FE7FFF713FFC1498968C1F358
:102180000311C04A515C01F01F01C840BE490860FC
:10219000BE480068FEF7D4FE8046B8F1000F4ED06E
:1021A000404678E74BE0FFE7A06980B3B448006899
:1021B00040F00100B2490860FEF7A0FE054606E0C7
:1021C000FEF79CFE401B022801D9032063E7AC48C0
:1021D000006800F002000028F2D000BFA8480068A4
:1021E00040F00800A64908600846006820F0F000AA
:1021F000216A0843A249086000BF0846406820F4ED
:102200007F40E16940EA01209D49486017E0FFE70F
:102210009B48006820F0010099490860FEF76EFEB7
:10222000054606E0FEF76AFE401B022801D903209E
:1022300031E79348006800F002000028F2D12078CE
:1022400000F0010000285CD0082E03D00C2E0AD12B
:10225000032F08D18A48006800F4003088B3606812
:1022600078BB012017E700BF6068B0F5803F06D15A
:102270008348006840F48030814908601AE0606853
:10228000B0F5A02F0BD17E48006840F480207C4937
:1022900008600846006840F4803008600AE078482A
:1022A000006820F48030764908600846006820F411
:1022B0008020086000BF606890B1FEF71FFE0546F1
:1022C00007E01EE0FEF71AFE401B642801D9032038
:1022D000E1E66B48006800F400300028F2D010E01E
:1022E000FEF70CFE054606E0FEF708FE401B6428DC
:1022F00001D90320CFE66248006800F400300028CE
:10230000F2D1207800F00200022852D1042E03D02E
:102310000C2E14D1022F12D15948006800F48060AD
:1023200018B1E06808B90120B5E65548406820F0CA
:10233000FE40217C40EA01605149486039E0E06894
:1023400000B34F48006840F480704D490860FEF7C4
:10235000D5FD054606E0FEF7D1FD401B022801D958
:10236000032098E64648006800F480600028F2D018
:102370004348406820F0FE40217C40EA016040492B
:10238000486016E03E48006820F480703C490860D0
:10239000FEF7B4FD054606E0FEF7B0FD401B02283F
:1023A00001D9032077E63648006800F480600028F1
:1023B000F2D1207800F00800082836D16069D0B149
:1023C0002F489430006840F001002D49C1F8940076
:1023D000FEF794FD054606E0FEF790FD401B02283F
:1023E00001D9032057E626489430006800F0020027
:1023F0000028F1D019E022489430006820F0010054
:102400001F49C1F89400FEF779FD054606E0FEF786
:1024100075FD401B022801D903203CE61848943082
:10242000006800F002000028F1D1207800F00400DC
:10243000042872D14FF000091148806D00F08050DF
:1024400078B900BF0E48806D40F080500C49886517
:102450000846806D00F08050009000BF00BF4FF034
:1024600001090B48006800F4807000BB0848006850
:1024700040F4807006490860FEF740FD054610E014
:1024800000100240106B00082800002020000020EF
:1024900000700040FEF732FD401B022801D90320E6
:1024A000F9E5D048006800F480700028F2D000BF41
:1024B000A068012808D1CC48006840F00100CA4952
:1024C0009039C1F8900021E0A06805280FD1C648D6
:1024D000006840F00400C4499039C1F890000846F3
:1024E000D0F8900040F00100C1F890000EE0BE4826
:1024F000006820F00100BC499039C1F890000846FE
:10250000D0F8900020F00400C1F8900000BFA0684F
:10251000A0B1FEF7F3FC054609E02EE0FEF7EEFC65
:10252000401B41F28831884201D90320B3E5AE480F
:10253000006800F002000028F0D012E0FEF7DEFC98
:10254000054608E0FEF7DAFC401B41F2883188427C
:1025500001D903209FE5A448006800F0020000288C
:10256000F0D1B9F1010F07D19F489038806D20F06C
:1025700080509D499039886500BF207800F0200088
:10258000202838D1606AD8B197480830006840F0F8
:10259000010095499039C1F89800FEF7AFFC054657
:1025A00006E0FEF7ABFC401B022801D9032072E5D0
:1025B0008D480830006800F002000028F1D01AE0D1
:1025C00089480830006820F0010087499039C1F837
:1025D0009800FEF793FC054606E0FEF78FFC401BD3
:1025E000022801D9032056E57F480830006800F032
:1025F00002000028F1D1A06A00287DD0A06A02283C
:102600007BD179489038C76807F00301E06A8142BE
:1026100025D107F07001206B401EB1EB001F1ED1C9
:1026200007F4FE41606BB1EB002F18D107F0784141
:102630003820005DB1EBC06F11D107F4C001A08F4D
:102640000122C2EB5000B1EB405F08D107F0C0613E
:102650004020005DC2EB5000B1EB406F66D00C2E05
:1026600062D061489038006800F0806008B10120B5
:1026700011E55D489038006820F080705A49903923
:102680000860FEF73BFC054606E0FEF737FC401B02
:10269000022801D90320FEE453489038006800F076
:1026A00000700028F1D1D4E90B10401E41EA00115E
:1026B000606B41EA0021A08F0122C2EB500041EA89
:1026C00040514020005DC2EB500041EA406138209B
:1026D000005D41EAC06044499039C968434A1140ED
:1026E000084341499039C8600846006840F080704E
:1026F00008600846C06801E05BE03DE040F08070A3
:10270000C860FEF7FBFB054606E0FEF7F7FB401B43
:10271000022801D90320BEE433489038006800F055
:1027200000700028F1D05AE00120B4E42E4890381F
:10273000006800F00070E0BB2B489038006840F063
:1027400080702949903908600846C06840F0807060
:10275000C860FEF7D3FB054606E0FEF7CFFB401B43
:10276000022801D9032096E41F489038006800F041
:1027700000700028F1D032E00C2E2ED01A4890388C
:10278000006820F080701849903908600846006899
:1027900000F0006020B90846C06820F00300C8605F
:1027A00011489038C068124908400F499039C860F4
:1027B00000E014E0FEF7A2FB054606E0FEF79EFBF4
:1027C000401B022801D9032065E4074890380068BF
:1027D00000F000700028F1D101E001205BE400204E
:1027E00059E4000000700040901002408C809D0170
:1027F000FFFFEEFEF0B589B004460E460027032029
:1028000084F83400606C032820D0B6F5805F04D1D2
:10281000A06B40F08050A0631CE0B6F5006F07D1BC
:10282000204601F079FD0546A06B2843A06311E026
:102830003EB9204601F03CFD0546A06B2843A0634D
:1028400008E0A06B40F00060A06303E0A06B40F0E4
:102850008050A063A06B20B11648216888630127CF
:1028600013E060680390A0680490E0680590069605
:1028700060690790A069089006A807C88DE807005E
:10288000206803A90EC901F0B4FA4FF40071206862
:1028900000F00AFF054635B1064821688863A06B41
:1028A0002843A0630127012084F83400384609B08A
:1028B000F0BD0000FF0540007047000010B5024663
:1028C000506E800F0870506EC0F383604870506E79
:1028D000C0F301608870506E000CC870B2F86400DC
:1028E000000A087192F864004871906E000DC8806B
:1028F000906EC0F3034008726820805AC0F3C03065
:1029000048726820805AC0F3803088726820805AEC
:10291000C0F34030C8726820805AC0F3003008739A
:1029200000204873506C002836D16820805A8005FA
:10293000030DD06E43EA90700861D06EC0F3C260A0
:102940000875D06EC0F302604875D06EC0F3425077
:102950008875D06EC0F38240C875D06EC0F3C230A7
:1029600008760869401C50650B7E506D03F0070324
:102970009B1C01249C4060435065087A00F00F03C3
:10298000012098409065D2E915035B0A5843D06551
:102990004FF40073136621E0506C012813D16820B6
:1029A000805C8006830AD06E43EA104008610869A3
:1029B000401C83025365536DD3654FF400739365D8
:1029C000936D13660AE02E4813689863906B40F08D
:1029D00080509063012082F8340010BD6C20805A32
:1029E000C0F3803001F8190F6C20805AC0F3C61074
:1029F00048706C20805C00F07F008870106FC00F02
:102A0000C870106FC0F341700871106FC0F382601E
:102A10004871106FC0F383508871106FC0F340503D
:102A2000C87100200872106FC0F300404872702017
:102A3000805AC0F3C03088727020805AC0F3803052
:102A4000C8727020805AC0F3403008737020805ADA
:102A5000C0F3003048737020805AC0F3812088731F
:102A60007020805AC0F30120C8737020805CC0F3CE
:102A7000460008740120487419390020ADE70000B1
:102A8000FF0540000246506C0860906C4860D06CB6
:102A90008860106DC860506D0861906D4861D06DA0
:102AA0008861106EC86100207047F8B504460020A8
:102AB00000906946204601F0E3FB054615B1A06B86
:102AC0002843A0630098C0F343263046F8BD10B5F4
:102AD00004460CB9012010BD94F8340020B9002040
:102AE0002077204600F090F8032084F83400204638
:102AF00000F00CF808B10120EDE70020A06320638E
:102B0000012084F834000020E5E700002DE9F041C1
:102B10008AB0044600200490059006900790089023
:102B20004FF40020FEF706FC074647B9012084F861
:102B30003400C006A06301200AB0BDE8F0812F4830
:102B4000B7FBF0F0801E099007A807C88DE80700C2
:102B5000206804A90EC901F04CF906460EB1012007
:102B6000EAE72068406820F48070216848602068A7
:102B700001F059F906460EB10120DDE720684068F2
:102B800040F48070216848600998801CB7FBF0F71A
:102B90001B48B0FBF7F000F101084046FEF7AEF825
:102BA000204601F007FB05463DB1012084F83400C2
:102BB000A06B2843A0630120BEE7204601F079FA0C
:102BC00005463DB1012084F83400A06B2843A06382
:102BD0000120B1E74FF40071206800F065FD054663
:102BE0004DB1084821688863A06B2843A063012089
:102BF00084F83400A0E700209EE70000801A060059
:102C000010210100FF05400010B586B004461421D4
:102C100001A8FDF789FC25492068884244D100BFFE
:102C20002348006E40F48060214908660846006E23
:102C300000F48060009000BF00BF00BF0846C06C79
:102C400040F00800C8640846C06C00F0080000901E
:102C500000BF00BF00BF0846C06C40F00400C8645D
:102C60000846C06C00F00400009000BF00BF0420C4
:102C700001900220029000200390032004900C2079
:102C8000059001A90B48FEF74DF84FF4F85001905C
:102C90000220029000200390032004900C20059055
:102CA00001A90548FEF73EF806B010BD0028014016
:102CB00000100240000C0048000800482DE9F043D5
:102CC00087B004460F4691461D46C8463FB9A06BE3
:102CD00040F00060A063012007B0BDE8F08394F8E5
:102CE0003400012874D10020A06308EB0501E06DD9
:102CF000814205D9A06B40F00070A0630120EBE792
:102D0000032084F8340000202168C8623148216C17
:102D1000C8623148216C48630020216C88636A02D4
:102D20009308226802F180013A46206CFDF798FF73
:102D300050B12A4821688863A06B40F08040A063AE
:102D4000012084F83400C7E72068C06A40F008001A
:102D50002168C862606C012801D04FEA48284FF012
:102D6000FF300190680202909020039002200490AE
:102D7000002005900120069001A9206800F02EFE99
:102D8000012D07D9822020634146206800F0F4FC21
:102D9000064606E0812020634146206800F008FDD9
:102DA000064666B10D4821688863A06B3043A06376
:102DB000012084F834000020206301208CE7206883
:102DC000C06B40F495702168C863002084E7FFE77A
:102DD000022081E7253F0008B93E0008FF054000BA
:102DE00010B50446FDF75EFC10BD00002DE9F04370
:102DF00087B00446884691461D464F46B8F1000FFD
:102E000007D1A06B40F00060A063012007B0BDE8CF
:102E1000F08394F83400012874D10020A06379195C
:102E2000E06D814205D9A06B40F00070A0630120E5
:102E3000ECE7032084F8340000202168C86232489F
:102E4000E16BC8623148E16B48630020E16B886345
:102E5000606C012800D07F02012D07D9A0202063DB
:102E60003946206800F082FD064606E09020206387
:102E70003946206800F096FD064666B12448216870
:102E80008863A06B3043A063012084F834000020E5
:102E900020630120BAE72068C06A40F0080021687A
:102EA000C86269028B08216801F180024146E06B2B
:102EB000FDF7D6FE68B1164821688863A06B40F024
:102EC0008040A063012084F83400002020630120AA
:102ED0009CE74FF0FF300190680202909020039031
:102EE0000020049005900120069001A9206800F0C0
:102EF00075FD2068C06B40F01A002168C86300208F
:102F000084E7FFE7022081E76D3F0008B93E000833
:102F1000FF05400070477047704710B504460CB974
:102F2000012010BD94F83D0028B9002084F83C0031
:102F3000204600F029F8022084F83D00211D206879
:102F400001F05CFB012084F8480000BF84F83E00DB
:102F500001213F20015540200155412001554220CB
:102F600001554320015500BF00BF012084F84400F3
:102F700045200155462001554720015500BF01203D
:102F800084F83D000020CCE770470000014691F82E
:102F90003D00012801D001207047022081F83D004A
:102FA0000868C06840F001000B68D860124B0868E0
:102FB000984207D00868B0F1804F03D00F4B0868E3
:102FC000984210D1086880680D4B00EA0302062A77
:102FD0000FD0B2F5803F0CD00868006840F00100C7
:102FE0000B68186005E00868006840F001000B6895
:102FF00018600020D0E70000002C01400040014094
:1030000007000100704710B5044620680069C0F34E
:103010004000D8B12068C068C0F34000B0B16FF084
:10302000020021680861012020772068806900F093
:10303000030018B12046FFF7E5FF05E0204600F049
:10304000BEF8204600F0BCF8002020772068006918
:10305000C0F38000D8B12068C068C0F38000B0B170
:103060006FF00400216808610220207720688069E1
:1030700000F4407018B12046FFF7C4FF05E0204679
:1030800000F09DF8204600F09BF800202077206893
:103090000069C0F3C000D8B12068C068C0F3C000A8
:1030A000B0B16FF008002168086104202077206823
:1030B000C06900F0030018B12046FFF7A3FF05E048
:1030C000204600F07CF8204600F07AF800202077B7
:1030D00020680069C0F30010D8B12068C068C0F350
:1030E0000010B0B16FF0100021680861082020774F
:1030F0002068C06900F4407018B12046FFF782FFD5
:1031000005E0204600F05BF8204600F059F800206A
:1031100020772068006900F0010058B12068C0687D
:1031200000F0010030B16FF0010021680861204615
:1031300000F048F820680069C0F3C01058B120685A
:10314000C068C0F3C01030B16FF080002168086122
:103150002046FFF7E0FE20680069C0F3002058B168
:103160002068C068C0F3C01030B16FF4807021686F
:1031700008612046FFF7CEFE20680069C0F380108A
:1031800058B12068C068C0F3801030B16FF04000C3
:1031900021680861204600F021F820680069C0F32A
:1031A000401058B12068C068C0F3401030B16FF0D3
:1031B0002000216808612046FFF7AEFE10BD704771
:1031C0007047000010B5044603492068884201D1C9
:1031D000FDF79AFE10BD0000002C0140704710B5AD
:1031E00004460CB9012010BDA06900B100E000BF89
:1031F000606F28B9002084F87000204600F02AF89B
:10320000242060672068006820F0010021680860C1
:10321000204601F0E1FA012800D1E4E7606A10B12C
:10322000204601F025FA2068406820F4904021688B
:1032300048602068806820F02A0021688860206843
:10324000006840F0010021680860204601F08CFA17
:10325000C9E7000010B586B00446142101A8FDF7A7
:1032600063F91849206888422AD100BF1648006EC9
:1032700040F48040144908660846006E00F480401F
:10328000009000BF00BF00BF0846C06C40F00100C6
:10329000C8640846C06C00F00100009000BF00BF89
:1032A0004FF4C060019002200290002003900320A0
:1032B00004900720059001A94FF09040FDF732FDE2
:1032C00006B010BD003801400010024000BFFEE70C
:1032D00010B503490348FDF73FFA0349087010BDD4
:1032E00015000020EC6A00081400002000BFFEE773
:1032F00070470000F0B505460E460020002400236C
:10330000B5F5006F07D13F4F3F6807F44004B4F5AF
:10331000400F00D13C48002873D13146B4F5000F6E
:1033200037D1384F883F3F6807F00077B7F1007F0B
:1033300025D1344F883FFF6807F48037FFB1314F04
:10334000883FFF68C7F302177F1CB1FBF7F12D4FD1
:10335000883FFF68C7F306222A4F883FFF68FB0EAD
:1033600043B9284F883FFF6807F400370FB1112396
:1033700000E0072301FB02F7B7FBF3F041E0214F28
:10338000883F3F6807F48067B7F5806F39D11F48E1
:1033900037E064BB1B4F883F3F6807F00067B7F119
:1033A000006F25D1174F883F3F6907F48037FFB181
:1033B000144F883FFF68C7F302177F1CB1FBF7F17A
:1033C000104F883F3F69C7F306220E4F883F3F6981
:1033D000FB0E43B90B4F883F3F6907F400370FB12D
:1033E000112300E0072301FB02F7B7FBF3F008E02D
:1033F000044F883F3F6807F48067B7F5806F00D1BE
:103400000248F0BD8810024068FF1F000024F4004D
:103410002DE9F04104460F4600255B48C06800F0E6
:10342000030090B15848C06800F00300216888424A
:1034300009D1206838B15448C068C0F30210401C5C
:103440006168884233D0012531E02068012804D02A
:10345000022809D003281AD10DE04B48006800F07B
:10346000020000B9012514E04748006800F48060BC
:1034700000B901250DE04448006800F4003028B987
:103480004148006800F4802000B9012501E00125D1
:1034900000BF00BF5DB9D4E90010401E41EA001032
:1034A0003949C96821F0730108433749C860002DC4
:1034B00067D13548006820F0806033490860FDF727
:1034C0001DFD064606E0FDF719FD801B022801D907
:1034D000032505E02C48006800F000600028F2D1C8
:1034E00000BFC5BB67B9A0680002217B40EAC1608C
:1034F00025490969254A114008432349086120E00C
:10350000012F0FD1A0680002218A0122C2EB5101D4
:1035100040EA41501C4909691D4A114008431A49B3
:1035200008610EE0A0680002217D0122C2EB51017A
:1035300040EA416014490969164A1140084312499A
:1035400008611148006840F080600F490860FDF78D
:10355000D5FC064607E014E0FDF7D0FC801B0228EE
:1035600001D9032505E00848006800F00060002844
:10357000F2D000BF2DB904480069A169084302498F
:1035800008612846BDE8F08100100240FF80FF0777
:10359000FF809FFFFF80FFF9F8B50446002623480F
:1035A000806D00F0805018B1FDF7BCFE054616E0B6
:1035B00000BF1E48806D40F080501C498865084659
:1035C000806D00F08050009000BF00BFFDF7AAFEA4
:1035D00005461648806D20F0805014498865B5F581
:1035E000007F07D1802C10D9A02C01D902260CE035
:1035F00001260AE0802C01D9032606E0802C01D1A7
:10360000022602E0702C00D101260948006820F053
:1036100007003043064908600846006800F00700CC
:10362000B04201D00120F8BD0020FCE700100240AC
:103630000020024070B585B005460C460094372046
:10364000019040200290002003904FF4806004908D
:103650006946284600F0F4FB41F2883237212846BB
:1036600000F0F2F90646304605B070BD70B585B081
:1036700005460C460B48204300902920019040202D
:103680000290002003904FF4806004906946284621
:1036900000F0D6FB284600F0DFFA0646304605B0BB
:1036A00070BD00000000108070B585B005460C4666
:1036B00000941020019040200290002003904FF4CD
:1036C000806004906946284600F0BAFB41F28832D7
:1036D0001021284600F0B8F90646304605B070BD06
:1036E00070B585B005460C46009406200190402038
:1036F0000290002003904FF48060049069462846B1
:1037000000F09EFB41F288320621284600F09CF929
:103710000646304605B070BD30B585B00446002081
:1037200000900190029003904FF4806004906946ED
:10373000204600F085FB204600F066F90546284645
:1037400005B030BD30B585B004464FF4D57000905B
:103750000820019040200290002003904FF48060E8
:1037600004906946204600F06BFB204600F0FCFA0E
:103770000546284605B030BD70B585B005460C46F7
:1037800000941220019040200290002003904FF4FA
:10379000806004906946284600F052FB41F288326E
:1037A0001221284600F050F90646304605B070BD9B
:1037B00070B585B005460C4600941120019040205C
:1037C0000290002003904FF48060049069462846E0
:1037D00000F036FB41F288321121284600F034F91E
:1037E0000646304605B070BDF0B585B006461446B5
:1037F0001D46009407200190402002900020039075
:103800004FF4806004906946304600F019FB41F2A5
:1038100088320721304600F017F90746384605B0D0
:10382000F0BD30B585B00446002000900220019024
:10383000C0200290002003904FF4806004906946FD
:10384000204600F0FDFA204600F0D4F9054628464F
:1038500005B030BD70B585B005460C460094092012
:103860000190C0200290002003904FF480600490EB
:103870006946284600F0E4FA284600F0BBF90646FF
:10388000304605B070BD30B585B0044600200090CC
:103890003320019040200290002003904FF480607C
:1038A00004906946204600F0CBFA41F28832332179
:1038B000204600F0C9F80546284605B030BD70B571
:1038C00085B005460C4600940D20019040200290E2
:1038D000002003904FF4806004906946284600F071
:1038E000AFFA41F288320D21284600F0ADF80646C5
:1038F000304605B070BD70B585B005460C46002059
:1039000000900320019040200290002003904FF48B
:10391000806004906946284600F092FA224603210E
:10392000284600F0C5F90646304605B070BD0000D7
:1039300030B585B00446002000900C200190402056
:103940000290002003904FF4806004906946204666
:1039500000F076FA044A0C21204600F075F805467E
:10396000284605B030BD000000E1F50570B585B012
:1039700005460C460094192001904020029000203A
:1039800003904FF4806004906946284600F058FA8E
:1039900041F288321921284600F056F80646304692
:1039A00005B070BD70B585B005460C460094182072
:1039B000019040200290002003904FF4806004901A
:1039C0006946284600F03CFA41F288321821284620
:1039D00000F03AF80646304605B070BD10B5024614
:1039E00000230868506248689062D1E902042043CD
:1039F0000C6920434C6920430343D06A20F0F70050
:103A00001843D062002010BD01460E480068C0086F
:103A10004FF47A73B0FBF3F041F2883300FB03F20A
:103A200000BF101EA2F1010202D14FF0004070470A
:103A3000486B00F080000028F3D0C5208863002088
:103A4000F5E70000280000202DE9F04305460F4669
:103A5000904666480068C0084FF47A71B0FBF1F0F8
:103A600000FB08F900BFB9F10000A9F1010903D179
:103A70004FF00040BDE8F0836E6B06F04500002873
:103A8000F1D006F400600028EDD1686B00F004006E
:103A900010B10420A863EDE7686B00F0010010B1DD
:103AA0000120A863E6E7C520A863284600F092F944
:103AB000B84201D00120DDE70021284600F093F94B
:103AC00004464B48204008B90020D3E704F00040EA
:103AD000B0F1004F02D14FF00070CBE704F080400E
:103AE000B0F1804F01D14020C4E704F00050B0F1A4
:103AF000005F01D18020BDE704F08050B0F1805F0D
:103B000002D14FF48070B5E704F00060B0F1006FAF
:103B100002D14FF40070ADE704F08060B0F1806F27
:103B200002D14FF48060A5E704F08070B0F1807F8F
:103B300002D14FF400609DE704F40000B0F5000FDF
:103B400002D14FF4805095E704F48000B0F5800F67
:103B500002D14FF400508DE704F40010B0F5001FBF
:103B600002D14FF4804085E704F48010B0F5801F47
:103B700002D14FF400407DE704F48020B0F5802F9F
:103B800002D14FF4003075E704F40030B0F5003F87
:103B900002D14FF480206DE704F48030B0F5803F0F
:103BA00002D14FF4002065E704F40040B0F5004F67
:103BB00002D14FF480105DE704F48040B0F5804FEF
:103BC00002D14FF4001055E704F40050B0F5005F47
:103BD00002D14FF480004DE704F00800082801D11D
:103BE000000547E74FF4803044E70000280000203C
:103BF00008E0FFFD10B5014616480068C0084FF404
:103C00007A74B0FBF4F041F2883400FB04F300BF97
:103C1000181EA3F1010302D14FF0004010BD4A6B02
:103C200002F045000028F3D002F400600028EFD134
:103C3000486B00F0040010B104208863EEE7486B85
:103C400000F0010010B101208863E7E7C520886318
:103C50000020E3E72800002010B501461348006863
:103C6000C0084FF47A74B0FBF4F041F2883400FBE2
:103C700004F300BF181EA3F1010302D14FF000406E
:103C800010BD4A6B02F045000028F3D002F400603A
:103C90000028EFD1486B00F0040010B104208863C5
:103CA000EEE7C52088630020EAE700002800002036
:103CB0002DE9F04304460F4690462A480068C008A4
:103CC0004FF47A71B0FBF1F041F2883100FB01F959
:103CD00000BFB9F10000A9F1010903D14FF0004084
:103CE000BDE8F083666B06F045000028F1D006F4CD
:103CF00000600028EDD1606B00F0040010B10420DA
:103D0000A063EDE7606B00F0010010B10120A0633B
:103D1000E6E7204600F05EF8B84201D00120DFE778
:103D2000C520A0630021204600F05DF8054605F49B
:103D3000604020B9280CA8F800000020D0E705F466
:103D40008040B0F5804F02D14FF40050C8E705F431
:103D50000040B0F5004F02D14FF48050C0E74FF45F
:103D60008030BDE72800002010B5014618480068E3
:103D7000C0084FF47A74B0FBF4F041F2883400FBD1
:103D800004F300BF181EA3F1010302D14FF000405D
:103D900010BD4A6B02F045000028F3D002F4006029
:103DA0000028EFD1486B00F0040010B104208863B4
:103DB000EEE7486B00F0010010B101208863E7E7EF
:103DC000486B00F0400008B1402088630020DFE726
:103DD0002800002001460869C0B270470146086803
:103DE00000F003007047024602F1140043181868FF
:103DF00070470FB410B50446002104980143059A9A
:103E000003981043069A1043079A1043089A1043E8
:103E10000143606847F6FF629043084360600020FA
:103E200010BC5DF814FB10B504460320206002208E
:103E3000FCF764FF002010BD0146D1F880007047F8
:103E400010B50246002308689060D1E901042043C0
:103E5000CC6820430C6920430343D0686FF30B0008
:103E60001843D060002010BD10B50446012007495A
:103E70000870FCF7D3FB28B90448007820F0010053
:103E8000024908700148007810BD00000C000020B5
:103E900070B5044601F053F8054604E0FCF7BEFB9C
:103EA00008B9002070BD01F04AF8401BA042F5D3CC
:103EB0004FF0FF30F6E700002DE9F0410646B46A06
:103EC000206CC76BE06BD0F83C80012F02D0B8F1BA
:103ED000010F1FD11248216888632068C06B20F44D
:103EE0009D702168C863A06B40F08040A0632046AD
:103EF000FEF7DBFD0546062D01D0052D05D1206816
:103F0000FFF716FDA16B0843A063012084F834007D
:103F1000002020632046FEF7CFFCBDE8F0810000C2
:103F2000FF05400070B50646B46A206B82280AD1AE
:103F30002068FFF7FDFC05462DB1A06B2843A06368
:103F40002046FEF7B9FC2068C06A20F0080021680E
:103F5000C86240F23A5021688863012084F8340036
:103F6000002020632046FEF73BFF70BD0146886AB3
:103F70000268D26B42F480720368DA6370472DE9FD
:103F8000F04389B004460F46FCF7B8FF81464FF076
:103F900000080020019002903E4608212068FFF7AB
:103FA00083FB05461DB1284609B0BDE8F0835022C9
:103FB000125B11042068FFF73DFB05460DB1284652
:103FC000F2E74FF0FF300390082004903020059076
:103FD00002200690002007900120089003A9206885
:103FE000FFF7FCFC2068FFF74EFC05460DB12846A4
:103FF000DAE715E02068406B00F4001038B1206863
:10400000FFF71AFF01A941F8280008F10108FCF7A1
:1040100075FFA0EB0900401C10B94FF00040C3E74A
:104020002068406B40F22A4108400028E2D0206816
:10403000406B00F0080018B1082021688863B3E7DE
:104040002068406B00F0020018B1022021688863EC
:10405000AAE72068406B00F0200018B120202168FA
:104060008863A1E740F23A5021688863029800060D
:10407000029901F47F4140EA0120029901F47F0195
:1040800040EA1120029940EA11603060361D019823
:104090000006019901F47F4140EA0120019901F4F1
:1040A0007F0140EA1120019940EA11603060002050
:1040B0007AE730B58FB00446012003902068FFF7FF
:1040C0008DFE18B94FF080600FB030BD606C0328D2
:1040D0001BD02068FFF7A5FB05460DB12846F3E786
:1040E00000212068FFF77FFE606704212068FFF74A
:1040F0007AFEA06708212068FFF775FEE0670C21B3
:104100002068FFF770FE80210851606C032807D0FB
:1041100003A92068FFF7EFFB05460DB12846D3E75A
:10412000606C032820D0BDF80C1021655022125B72
:1041300011042068FFF78EFB05460DB12846C3E742
:1041400000212068FFF74FFE606604212068FFF71A
:104150004AFEA06608212068FFF745FEE0660C21B4
:104160002068FFF740FE206704212068FFF73BFE30
:10417000010DE16404A92046FEF7A0FB10B14FF049
:104180008050A1E75020005B01040A46002320680C
:10419000FFF72AFB05460DB1284695E7D4E904123E
:1041A000A069CDE90012029094E80F00FFF721FE0C
:1041B000002089E7F8B5044600200090002600277B
:1041C0002068FFF7A9FA05460DB12846F8BD20681A
:1041D000FFF7B8FA054645B10021A1642068FFF752
:1041E0009BFA05461DB12846F0E70121A164A06CA9
:1041F000012808D100212068FFF71CFA054615B1F7
:104200004FF08050E2E71DE000212068FFF712FA2E
:1042100005460DB12846D9E718492068FFF726FA68
:10422000054615B14FF08050D0E700212068FFF718
:10423000DAFD0646012080EAD67080F0010700987A
:10424000401C00904FF6FF710098884201D2002F69
:10425000DAD04FF6FF710098884202D34FF0807099
:10426000B4E706F08040B0F1804F02D101206064D5
:1042700001E0002060640020A8E70000000010C1F9
:1042800070B504460D4615B94FF0006070BD502260
:10429000125B11042068FFF712FB06460EB1304690
:1042A000F4E700212068FFF79EFD28600020EDE77D
:1042B0007CB5044600200090019000212068FFF7A3
:1042C00092FD00F00070B0F1007F02D14FF4006069
:1042D0007CBD69462046FFF752FE05460DB12846D3
:1042E000F6E7019800F4803098B15022125B110477
:1042F0002068FFF79FF905460DB12846E8E7002141
:104300002068FFF7EDF905460DB12846E0E70020EB
:10431000DEE74FF08060DBE77CB5044600200090CC
:10432000019000212068FFF75EFD00F00070B0F101
:10433000007F02D14FF400607CBD69462046FFF744
:104340001EFE05460DB12846F6E7019800F48020D0
:1043500098B15022125B11042068FFF76BF90546F3
:104360000DB12846E8E702212068FFF7B9F90546B4
:104370000DB12846E0E70020DEE74FF08060DBE784
:104380001FB5044601201649087000F0CAFD10B39D
:10439000FCF750F920B92046FFF766FD1049087078
:1043A0000F480078012816D00E48006850B90E4B0F
:1043B0000FCB8DE80F000021684600F0CAFD0949C7
:1043C000086000BF0748006828B90548007840F039
:1043D0000100034908700248007804B010BD0000D5
:1043E0000C00002010000020006B0008F0B589B020
:1043F00007460D46144601261648007800F00100D5
:1044000010B1032009B0F0BD35B1012D06D0022D49
:104410000BD0032D18D10FE0002617E001A8FCF700
:10442000F3F807982060002610E001A8FCF7ECF8EC
:1044300008982080002609E001A8FCF7E5F8089814
:10444000400A2060002601E0042600BF00BF30467D
:10445000D8E700000C0000202DE9F04786B0824626
:104460000E46174698464FF0010947F23050FFF7C5
:104470000FFD002803DA484606B0BDE8F087424643
:1044800039463046FCF7FAF8054615BB47F230527C
:1044900011480168684600F071FD9DE8070003AB14
:1044A00007C30398102814D10498012811D100F0F3
:1044B00046FD044605E0FCF7B1F810B94FF00009DD
:1044C00006E000F03CFD001B47F230518842F2D379
:1044D00000BF4846D0E700001000002010B5044699
:1044E0002046FFF7C1FC10BD2DE9F04387B081469F
:1044F0000D4616461F464FF0010847F23050FFF7B1
:10450000C7FC002803DA404607B0BDE8F0833A460E
:1045100031462846FCF7D0F810BB47F2305211481C
:10452000016801A800F02AFD01A807C804AB07C371
:104530000498102814D10598022811D100F0FFFC2E
:10454000044605E0FCF76AF810B94FF0000806E0F1
:1045500000F0F5FC001B47F230518842F2D300BF57
:104560004046D1E71000002010B500BF502080F376
:104570001188BFF34F8FBFF36F8F00BF02F0B0F809
:1045800018B14FF080500449086000BF002080F34C
:10459000118800BF10BD000004ED00E01048006865
:1045A00040F470000E4908600E48006840F00100B9
:1045B0000C49086000208860084600680A490840E5
:1045C000084908608814C8600846006820F4802004
:1045D000086000208861C80301498039086070477D
:1045E00088ED00E000100240FFFFF6EA10B5024837
:1045F000FEF709FD10BD00000007002010B502689D
:10460000184B984202D0B0F1804F03D122F07002D3
:104610004B681A43134B984208D0B0F1804F05D035
:10462000114B984202D0114B984203D122F44072B0
:10463000CB681A4322F080034C6943EA040202600B
:104640008B68C3620B688362064B984205D0064BA9
:10465000984202D0054B984201D10B6903630123B4
:10466000436110BD002C0140004001400044014066
:1046700090F8241001F0010139B10168496821F472
:104680000031826A11430268516090F8241001F0F1
:104690000201022907D10168496821F48031C26A08
:1046A00011430268516090F8241001F004010429BC
:1046B00007D10168496821F48021026B1143026827
:1046C000516090F8241001F00801082907D1016811
:1046D000496821F40041426B11430268516090F82F
:1046E000241001F01001102907D10168896821F414
:1046F0008051826B11430268916090F8241001F0A0
:104700002001202907D10168896821F40051C26B7A
:1047100011430268916090F8241001F04001402993
:1047200013D10168496821F48011026C11430268B9
:104730005160016CB1F5801F07D10168496821F40F
:10474000C001426C11430268516090F8241001F0DE
:104750008001802907D10168496821F40021826C19
:10476000114302685160704738B504460020E06785
:10477000FCF7C4FB05462068006800F00800082824
:104780000CD16FF07E402B4600224FF400110090B8
:10479000204600F0A4F908B1032038BD2068006865
:1047A00000F0040004280CD16FF07E402B4600225C
:1047B0004FF480010090204600F091F908B10320E9
:1047C000EBE720206067A06700BF002084F870003E
:1047D00000BF00BFE1E700002DE9F84F04460020CC
:1047E0000090B6492068884200D100E000BF2169EE
:1047F000A068084361690843E16940EA010A20684A
:104800000068AF49084040EA0A0021680860206853
:10481000406820F44050E168084321684860D4F8BB
:1048200018A0A6492068884202D0206A40EA0A0AF5
:104830002068806820F4306040EA0A0021688860BF
:1048400000BFA0492068884216D19F48006800F048
:10485000030030B1012808D0022804D0032808D171
:1048600005E0012507E0022505E0042503E0082511
:1048700001E0102500BF54E094492068884216D119
:104880009148006800F00C0030B1042808D00828D6
:1048900004D00C2808D105E0002507E0022505E03A
:1048A000042503E0082501E0102500BF39E0884910
:1048B0002068884216D18448006800F0300030B18A
:1048C000102808D0202804D0302808D105E0002581
:1048D00007E0022505E0042503E0082501E0102596
:1048E00000BF1EE075492068884219D176480068EB
:1048F00000F4406048B1B0F5806F0AD0B0F5006FA9
:1049000005D0B0F5406F08D105E0002507E002258D
:1049100005E0042503E0082501E0102500BF00E0C4
:10492000102500BF6549206888424AD135B1022D63
:1049300008D0042D08D0082D0DD109E0FDF70CFB9F
:1049400006460CE0634E0AE0FDF72AFB064606E049
:104950004FF4004603E000260120009000BF00BF96
:10496000002E0AD0606800EB4000B04203D86068B7
:104970000003B04202D20120009098E002220023FE
:10498000D4F804C060461946FBF7E0FC4FF480728F
:10499000A6FB022387185941D4F804C062460023BD
:1049A0003846FBF7D3FC8146B9F5407F06D3B9F50D
:1049B000801F03D22068C0F80C9078E0012000909E
:1049C00075E0E069B0F5004F3CD1092D17D2DFE862
:1049D00005F005090D160F1616161300FDF7BCFAA3
:1049E000064610E0FDF7CAFA06460CE0394E0AE02A
:1049F000FDF7D6FA064606E04FF4004603E000262F
:104A00000120009000BF00BF7EB37000616800EB22
:104A10005100B0FBF1F01FFA80F9B9F1100F0ED37D
:104A2000B9F5803F0BD24FF6F07009EA000BC9F3DD
:104A300042004BEA000B2068C0F80CB037E00120C0
:104A4000009034E0092D18D2DFE805F005090D17B4
:104A5000101717171400FDF77FFA064611E0FDF74F
:104A60008DFA06460DE01B4E0BE020E0FDF798FAAC
:104A7000064606E04FF4004603E0002601200090C1
:104A800000BF00BF9EB1606806EB50006168B0FBDC
:104A9000F1F01FFA80F9B9F1100F06D3B9F5803F94
:104AA00003D22068C0F80C9001E0012000900020A3
:104AB00020666066009800F00FB80000008000409B
:104AC000F369FFEF003801408810024000440040C5
:104AD000004800400024F40018BCBDE8E08F2DE938
:104AE000F04104460D4617469846069E45E0701C68
:104AF000002842D0FCF702FAA0EB0800B04200D830
:104B0000B6B92068006820F4D07021680860206879
:104B1000806820F001002168886020206067A0671D
:104B200000BF002084F8700000BF0320BDE8F081C2
:104B30002068006800F00400F8B12068C069C0F384
:104B4000C020D0B14FF4006021680862206800687E
:104B500020F4D070216808602068806820F001008F
:104B60002168886020206067A067E06700BF0020A0
:104B700084F8700000BF0320D8E72068C06928408F
:104B8000A84201D1012000E00020B842AFD00020AF
:104B9000CCE710B50446002010BD0146B1F858001E
:104BA000C0F30E00A1F858000020704710B504466D
:104BB000012024F8400F00202080A0802082403C6B
:104BC00010BD01464BF68072B1F840009043A1F849
:104BD00040000020704702460020704700BFFEE7FB
:104BE00010B50D480D4908601020486000210B48A1
:104BF0008160C1604FF440310161090141610021D0
:104C0000017641768176C17601774177FBF703FF24
:104C100008B1FBF7A0FD10BD006400408C0000202F
:104C200000B587B0142102A8FBF77EFC00BF1E4828
:104C3000C06C40F004001C49C8640846C06C00F019
:104C40000400019000BF00BF0846C06C40F00200A5
:104C5000C8640846C06C00F00200019000BF00BFAD
:104C60000846C06C40F00800C8640846C06C00F0FC
:104C70000800019000BF00BF0846C06C40F0010072
:104C8000C8640846C06C00F00100019000BF4FF4FA
:104C90000050029000200390049002A90348FCF702
:104CA00041F807B000BD00000010024000080048B5
:104CB00010B50A480A4908600820486002210848DF
:104CC00081600161002141618161C1610162FCF784
:104CD00019FA08B1FBF73FFD10BD00000068004065
:104CE000B801002000BFFEE7064807490860002021
:104CF0004860002104488160C160016141618161B7
:104D00007047000000280140B400002000B5AFB09B
:104D100044211EA8FBF708FC142119A8FBF704FC8A
:104D2000602101A8FBF700FC10201E9001202490B8
:104D300000202590602026900220289001211EA8A6
:104D4000C162016328214163072181630221C1639C
:104D50000164FDF79BF908B1FBF7FDFC0F201990EA
:104D600003201A9000201B901C901D90042119A86C
:104D7000FDF70CF808B1FBF7EEFC1248019000209B
:104D800009904FF08060139014900120029001214F
:104D900003911821049107210591022106910791A1
:104DA0000105089101A8FCF707FE08B1FBF7D3FC49
:104DB0004FF40070FCF770FA08B1FBF7CCFC2FB091
:104DC00000BD00000120080010B50D480D49086025
:104DD0004FF4E130486000210A488160C160016100
:104DE0000C21416100218161C161016200200549FE
:104DF00048620846FEF7F3F908B1FBF7ACFC10BDBA
:104E0000003801403801002000F011F800BF0120F7
:104E100000F07BF8FBE7FFF765FF00BF012000F023
:104E200074F8FBE700BF012000F06FF8FBE700BF5C
:104E3000FEE7000002480068C0F30220704700004F
:104E40000CED00E010B5002804DB0A07130E054A3C
:104E5000135406E00A07140E034A00F00F031B1F49
:104E6000D45410BD00E400E018ED00E000BFEFF303
:104E7000058008B1012070470020FCE796B0FCF7E0
:104E80004FF8FFF743FFFFF7CBFEFFF7A9FEFFF751
:104E90002BFFFFF799FFFFF70BFFFEF719FA1C2214
:104EA00012490FA8FBF70EFB00210FA800F0E8F84D
:104EB0000F4908601C220D491C3108A8FBF702FBB2
:104EC000002108A800F0DCF80A4908601C22074904
:104ED000383101A8FBF7F6FA002101A800F0D0F85C
:104EE0000549086000F026F800BFFEE7986A000850
:104EF00000000020040000200800002001460020DF
:104F0000842901D0CA1C1044704770B50446254658
:104F10000DB1294600E00121084600F0D3FD002034
:104F200070BD10B501F0BCFB012801D1002010BDFF
:104F30000120FCE710B500F021FE002010BD10B5E7
:104F4000FFF794FF10B101F0C1FB10BD01F0B8FBF9
:104F5000FBE7F8B504460D46A06840B1E06830B103
:104F60000020009094E80F0000F092FFF8BD0022AE
:104F7000D4E9000100F05CFFF8E700002DE9FF41F3
:104F800007460D4614460295002001903DB9802049
:104F900000909DE8070087E8070000F03DB800207A
:104FA00003900026601C08B9761E03E014B1264663
:104FB00006B90126FFF75AFFB0B103AA01A9284696
:104FC00001F02AFA012802D11020009001E000200F
:104FD00000900398B8B14FF080500E490860BFF3BD
:104FE0004F8FBFF36F8F0EE0324601A9284601F0C4
:104FF0005FF9012802D11020009004E00EB90020D2
:1050000000E0402000909DE8070087E8070000BF0F
:10501000C3E7000004ED00E003BCBDE8FC81000034
:1050200077B581B00646144600200090254605B9A4
:105030000125FFF71BFFA8B100236A4602A93046ED
:1050400001F0B6F8012802D0FF2004B070BD00982E
:1050500090B14FF0805009490860BFF34F8FBFF304
:105060006F8F09E000232A4602A9304600F0CCFFEA
:10507000012801D0FF20E8E70020E6E704ED00E08A
:105080007FB504460D46606998B1A06988B1B4F94E
:105090000800FFF733FF0646D4E90510CDE90061AB
:1050A00002902B462269D4E9001001F098FA03908F
:1050B00013E0B4F90800FFF721FF064603A8CDE985
:1050C0000060238A9AB22B46D4E9001001F052FA0C
:1050D000012802D0002004B070BD0398FBE7000057
:1050E0002DE9F04105460E461C4807681C4800683B
:1050F000001D00F0AFFB50B91948006890F82C1063
:105100000120884017490968814316480160681CDE
:1051100038B936B112480168091D134800F0E4FBA4
:105120001AE07C190E4800684460BC4207D20C4863
:105130000168091D0D48006800F0BCFB0CE0084840
:105140000168091D0A48006800F0B4FB09480068BE
:10515000844201D207480460BDE8F081400000208D
:105160002C000020440000203408002034000020DF
:10517000300000205C00002010B5044600F0C0FBA9
:1051800023480068401C224908602248006840B952
:10519000204804600846006801280DD100F0A8F9F5
:1051A0000AE01D48006838B91A480068C06AE16A18
:1051B000884201D81748046018480068401C174905
:1051C000086094F82C1001208840154909680843AC
:1051D00013490860E16A01EB8101124A02EB810088
:1051E000211D00F081FB00F0B5FB0B48006868B1A1
:1051F00008480068C06AE16A884207D24FF08050D0
:1052000009490860BFF34F8FBFF36F8F10BD0000D7
:105210003C0000202C000020480000205800002006
:10522000440000205807002004ED00E010B516E00F
:1052300000F066FB0C48C068C468201D00F00AFB43
:105240000A480068401E0949086009480068401E75
:105250000749086000F07EFB204600F05FF8044834
:1052600000680028E4D110BD200800203C00002088
:105270003800002070B504460D46206C70B1216CDA
:10528000E0680144E160D4E90210884201D321685A
:10529000E1602846226CE168FBF7CFF870BD2DE98C
:1052A000F04104460F4615464FF00008A66B206CEF
:1052B00048B9206800282CD1A06801F0B5FA8046D2
:1052C0000020A06025E07DB93946226C6068FBF7BC
:1052D000B4F8216C606808446060D4E90101884238
:1052E00017D32068606014E03946226CE068FBF751
:1052F000A4F8216CE068411AE1602168E068884206
:1053000003D2216CA068411AE160022D01D106B1DF
:10531000761E701CA0634046BDE8F08110B50446BF
:1053200094F8510030B9206B00F032FB204600F0B9
:105330002FFB1AE094F85100012803D1204600F019
:1053400027FB12E094F85100022801D1012000E06F
:10535000002050B900BF502080F31188BFF34F8F59
:10536000BFF36F8F00BF00BFFEE710BD30B540F642
:10537000B833174800F007042CB1C01D20F0070017
:10538000134C041B1B1B0246124C22600024114DBF
:105390006C60D018083820F007000F4C2060002403
:1053A0000D4D2D686C600C4D2D682C601146441A13
:1053B0004C60094C24680C60084D4C682C60084D0A
:1053C0004C682C604FF00044064D2C6030BD00004E
:1053D00048080020680000207000002078000020AD
:1053E000740000207C00002000BFFFF71FFF06486C
:1053F00000680128F9D94FF0805004490860BFF3D4
:105400004F8FBFF36F8FF0E75807002004ED00E0E7
:105410002DE9F04106460D4617469846069C0DB903
:10542000246000E02760E66325640121204600F047
:105430009FFDBDE8F0812DE9FF5F81460E46924653
:10544000DDE90E7B109CAAF10100216B01EB8008C5
:1054500028F0070808F0070008B9012000E0002044
:1054600050B900BF502080F31188BFF34F8FBFF3B6
:105470006F8F00BF00BFFEE786B1002507E0715DBA
:1054800004F134004155705D00B902E06D1C102D2F
:10549000F5D300BF00214320015502E0002084F82D
:1054A0003400072F00D30627E76267640020A0645A
:1054B000201D00F0FCF904F1180000F0F8F9246157
:1054C000C7F10700A06164620020E06484F8500026
:1054D00049464046039A00F0A7F92060BBF1000F4F
:1054E00001D0CBF8004000F000B83FBCBDE8C09F41
:1054F00010B5002407E004EB84010F4A02EB8100A1
:1055000000F0C8F9641C072CF5D30C4800F0C2F970
:105510000B4800F0BFF90B4800F0BCF90A4800F056
:10552000B9F90A4800F0B6F9044809490860044886
:105530000849086010BD000058070020E40700205B
:10554000F80700200C080020200800203408002064
:10555000300000203400002010B50146164800E05D
:10556000006803688B42FBD30246436813448B42B6
:1055700004D143684C682344436001460A464B68A3
:1055800013440468A34211D10C4C03682468A3425D
:1055900008D04B680468646823444B6003681B6848
:1055A0000B6005E0054B1B680B6001E003680B60B6
:1055B000884200D0016010BD68000020700000200B
:1055C00070B5054600F09CF9A86B08B9012400E00D
:1055D000002400F0BFF9204670BD70B5054600F00C
:1055E0008FF9A86BE96B884201D1012400E0002407
:1055F00000F0B0F9204670BD0A490968096809B988
:10560000012100E0002121B14FF0FF31064A116075
:1056100006E004490968C968C868034A416811601E
:1056200070470000300000205C0000200E48006839
:10563000401C08B9012000E0002050B900BF5020F4
:1056400080F31188BFF34F8FBFF36F8F00BF00BF90
:10565000FEE700BF502080F31188BFF34F8FBFF3E8
:105660006F8F00BF00BFFEE78000002070B50446CA
:1056700000F046F994F9455010E0606A08B901203D
:1056800000E0002038B904F1240001F031F918B12C
:1056900000F052FA00E003E0681E45B2002DECDC99
:1056A00000BFFF2084F8450000F054F900F028F90D
:1056B00094F9445010E0206908B9012000E000206E
:1056C00048B904F1100001F013F908B100F034FA00
:1056D000681E45B200E001E0002DECDC00BFFF20B9
:1056E00084F8440000F036F970BD00002DE9F04167
:1056F00004464FF0000800F099FA4648006808B9DF
:10570000FFF734FE44480068204000286BD1D4B134
:10571000083404F00700B0B104F00700C0F108003D
:10572000044404F0070008B9012000E0002050B94B
:1057300000BF502080F31188BFF34F8FBFF36F8FEE
:1057400000BF00BFFEE7002C4DD034480068844203
:1057500049D8334E3046056801E02E462D6868680A
:10576000A04202D228680028F7D12A480068854262
:1057700039D0306800F10808286830606868001B7C
:10578000102819D92F1907F0070008B9012000E0E7
:10579000002050B900BF502080F31188BFF34F8F15
:1057A000BFF36F8F00BF00BFFEE76868001B786023
:1057B0006C603846FFF7D0FE184968680968081A17
:1057C000164908600846006816490968884203D2ED
:1057D00012480068134908600F496868096808435F
:1057E00068600020286001F0CFF808F0070008B9D1
:1057F000012000E0002050B900BF502080F3118844
:10580000BFF34F8FBFF36F8F00BF00BFFEE740466F
:10581000BDE8F081700000207C00002074000020B2
:105820006800002078000020001F4FF080730360A4
:10583000001F21F001030360001F054B03601438B3
:105840000260001F6FF00203036020387047000001
:105850002D56000801460A69D1E901309860D1E966
:10586000010358605068884201D188685060002068
:1058700008611068401E106010687047034B036099
:10588000034B0B608023136070470000AC040020C2
:105890000005002000F1080141604FF0FF318160F8
:1058A00000F10801C1600161002101607047002121
:1058B0000161704710B502460B685C1C0CB9106999
:1058C00007E002F1080000E04068446824689C4258
:1058D000FAD944684C604C68A160886041600A61F4
:1058E0001468641C146010BD42684A6093688B6041
:1058F000936859609160086103685B1C036070479E
:1059000000BF502080F31188BFF34F8FBFF36F8F1C
:1059100000BF0E480068401C0C490860084600683B
:10592000012812D10A480068C0B208B9012000E07D
:10593000002050B900BF502080F31188BFF34F8F73
:10594000BFF36F8F00BF00BFFEE7704780000020ED
:1059500004ED00E00D48006850B900BF502080F30E
:105960001188BFF34F8FBFF36F8F00BF00BFFEE7FB
:1059700006480068401E054908600846006820B9CE
:10598000002080F3118800BF00BF70478000002016
:1059900070B506463546002E3FD0083D2C461F49BF
:1059A00060680968084008B1012000E0002050B993
:1059B00000BF502080F31188BFF34F8FBFF36F8F6C
:1059C00000BF00BFFEE7206808B9012000E000200A
:1059D00050B900BF502080F31188BFF34F8FBFF341
:1059E0006F8F00BF00BFFEE70C4960680968084080
:1059F00098B1206888B9094960680968884360607F
:105A000000F014F906496068096808440449086010
:105A10002046FFF7A1FD00F0B7FF70BD7C0000201D
:105A20007400002000204FF0E021086188610648E2
:105A300000684FF47A71B0FBF1F0401E4FF0E021A6
:105A400048610720086170472800002070B5FAF708
:105A500049FC0446102C16D304F1E02090F8F053D2
:105A600015480078854201DB012000E0002050B994
:105A700000BF502080F31188BFF34F8FBFF36F8FAB
:105A800000BF00BFFEE70D48006800F4E0600C496D
:105A90000968884201D8012000E0002050B900BF09
:105AA000502080F31188BFF34F8FBFF36F8F00BF7B
:105AB00000BFFEE770BD0000840000200CED00E098
:105AC0008800002070B504460025D4B11248006853
:105AD00008B9012000E0002050B900BF502080F339
