:020000040800F2
:10000000C01900200D030008911900088D1900087F
:100010008F1900086705000825200008000000006F
:100020000000000000000000000000002D02000899
:100030006905000800000000890200083D1B000857
:1000400027030008270300082703000827030008E8
:1000500027030008270300082703000827030008D8
:1000600027030008270300082703000827030008C8
:1000700027030008270300082703000827030008B8
:1000800027030008270300082703000827030008A8
:100090002703000827030008270300082703000898
:1000A00027030008AD1B00082703000827030008EA
:1000B00027030008000000000000000027030008DC
:1000C0002703000827030008270300082703000868
:1000D0002703000827030008270300082703000858
:1000E00027030008270300080000000000000000AC
:1000F0000000000000000000000000000000000000
:10010000000000002703000800000000270300088B
:10011000000000000000000027030008270300087B
:100120002703000827030008270300082703000807
:10013000270300080000000000000000000000008D
:1001400027030008270300082703000827030008E7
:1001500027030008270300082703000827030008D7
:1001600027030008270300082703000800000000F9
:1001700027030008270300082703000800000000E9
:1001800027030008270300082703000800F002F8EF
:1001900000F03CF80AA090E8000C82448344AAF1E5
:1001A0000107DA4501D100F031F8AFF2090EBAE8E3
:1001B0000F0013F0010F18BFFB1A43F0010318479B
:1001C000BC2B0000DC2B0000103A24BF78C878C19B
:1001D000FAD8520724BF30C830C144BF04680C604D
:1001E000704700000023002400250026103A28BF95
:1001F00078C1FBD8520728BF30C148BF0B60704799
:100200001FB502F055FD1FBD10B510BD00F071F90E
:100210001146FFF7F5FF01F09FFF00F08FF903B4DF
:10022000FFF7F2FF03BC00F097F900002C4B1968B0
:10023000086800F05AB880F30988BFF36F8F4FF059
:10024000000080F311887047000000000848006833
:10025000006880F308884FF0000080F3148862B6CD
:1002600061B6BFF34F8FBFF36F8F00DF00BF00BFDA
:1002700008ED00E0DFF80C00016841F47001016056
:10028000704700BF88ED00E0EFF30980BFF36F8F88
:10029000134B1A681EF0100F08BF20ED108A20E9DA
:1002A000F04F106009B44FF0500080F31188BFF395
:1002B0004F8FBFF36F8F02F031FB4FF0000080F3E0
:1002C000118809BC1968086800F014B81EF0100FF6
:1002D00008BF00F014B880F30988BFF36F8F704730
:1002E0001C000020EFF30580704730C8B0E8C04F15
:1002F000FFF7A1BF30C8B0E8C04FFFF7E7BFB0ECD1
:10030000088AB0EC08CAFFF7E6BF0000094880473A
:1003100009480047FEE7FEE7FEE7FEE7FEE7FEE7E7
:10032000FEE7FEE7FEE7FEE704480549054A064BFF
:1003300070470000691B00088D010008C0130020F1
:10034000C0190020C0150020C015002053EA020C7F
:1003500000F069802DE9F04B4FF00006002B1FBF25
:10036000B3FA83F503FA05F424FA05F65E4012BFEA
:100370001643B2FA82F502FA05F4C5F120051EBF54
:1003800022FA05FC44EA0C04203556EA044C4FEAF4
:10039000144418BF641C4FF000084FF0000990424D
:1003A00071EB030C39D3002919BFB1FA81F701FAB7
:1003B00007F6B0FA80F700FA07F6C7F120071EBF6C
:1003C00020FA07FC46EA0C062037B6FBF4FCA7EB44
:1003D0000507103F07F01F0BCBF120060CFA0BFBB3
:1003E0002CFA06F644BFB3460026202FA4BF5E4673
:1003F0004FF0000B5BEA060C08BF4FF0010B19EB46
:100400000B09ABFB027C48EB0608C01B06FB02CCC9
:100410000BFB03CC71EB0C01C1E70B4602464146D6
:100420004846BDE8F08B13B54FF000004FF00001D7
:10043000AFF30080BDE81C40704710B5203AC0F013
:100440000B80B1E81850203AA0E81850B1E81850D5
:10045000A0E81850BFF4F5AF5FEA027C24BFB1E812
:100460001850A0E8185044BF18C918C0BDE8104083
:100470005FEA827C24BF51F8043B40F8043B08BF8C
:100480007047D20728BF31F8023B48BF11F8012B53
:1004900028BF20F8023B48BF00F8012B70474FF0FF
:1004A000000200B5134694469646203922BFA0E8C4
:1004B0000C50A0E80C50B1F12001BFF4F7AF0907D0
:1004C00028BFA0E80C5048BF0CC05DF804EB8900C1
:1004D00028BF40F8042B08BF704748BF20F8022B04
:1004E00011F0804F18BF00F8012B7047704770471C
:1004F0007047754600F02CF8AE4605006946534635
:1005000020F00700854618B020B5FFF70DFFBDE8C5
:1005100020404FF000064FF000074FF000084FF06A
:10052000000B21F00701AC46ACE8C009ACE8C009FB
:10053000ACE8C009ACE8C0098D46704710B5044668
:10054000AFF300802046BDE81040FFF768BE000012
:10055000004870476013002001491820ABBEFEE739
:10056000260002007047FEE7704770B5040003D014
:1005700094F8200010B104E0012070BD204600F086
:1005800081F82068016821F00201016000F08EF915
:100590000546052604E000F089F9401B0A2811D819
:1005A000206840688007F6D42068016841F00101A6
:1005B000016000F07BF905460BE000F077F9401B85
:1005C0000A2806D9606A40F40030606284F820602E
:1005D000D2E720684068C007EFD0207E012820685D
:1005E00001683DD021F080010160607E0128206813
:1005F000016838D021F040010160A07E0128206808
:10060000016833D021F020010160E07E01282068DC
:1006100001682ED041F010010160207F0128206880
:10062000016829D021F008010160607F012820685D
:10063000016824D021F004010160D4E902010843DB
:10064000D4E90412114308436168491E0843216834
:10065000C86100206062012084F82000002070BD85
:1006600041F08001C0E741F04001C5E741F02001C1
:10067000CAE721F01001CFE741F00801D4E741F0CB
:100680000401D9E710B586B0044614216846FFF787
:1006900006FF1349206888421FD11248816D41F03E
:1006A00000718165816D01F000710591C16C41F0AF
:1006B0000201C164C06C694600F0020005904FF46D
:1006C00040700090022001900020029003200390CF
:1006D00009200490044800F009F806B010BD00009D
:1006E0000064004000100240000400482DE9FC4F67
:1006F000DFF894A1002301250AF1040B03244FF035
:100700000F0C0BF1040EB8E005FA03F632406FD07F
:100710004F68012F05D0022F03D0112F01D0122FC7
:1007200017D1D0F808905F0004FA07F829EA080901
:100730000097D1F80C8008FA07F848EA0908C0F8D1
:1007400008804768B7430E79C6F300169E403E43C3
:100750004660C6684FEA430804FA08F7BE430197AB
:100760008F6807FA08F73743C7604E68022E01D03A
:10077000122E13D1DE0800EB86060096366A5F075C
:10078000FF0E0CFA07F926EA0906D1F8109009FACB
:1007900007F949EA0609009EC6F820900668019FFD
:1007A000BE430F7907F0030707FA08F737430760DE
:1007B0004E68F60060D5354E376E47F00107376654
:1007C000366E23F0030706F001060096304E3E44D5
:1007D000B146B6689F074FEA17780CFA08F7BE4390
:1007E000B0F1904F05D02B4FB84204D1012712E051
:1007F00042E000270FE0284FB84201D102270AE06B
:10080000264FB84201D1032705E0254FB84201D158
:10081000042700E0072707FA08F73743C9F80870EC
:10082000DAF800605746D1F8048096435FEAC8388A
:1008300000D516433E60DBF800605F46D1F80480C7
:1008400096435FEA883800D516433E60DEF80060C4
:100850007746D1F8048096435FEAC82800D516434E
:100860003E60094F0C373E68D1F8048096435FEA3A
:10087000882800D516433E605B1C0A6832FA03F6EE
:100880007FF442AF00F00EB80004014000100240B7
:10089000000001400004004800080048000C004827
:1008A000001000481CBCBDE8E08F000001488068D3
:1008B000704700000C000020024881680278114453
:1008C000816070470C00002010B50024032000F068
:1008D00089F8002000F008F808B1012401E000F0D8
:1008E0003DF8204610BD000000B5014687B000224B
:1008F000192000F057F8192000F046F81348016E4F
:1009000041F400610166006E05A900F400600690E4
:10091000684600F057FB00F087FB0D490D4AB0FB1D
:10092000F1F10D48491E0260416040F2E7320021BA
:10093000C0E90321816000F094FE10B1012007B0EE
:1009400000BD054800F0C0FEF9E7000000100240BD
:1009500040420F00002C0140D0020020094808B599
:10096000016E41F001010166016E01F0010100918B
:10097000816D41F080518165806D00F08050009064
:1009800008BD000000100240002809DB00F01F0233
:10099000012191404009800000F1E020C0F80011E1
:1009A00070470000F0B40E4B1B680C46C3F30223E3
:1009B000C3F10705042D00D90425191D072901D20B
:1009C000002300E0DB1E012606FA05F1491E214046
:1009D00099409E40761E16403143F0BC01F0ABBBFF
:1009E0000CED00E0064900F0070208684FF6FF032F
:1009F000184040EA0220034A104308607047000094
:100A00000CED00E00000FA0501220168C0F8E822C0
:100A1000002280F8E02231F8540F40F001000880F5
:100A2000088840F002000880104670472DE9F04128
:100A300086B0040004D094F8A902002520B108E093
:100A4000012006B0BDE8F08184F8A852204600F0ED
:100A500061F8032084F8A902206801F0D9FA04F1B2
:100A60001001142288466846FFF7E7FC94E80F005F
:100A700001F0BCFA0226D0BB0021206801F0D0FAB8
:100A8000002001270FE000BF00EB800104EBC10153
:100A900081F8297001F8280FC881CD700D614D6172
:100AA000401CC0B28D6161688142EDD8002011E028
:100AB00000EB800104EBC10181F8695181F8680104
:100AC00081F86B51C1F87851C1F87C51401CC0B21B
:100AD000C1F8805161688142EAD8142241466846D3
:100AE000FFF7ABFC94E80F0001F089FA10B184F82D
:100AF000A962A5E784F8245084F8A972E069012866
:100B000002D12046FFF780FF206801F071FA002033
:100B100097E7000008B500680649884208D10648F2
:100B2000816D41F080618165806D00F08060009092
:100B300008BD000000680040001002401649B0F5F2
:100B4000007F0868C0F3412009D0022805D008685A
:100B500020F4C06040F480600860002070470128E5
:100B6000FBD0086820F4C06040F4007008600B48B7
:100B70003222006850430A4AB0FBF2F0401C00E009
:100B8000401E4A69520501D50028F9D1486940053F
:100B9000E3D50320704700000070004018000020DB
:100BA00040420F000248006800F4C0607047000037
:100BB000007000402DE9F84F044600270088B54D2D
:100BC0003E46000515D5606C60B1B0F5000F04D04D
:100BD000B0F5400F2BD001270AE0E86840F48030E0
:100BE000E86024E00021201D00F0D4FE07001ED0A4
:100BF0003E46206880033AD5A86D4FF00008C0003B
:100C000009D4A86D40F08050A865A86D4FF0010888
:100C100000F080500090DFF880A2DAF8001041F474
:100C20008071CAF80010FFF741FE814610E0D5F848
:100C30008800616C20F440000843C5F88800D8E7BC
:100C4000FFF734FEA0EB0900022801D9032705E0D5
:100C5000DAF80000C005F3D5002F7DD04FEA070673
:100C6000B8F1000F03D0A86D20F08050A86520785F
:100C7000C00707D0D5F88800216A20F00300084398
:100C8000C5F888002078800707D5D5F88800616A04
:100C900020F00C000843C5F888002078400707D5ED
:100CA000D5F88800A16A20F030000843C5F8880014
:100CB0002078800607D5D5F88800E16A20F44060E6
:100CC0000843C5F888002088800507D5D5F8880036
:100CD000E16B20F440200843C5F8880020884005D7
:100CE00007D5D5F88800216C20F440100843C5F8DA
:100CF00088002078400607D5D5F88800216B20F4BD
:100D000040500843C5F888002078000607D5D5F87C
:100D10008800616B20F440400843C5F888002088B3
:100D2000C00507D5D5F88800A16B20F440300843F2
:100D3000C5F8880020884FF0006780044FF0806875
:100D400050D5D5F88800A16C20F040600843C5F864
:100D50008800A06CB84200E005E03BD1E86840F4B0
:100D60008010E8603EE0D5F8900010F4407014D098
:100D7000E16D814211D0D5F89000D5F8901020F4A3
:100D8000407041F48031C5F89010D5F8901021F4EE
:100D90008031C5F89010C5F89000C00711D0FFF75A
:100DA00085FD074641F2883907E000BFFFF77EFD69
:100DB000C11B494501D9032652E7D5F890008007A9
:100DC000F4D5D5F89000E16D20F440700843C5F8E3
:100DD000900045E7404505D10121201D00F0DAFDD6
:100DE00000B106462068000317D5D5F88800E16CED
:100DF00020F040600843C5F88800E06CB84204D198
:100E0000E86840F48010E86007E0404505D1012122
:100E1000201D00F0BFFD00B106462068400317D535
:100E2000D5F88800216D20F040600843C5F888009F
:100E3000206DB84204D1E86840F48010E86007E013
:100E4000404505D10121201D00F0A4FD00B106465A
:100E50002088400411D5D5F88800616D20F04050FD
:100E60000843C5F88800606DB0F1805F05D10221AC
:100E7000201D00F08FFD00B106462088000406D535
:100E800055F8880FA16D20F0804008432860304657
:100E900000F004B8001002400070004018BCBDE82B
:100EA000E08F00002DE9F0470F46050058D0404E76
:100EB000306800F00700B84209D2306820F007001F
:100EC00038433060306800F00700B84248D12878D5
:100ED000384CC0072CD06868032811D0022812D0E3
:100EE000216898B1490500293ADAA16821F0030187
:100EF0000143A160FFF7DAFC804641F2883910E037
:100F000021688901EFE721688903ECE78907EAE7AF
:100F1000FFF7CCFCA0EB0801494502D90320BDE84E
:100F2000F087A068696800F00C00B0EB810FEFD18A
:100F30002878800705D5A068A96820F0F00008434C
:100F4000A060306800F00700B8420BD9306820F08C
:100F5000070038433060306800F00700B84201D025
:100F60000120DCE72878400705D5A068E96820F46F
:100F7000E0600843A0602878000706D5A0682969CA
:100F800020F4605040EAC100A06000F05FF8A16862
:100F9000094AC1F30311515C01F01F01C840074920
:100FA000086007480068BDE8F047FFF79DBC0000F7
:100FB0000020024000100240102D00081800002000
:100FC000100000200F2202600C4A936803F0030314
:100FD0004360936803F0F0038360936803F4E06375
:100FE000C36092684FF4E06303EAD20202610448EE
:100FF000006800F007000860704700000010024021
:10100000002002400548064900688968054AC1F386
:101010000221515C01F01F01C840704718000020F8
:1010200000100240502D00080548064900688968F4
:10103000054AC1F3C221515C01F01F01C84070474D
:101040001800002000100240502D000870B52549FE
:10105000002318468A68CC6812F00C0204F00306DC
:10106000214C4FEA640509D00C2A05D0042A32D05D
:10107000082A00D1284670BD012E10D10B681B072D
:1010800004D4D1F89430C3F3032302E00B68C3F314
:101090000313164E56F82330DAB10C2AEBD1C86888
:1010A00000F00300022818D0032818D01846CA6898
:1010B000CB68C2F30212C3F306234343521CB3FBB3
:1010C000F2F2C868C0F34160401C4000B2FBF0F08F
:1010D00070BD184670BD204670BD2046E7E7284623
:1010E000E5E70000001002400024F400202D000875
:1010F0002DE9F84304006FD0FE4DA86800F00C06FF
:10110000E86800F003072078C00664D576B10C2E9D
:1011100001D1012F0AD0A069002828687AD040F0B8
:1011200001002860FFF7C2FB80465DE02868800769
:1011300002D5A0690028DED0216A2868000703D5FF
:10114000286800F0F00004E0D5F89400F02202EAEC
:101150001010814216D9084600F0B2FC00283BD19D
:10116000286840F0080028602868216A20F0F00014
:10117000084328606868E16920F47F4040EA012064
:10118000686016E0286840F0080028602868216A36
:1011900020F0F000084328606868E16920F47F408F
:1011A00040EA0120686026B9206A00F089FC002826
:1011B000D5D1FFF74BFFA968CF4AC1F30311515CAA
:1011C00001F01F01C840CD490860CD480068FFF715
:1011D0008BFB00287ED12EE0CAE000BFFFF766FB44
:1011E000A0EB0800022876D828688007F6D5286882
:1011F00040F0080028602868216A20F0F0000843C9
:1012000028606868E16920F47F4040EA0120686056
:1012100011E0FFE720F001002860FFF747FB804660
:1012200006E000BFFFF742FBA0EB08000228DAD877
:1012300028688007F6D42078C00740D0082E18D040
:101240000C2E01D1032F14D06068B0F5803F17D069
:10125000B0F5A02F286817D020F4803028602868C7
:1012600020F4802028606068E0B1FFF71FFB804613
:1012700014E02868800322D56068002878D01EE03A
:10128000286840F48030EDE740F480202860F7E7DC
:10129000FFF70CFBA0EB08006428A4D828688003A3
:1012A000F6D50CE0FFF702FB804605E0FFF7FEFAFB
:1012B000A0EB0800642896D828688003F6D420782C
:1012C00080073BD5042E11D00C2E01D1022F0DD05A
:1012D000E06801E0B6E1FFE0002828681ED040F495
:1012E00080702860FFF7E2FA07460CE028684005A6
:1012F0000CD5E0680028C1D008E000BFFFF7D6FA9F
:10130000C01B022893D828684005F7D56868217C5F
:1013100020F0FE4040EA016068600FE020F4807039
:101320002860FFF7C3FA074605E000BFFFF7BEFAE3
:10133000C01B0228B1D828684005F7D420780007E0
:1013400029D560690028D5F8940012D040F001003A
:10135000C5F89400FFF7AAFA074604E0FFF7A6FADB
:10136000C01B022899D8D5F894008007F6D512E062
:101370002BE120F00100C5F89400FFF797FA07462B
:1013800005E000BFFFF792FAC01B022885D8D5F808
:1013900094008007F6D42078400766D5A86D002712
:1013A000C00008D4A86D40F08050A865A86D012742
:1013B00000F08050009053480168C90512D40168BC
:1013C000814641F480710160FFF770FA804605E0C4
:1013D000FFF76CFAA0EB080002287DD8D9F80000CE
:1013E000C005F5D5A068012816D00528D5F89000CD
:1013F00017D020F00100C5F89000D5F8900020F03B
:10140000040000BFC5F89000A06841F28839C0B15F
:10141000FFF74CFA80460FE0D5F8900040F001004D
:10142000F0E740F00400C5F89000F5E7FFF73EFA5A
:10143000A0EB080149454FD8D5F890008007F5D5B5
:101440000EE0FFF733FA804606E000BFFFF72EFA02
:10145000A0EB080149453FD8D5F890008007F5D4A6
:101460001FB1A86D20F08050A8652078800628D58F
:10147000606A0028D5F8980012D040F00100C5F845
:101480009800FFF713FA074605E000BFFFF70EFAD2
:10149000C01B022820D8D5F898008007F6D510E0A8
:1014A00020F00100C5F89800FFF700FA074604E0B5
:1014B000FFF7FCF9C01B02280ED8D5F8980080076A
:1014C000F6D4A06AA8B1022824D00C2E7DD02868BA
:1014D00020F08070286000E0B3E02868000103D4A9
:1014E000E86820F00300E860E86807490840E86021
:1014F0000CE09FE000100240102D000818000020B2
:101500001000002000700040FFFFEEFEFFF7CEF954
:10151000044699E0E868E26A00F00301914226D1AE
:10152000216B00F070020901103991421FD1626BEA
:1015300000F4FE41B1EB022F19D194F8382000F0ED
:101540007841B1EBC26F12D1A18F00F4C0024908FB
:101550004905A1F50011914209D194F8401000F01D
:10156000C06049084906A1F1007181424BD00C2EA0
:101570006FD0286840016CD4286820F08070286003
:10158000FFF794F9064604E0FFF790F9801B022864
:1015900057D828688001F7D4F4E90B016FF00F02E7
:1015A00002EB01110843218A5204490802EB415120
:1015B000A26841EA02210843217D4FF07E4249089A
:1015C00002EB41610843217B00E042E040EAC16058
:1015D000E968214A11400843E860286840F08070BB
:1015E0002860E86840F08070E860FFF75FF9044623
:1015F00005E000BFFFF75AF9001B022821D8286830
:101600008001F7D523E02868800120D4286840F0C5
:1016100080702860E86840F08070E860FFF746F965
:10162000044604E0FFF742F9001B022809D82868A5
:101630008001F7D50BE000BFFFF738F9001B022847
:1016400002D90320BDE8F88328688001F4D4002083
:10165000F8E70120F6E700008C809D017047704795
:10166000704710B5040003D094F83D0010B107E0B6
:10167000012010BD002084F83C00204600F022F834
:10168000022084F83D00211D206800F095FA012019
:1016900084F8480084F83E0084F83F0084F8400055
:1016A00084F8410084F8420084F8430084F8440040
:1016B00084F8450084F8460084F8470084F83D002B
:1016C000002010BD7047000090F83D10012901D0A6
:1016D00001207047022180F83D100168CA6842F07D
:1016E0000102CA6000680B49884205D0B0F1804F02
:1016F00002D00949884207D18168084A1140062969
:1017000006D0B1F5803F03D0016841F001010160CE
:1017100000207047002C01400040014007000100FC
:10172000704770B50446006801694FF00005C94371
:10173000890715D4C168C943890711D4E91E01611D
:1017400001202077206880698007204602D0FFF7BB
:10175000E7FF04E000F0A7F8204600F0A5F82577A1
:1017600020680169C943490717D4C168C9434907BB
:1017700013D46FF004010161022020772068806992
:1017800010F4407F204602D0FFF7CAFF04E000F0CB
:101790008AF8204600F088F8257720680169C94357
:1017A000090716D4C168C943090712D46FF00801AC
:1017B0000161042020772068C0698007204602D09C
:1017C000FFF7AEFF04E000F06EF8204600F06CF882
:1017D000257720680169C943C90617D4C168C94380
:1017E000C90613D46FF0100101610820207720682A
:1017F000C06910F4407F204602D0FFF791FF04E05B
:1018000000F051F8204600F04FF825772068016974
:10181000C943C90708D1C168C943C90704D1891E92
:101820000161204600F042F820680169C9430906B9
:1018300009D4C168C943090605D46FF0800101616C
:101840002046FFF70CFF20680169C943C90509D488
:10185000C168C943090605D46FF48071016120464F
:10186000FFF7FCFE20680169C943490609D4C16835
:10187000C943490605D46FF040010161204600F0DC
:101880001FF820680169C94389060BD4C168C943A0
:10189000890607D46FF0200101612046BDE8704041
:1018A000FFF7DEBE70BD7047704700000068034957
:1018B000884201D1FFF700B870470000002C0140BA
:1018C000704710B5040002D0606F10B107E001202E
:1018D00010BD002084F87000204600F025F8242078
:1018E00060672068016821F001010160204600F076
:1018F00029FA0128ECD0606A10B1204600F092F974
:101900002068416821F4904141602068816821F09D
:101910002A0181602068016841F0010101602046D0
:10192000BDE8104000F0E2B910B586B004461421BD
:101930006846FEF7B4FD13492068884220D112485A
:10194000016E41F480410166016E01F48041059110
:10195000C16C41F00101C164C06C694600F0010036
:1019600005904FF4C060009002200190002002908A
:1019700003200390072004904FF09040FEF7B6FE3E
:1019800006B010BD0038014000100240FEE7FEE73F
:10199000704700002DE9F041444C05468846E06858
:1019A0000026810728680DD0E16801F0030181421B
:1019B00016D1A8B1E0686968C0F30210401C8842E3
:1019C0000ED120E0012804D0022805D0032807D139
:1019D00008E02168890701E021684905002907DB43
:1019E00001265FE02168890302D421684903F5E7F5
:1019F000E1686A686FF00F0321F0730103EB0212D4
:101A000011430143E160206820F080602060FEF710
:101A10004DFF074605E000BFFEF748FFC01B022848
:101A200037D820680001F7D4B8F1000F18D0B8F10A
:101A3000010F1DD0287D4FF07E41400801EB406032
:101A4000A96840EA01202169194A11400843206130
:101A5000206840F080602060FEF728FF07461AE00B
:101A6000A868297B000240EAC1602169114AECE7BD
:101A7000288A1149400801EB4050A96840EA01203A
:101A800021690E4AE1E700BFFEF710FFC01B0228E4
:101A900001D9032606E020680001F5D52069A9696F
:101AA000084320613046BDE8F0810000001002408C
:101AB000FF80FFF9FF80FF070000E0FFFF809FFF2E
:101AC000F8B51C4D06460024A86DC00002D5FFF7EE
:101AD00069F80DE0A86D40F08050A865A86D00F091
:101AE00080500090FFF75EF8A96D21F08051A96544
:101AF000B0F5007F04D0802E07D94FF003040AE030
:101B0000802E08D9A02E01D804E001D1022402E0E1
:101B1000702E00D101240848016821F007012143FB
:101B20000160006800F00700A04201D00120F8BD6C
:101B30000020F8BD001002400020024010B55020E7
:101B400080F31188BFF34F8FBFF36F8F00F0EAFF70
:101B500018B104494FF080500860002080F31188CC
:101B600010BD000004ED00E00D48016841F4700173
:101B700001600C48016841F00101016000218160B1
:101B80000268094B1A4002608214C260026822F4A3
:101B90008022026081610249C00380390860704779
:101BA00088ED00E000100240FFFFF6EA0148FFF771
:101BB000B8BD0000D002002070B50268164B4FF08F
:101BC0008046984201D0B04203D122F070044A68A6
:101BD0002243124C124D984205D0B04203D0A0428D
:101BE00001D0A84203D122F44076CA6832434E693C
:101BF00022F08002324302608A68C2620A6882620E
:101C0000984203D0A04201D0A84201D109690163E2
:101C10000121416170BD0000002C014000400140E5
:101C20000044014090F82410C90706D001684A68B2
:101C3000836A22F400321A434A6090F8241089071C
:101C400006D501684A68C36A22F480321A434A60A2
:101C500090F82410490706D501684A68036B22F4FE
:101C600080221A434A6090F82410090706D50168BB
:101C70004A68436B22F400421A434A6090F82410E9
:101C8000C90606D501688A68836B22F480521A431C
:101C90008A6090F82410890606D501688A68C36BAB
:101CA00022F400521A438A6090F82410490611D594
:101CB00001684A68036C22F480121A434A60016C7E
:101CC000B1F5801F06D101684A68436C22F4C00256
:101CD0001A434A6090F82410090606D501684A683C
:101CE000806C22F4002202434A607047F8B5002657
:101CF0000446C667FEF7DAFD0546206800686FF007
:101D00007E47000708D52B4600224FF400112046DD
:101D1000009700F019F960B92068006840070AD5FB
:101D20002B4600224FF480012046009700F00CF96A
:101D300008B10320F8BD20206067A06784F87060B8
:101D40000020F8BD2DE9F041044601688068226951
:101D5000E3691043626900251A431043724F0A6811
:101D6000724B1A4002430A6020684168E26821F41D
:101D70004051114341602168A069B94201D0226AF3
:101D800010438A6822F4306202438A6068492368FB
:101D900068488B420DD1D0F8880010F0030006D0BF
:101DA000012847D0022843D0032830D144E0012144
:101DB0002EE061498B420BD1D0F8880010F00C0066
:101DC00034D0042836D0082832D00C281FD133E074
:101DD0005A498B420BD1D0F8880010F0300025D042
:101DE000102827D0202823D0302810D124E0BB424F
:101DF0000DD1D0F8880010F4406017D0B0F5806F96
:101E000018D0B0F5006F13D0B0F5406F14D010218A
:101E10004B4A00264FF40040BB422FD171B102293A
:101E20000FD004290FD0082975D10FE00021EFE76A
:101E30000221EDE70421EBE70821E9E7FFF7E2F8EB
:101E400003E0104602E0FFF701F9E0B3626802EB3D
:101E5000420181425FD8B0EB023F5CD8010E000224
:101E600073084FEA3207C01959410023FEF76EFA92
:101E7000344AA0F5407191424FD94CE0E3694FF6E6
:101E8000EF77834229D1092945D2DFE801F005081F
:101E90000B440D4444441000FFF7B4F806E0FFF78C
:101EA000C3F803E0104602E0FFF7D0F858B1410054
:101EB000606801EB5001B1FBF0F080B2A0F11001BD
:101EC000B94228D800E02AE04FF6F0710140C0F393
:101ED000420001432068C16021E009291BD2DFE8EC
:101EE00001F005080B1A0D1A1A1A1000FFF78AF8EC
:101EF00006E0FFF799F803E0104602E0FFF7A6F8C6
:101F000068B1616800EB5100B0FBF1F080B2A0F164
:101F10001001B94201D9012501E02168C860266697
:101F200028466666BDE8F08100800040F369FFEF57
:101F300000380140001002400044004000480040CA
:101F40000024F400FFFC0F002DE9F0479A461746E5
:101F50000E4604464FF000094FF02008089D39E076
:101F6000681C37D0FEF7A2FCA0EB0A00A84222D8DA
:101F70000DB32068016849072CD5C069C04300052E
:101F800028D421684FF4006008622068016821F4B9
:101F9000D07101602068816821F001018160C4F87E
:101FA0007480C4F87880C4F87C8000BF84F8709096
:101FB0000320BDE8F0872068016821F4D07101603A
:101FC0002068816821F001018160C4F87480C4F840
:101FD0007880EBE72068C06936EA000004D0002072
:101FE000B842BDD00020E4E70120F9E700207047A7
:101FF00030F8581FC1F30E01018000207047012105
:1020000020F8401F0021018081800182084670472E
:1020100030F8401F4BF680729143018000207047DA
:1020200000207047FEE700000B480A494FF40032D9
:1020300001601021416000218160C0E9031212019A
:102040004261017641768176C17601774177FEF76C
:102050008CBA0000006400401C030020FEE700F082
:1020600069F8012000F0D6F8FBE7F0B5AFB04421E5
:1020700018A8FEF714FA142129A8FEF710FA602117
:102080006846FEF70CFA1020189001240025CDE9CF
:102090001E4502266020CDE92264209028200727D3
:1020A000CDE92440CDE92676289618A8FFF720F838
:1020B0000F2029900320CDE92A052C95042129A879
:1020C0002D95FEF7EFFE42F201000090800612907F
:1020D0001820CDE90240CDE904760194069620054A
:1020E000CDE907056846FEF765FD6002FEF726FDAF
:1020F0002FB0F0BD0948084901604FF4E13141605B
:10210000002181600C22C160C0E904128161C161BB
:1021100001624162FFF7D5BB003801404403002053
:10212000FFF79CFF012000F075F8FBE7012000F0AD
:1021300071F8FBE7FEE70907090E002804DB00F150
:10214000E02080F80014704700F00F0000F1E0205C
:1021500080F8141D7047000096B0FEF7B5FBFFF73E
:1021600084FF2448C16C41F00101C164C16C01F0DD
:1021700001011591C16C41F00201C164C06C00F015
:1021800002001590FFF750FFFFF7B4FF1B481A49F4
:1021900001600821416002218160016100214161EB
:1021A0008161C1610162FEF741FC1C22144968464D
:1021B000FEF743F90021684600F038F8114C104949
:1021C0001C2220601C3107A8FEF737F9002107A860
:1021D00000F02CF80A4960601C2238310EA8FEF786
:1021E0002CF900210EA800F021F8A06000F019F8E9
:1021F000FEE700000010024000680040C403002019
:10220000BC2C00080000002001460020842900D0DA
:10221000C81C704710B500B9012000F01BFB00205E
:1022200010BD10B500F03CFB002010BD7FB50D4681
:1022300004464169B0F9080081B1A16971B1FFF7A5
:10224000E3FFD4E905128DE80700D4E900102B461E
:10225000226900F03BFC039004B070BDFFF7D4FF8F
:1022600003A9CDE90001208A2B4682B2D4E90010EF
:1022700000F0FCFB012801D00020EDE70398EBE71C
:102280002DE9F041184C0F46054666692068001D8F
:1022900000F01CFA38B9206890F82C100120884012
:1022A000A1698143A161681C07D137B12168BDE8EC
:1022B000F0410E48091D00F04DBA20683544B54282
:1022C0004560216805D2A068BDE8F041091D00F015
:1022D00029BA6068091D00F025FA206B854200D2FA
:1022E0002563BDE8F08100001C0000209407002059
:1022F0002DE9F041054600F039FA2E4C2069401CCA
:10230000206120682C4F10B1E06940B32DE02560BA
:102310002069012829D1002606EB860007EB800002
:1023200000F0F2F9761C072EF6D323488C3000F02B
:10233000EBF92148A03000F0E7F91F48B43000F075
:10234000E3F91D48C83000F0DFF91B48DC3000F02D
:10235000DBF919488C3060601430A06005E020681B
:10236000E96AC06A884200D82560E06A401CE062E1
:10237000E96A0120A26988401043A06101EB810055
:1023800007EB8000291D00F0E5F900F00FFAE06985
:1023900000280CD02068E96AC06A884207D2074941
:1023A0004FF080500860BFF34F8FBFF36F8FBDE8D1
:1023B000F08100001C000020B806002004ED00E0C1
:1023C00010B5044690F8510058B101280CD00228ED
:1023D0000FD0502080F31188BFF34F8FBFF36F8F62
:1023E000FEE7206B00F0F6F92046BDE8104000F053
:1023F000F1B910BD0F4840F6B831420705D0C01DF5
:102400000C4A20F00700821A891A0B4A0023014463
:10241000C2E900030839103A21F0070111604B604E
:102420000B600B1AC0E9001393604FF0004053603B
:10243000D0607047A807002068000020144E154C9B
:10244000A6F1C8074FF08058DFF84C9012E000BFAB
:1024500000F08CF9F068C568281D00F037F9206994
:10246000401E2061E068401EE06000F09FF92846B1
:10247000FFF7A6FFE0680028EAD138680128F9D9FB
:10248000C9F80080BFF34F8FBFF36F8FF2E70000F2
:10249000800700201C00002004ED00E02DE9F0473B
:1024A0009A46DDE9098481466FF00303206B03EB54
:1024B00082021044089E20F00707780707D05020BA
:1024C00080F31188BFF34F8FBFF36F8FFEE70025B6
:1024D00061B1002023180A5C83F834200A5C12B131
:1024E000401C1028F6D384F8435001E084F834509F
:1024F000072E00D30626E662C4E91165201D00F010
:102500000EF904F1180000F00AF92461C6F1070081
:102510006462A061E56484F85050524649463846EA
:1025200000F0BEF82060B8F1000F01D0C8F80040FC
:10253000BDE8F08730B5114900E011460A688242D3
:10254000FBD34B685C18844203D140681844486050
:10255000084643681C18944209D1084C103C246872
:10256000A24209D052681A4442600A6812680260A6
:10257000814200D0086030BD0460F9E768000020A7
:1025800006484168096829B14168C968C96849684D
:10259000016370474FF0FF31FAE700001C00002094
:1025A00008484068401C4FF0500080F3118804D068
:1025B000BFF34F8FBFF36F8FFEE7BFF34F8FBFF3B4
:1025C0006F8FFEE7700000202DE9F04105460027DF
:1025D00000F09CF9314E306808B9FFF70BFFF06846
:1025E00005424BD1C5B3083568070ED005F007008A
:1025F000C0F108000544680707D0502080F3118817
:10260000BFF34F8FBFF36F8FFEE72DB37068854226
:1026100034D82248103001460C6801E020460C46B0
:102620006168A94202D221680029F7D131688C4241
:1026300024D007682168016060680837411B1029B1
:102640000FD96019420708D0502080F31188BFF3DA
:102650004F8FBFF36F8FFEE710E041606560FFF7BB
:1026600069FF61687068401A7060B268904200D279
:10267000B060F06801430020C4E9000100F0B6FA40
:10268000780707D0502080F31188BFF34F8FBFF336
:102690006F8FFEE73846BDE8F0810000580000204B
:1026A00010B5031F4FF080741C601B1F21F0010147
:1026B0001960191F044B0B6014390A60091F6FF071
:1026C000020244380A6010BDA1250008D0E9013299
:1026D00001699A60D0E901235A604A68824201D1B7
:1026E00082684A60002202610868401E086008682B
:1026F00070470000034B036003F154000860802022
:10270000106070477C00002000F108014FF0FF329C
:10271000C0E90112C1600161002101607047002120
:102720000161704730B50B685A1C02D000F10802F5
:1027300002E0026904E02246546825689D42FAD905
:1027400053684B6099608A60516008610168491C58
:10275000016030BD42684A6093688B60936859603D
:10276000916008610168491C01607047502080F346
:102770001188BFF34F8FBFF36F8F0A494868401C21
:10278000486001280CD10848006810F0FF0F07D0FE
:10279000502080F31188BFF34F8FBFF36F8FFEE798
:1027A000704700007000002004ED00E00849486810
:1027B00028B1401E486001D180F311887047502035
:1027C00080F31188BFF34F8FBFF36F8FFEE70000D8
:1027D0007000002070B5002827D0144DA0F1080427
:1027E0006168E868014207D1502080F31188BFF387
:1027F0004F8FBFF36F8FFEE722683AB1502080F30E
:102800001188BFF34F8FBFF36F8FFEE78143616085
:1028100000F07CF860686968084468602046FFF74B
:1028200089FEBDE8704000F0E1B970BD580000209D
:102830004FF0E02000210161816105494FF47A7277
:102840000968B1FBF2F1491E41610721016170473E
:102850001800002010B5020014D00F48806B38B16A
:10286000502080F31188BFF34F8FBFF36F8FFEE7C7
:1028700000F04CF800211046FFF702FD00F0B6F919
:10288000002807D105494FF080500860BFF34F8FF3
:10289000BFF36F8F10BD00001C00002004ED00E0AE
:1028A00010B586B00024039405AA04A903A80494D3
:1028B000FFF720FFDDE903010094CDE901100023BB
:1028C0000EA11048059A00F001F90F49002848634D
:1028D00011D0502080F31188BFF34F8FBFF36F8F5B
:1028E0004FF0FF3008630120C8614C6106B0BDE8BD
:1028F000104000F041B806B010BD000049444C45FE
:10290000000000003D2400081C0000200248816BEC
:10291000491C8163704700001C0000201448816B33
:1029200011B1012141627047002141628169B1FA10
:1029300081F1C1F11F0101EB81020E4951F82230F2
:102940006BB101EB820101F108034A6852684A60E9
:102950009A4201D152684A60D168016070475020A4
:1029600080F31188BFF34F8FBFF36F8FFEE7000036
:102970001C000020B80600201CB537480168374A03
:10298000914207D1502080F31188BFF34F8FBFF3DE
:102990006F8FFEE700683149491E884207D15020F9
:1029A00080F31188BFF34F8FBFF36F8FFEE72C4981
:1029B00008780190FF20087008788DF800009DF8D5
:1029C00000009DF8002000F0F000904207D0502059
:1029D00080F31188BFF34F8FBFF36F8FFEE79DF831
:1029E0000000204B00F0500018700720986005E0B0
:1029F0009DF8002052008DF80020401E9DF8002018
:102A00001206F5D49860032807D0502080F311886F
:102A1000BFF34F8FBFF36F8FFEE74FF440709860A6
:102A2000019808700C482030016841F47001016081
:102A3000016841F070410160FFF7FAFE0020586024
:102A4000FDF718FC0848016841F040410160FDF7BE
:102A5000FDFB00201CBD000000ED00E071C20F4135
:102A600000E400E07000002034EF00E02DE9FF5F9B
:102A70008346DDE90E87994616468A469000FFF7A1
:102A8000A3FD05001CD05420FFF79EFD040014D0C8
:102A90000020256384F85100CDE90240CDE900878C
:102AA0004B46324651465846FFF7F8FC2046FFF7A2
:102AB0001FFC012004B000F006B82846FFF78AFE8C
:102AC0004FF0FF30F6E730BCBDE8C09FF0B585B0F1
:102AD000DDE90B640A9DA6B1DCB15427009726639B
:102AE000022684F85160002604AFCDE90246CDE904
:102AF0000057FFF7D3FC2046FFF7FAFB049805B018
:102B0000F0BD502080F31188BFF34F8FBFF36F8F5C
:102B1000FEE7502080F31188BFF34F8FBFF36F8F14
:102B2000FEE700002DE9F0412E4C0027A06B40B1DC
:102B3000206A401C2062606A00B101273846BDE867
:102B4000F0816669761C666113D16068006838B1EF
:102B5000502080F31188BFF34F8FBFF36F8FFEE7D4
:102B60006068A1686160A060A06A401CA062FFF775
:102B700007FD206BDFF87080864209D3606800682B
:102B800080B16068C068C568686886420DD22063FD
:102B90002068C06A00EB800158F821000128CAD9DA
:102BA0000127C8E74FF0FF30F1E7281DFFF78EFD42
:102BB000A86A18B105F11800FFF788FDE86A01213D
:102BC000A26981401143A16100EB800108EB810003
:102BD000291DFFF7BFFDE86A2168C96A8842CDD385
:102BE0000127CBE71C000020B80600202DE9F047A4
:102BF0002C4D00242746A86B38B1FFF7B7FDA86B12
:102C0000401EA863A86B40B146E0502080F31188B5
:102C1000BFF34F8FBFF36F8FFEE72969224E01206C
:102C2000D1B3A6F1B40980463068E8B1F068C46851
:102C300004F11800FFF74AFD201DFFF747FDE06A89
:102C4000AA6908FA00F11143A96100EB800109EBC0
:102C50008100211DFFF77EFDE06A2968C96A88426C
:102C6000E2D3C5F82480DFE70CB1FFF789FC2C6ABA
:102C700044B14646FFF756FF00B16E62641EF9D1BB
:102C800000202862686A38B10849012738070860BF
:102C9000BFF34F8FBFF36F8FFFF788FD3846BDE856
:102CA000F08700001C0000206C07002004ED00E00D
:102CB0004FF04070E1EE100A70470000742D0008DC
:102CC0002D2100080000000000000000800000002E
:102CD0000000000000000000682D00085F200008D0
:102CE000FDFF000000000000800000000000000068
:102CF00000000000582D00082121000800000000FD
:102D00000000000080000000000000000000000043
:102D1000000000000000000001020304060708098B
:102D2000A0860100400D0300801A060000350C004B
:102D300040420F0080841E0000093D0000127A000E
:102D40000024F40000366E010048E801006CDC024B
:102D50000000000001020304696E7465726E657400
:102D6000536572766963650064617461436F6C6C6E
:102D700065637400696E6974000000009C2D000892
:102D8000000000207C000000C8010008182E000888
:102D90007C00002044190000E4010008000000004D
:102DA0000000000000000000010000001000000012
:102DB0000000000000093D000000000000000000CD
:102DC0000000000000000000000000000000000003
:102DD00000000000000000000000000000000000F3
:102DE00000000000000000000000000000000000E3
:102DF00000000000000000000000000000000000D3
:102E000000000000000000000000000000000000C2
:082E1000AAAAAAAA0000000012
:040000050800018D61
:00000001FF
